{"contracts/AstroDAOSecure.sol":{"AstroDAO":{"abi":[{"inputs":[],"stateMutability":"nonpayable","type":"constructor"},{"inputs":[],"name":"AlreadyDelegated","type":"error"},{"inputs":[],"name":"AlreadyVoted","type":"error"},{"inputs":[],"name":"EnforcedPause","type":"error"},{"inputs":[],"name":"ExpectedPause","type":"error"},{"inputs":[],"name":"InsufficientReputation","type":"error"},{"inputs":[],"name":"InvalidProposalId","type":"error"},{"inputs":[{"internalType":"address","name":"owner","type":"address"}],"name":"OwnableInvalidOwner","type":"error"},{"inputs":[{"internalType":"address","name":"account","type":"address"}],"name":"OwnableUnauthorizedAccount","type":"error"},{"inputs":[],"name":"ProposalNotActive","type":"error"},{"inputs":[],"name":"QuorumNotReached","type":"error"},{"inputs":[],"name":"ReentrancyGuardReentrantCall","type":"error"},{"inputs":[],"name":"Unauthorized","type":"error"},{"anonymous":false,"inputs":[{"indexed":true,"internalType":"address","name":"delegator","type":"address"},{"indexed":true,"internalType":"address","name":"fromDelegate","type":"address"},{"indexed":true,"internalType":"address","name":"toDelegate","type":"address"}],"name":"DelegateChanged","type":"event"},{"anonymous":false,"inputs":[{"indexed":true,"internalType":"uint256","name":"proposalId","type":"uint256"},{"indexed":true,"internalType":"uint256","name":"discoveryId","type":"uint256"},{"indexed":false,"internalType":"string","name":"title","type":"string"},{"indexed":false,"internalType":"string","name":"researcher","type":"string"}],"name":"DiscoverySubmitted","type":"event"},{"anonymous":false,"inputs":[{"indexed":true,"internalType":"uint256","name":"discoveryId","type":"uint256"},{"indexed":false,"internalType":"uint256","name":"totalApprovals","type":"uint256"}],"name":"DiscoveryVerified","type":"event"},{"anonymous":false,"inputs":[{"indexed":true,"internalType":"address","name":"previousOwner","type":"address"},{"indexed":true,"internalType":"address","name":"newOwner","type":"address"}],"name":"OwnershipTransferred","type":"event"},{"anonymous":false,"inputs":[{"indexed":false,"internalType":"address","name":"account","type":"address"}],"name":"Paused","type":"event"},{"anonymous":false,"inputs":[{"indexed":true,"internalType":"uint256","name":"proposalId","type":"uint256"},{"indexed":true,"internalType":"address","name":"proposer","type":"address"},{"indexed":true,"internalType":"enum AstroDAO.ProposalType","name":"proposalType","type":"uint8"},{"indexed":false,"internalType":"string","name":"title","type":"string"},{"indexed":false,"internalType":"uint256","name":"endTime","type":"uint256"}],"name":"ProposalCreated","type":"event"},{"anonymous":false,"inputs":[{"indexed":true,"internalType":"uint256","name":"proposalId","type":"uint256"}],"name":"ProposalExecuted","type":"event"},{"anonymous":false,"inputs":[{"indexed":true,"internalType":"uint256","name":"proposalId","type":"uint256"},{"indexed":false,"internalType":"enum AstroDAO.ProposalStatus","name":"status","type":"uint8"},{"indexed":false,"internalType":"uint256","name":"votesFor","type":"uint256"},{"indexed":false,"internalType":"uint256","name":"votesAgainst","type":"uint256"},{"indexed":false,"internalType":"uint256","name":"votesAbstain","type":"uint256"}],"name":"ProposalFinalized","type":"event"},{"anonymous":false,"inputs":[{"indexed":true,"internalType":"uint256","name":"proposalId","type":"uint256"},{"indexed":false,"internalType":"uint256","name":"executionTime","type":"uint256"}],"name":"ProposalQueued","type":"event"},{"anonymous":false,"inputs":[{"indexed":true,"internalType":"address","name":"user","type":"address"},{"indexed":false,"internalType":"uint256","name":"amount","type":"uint256"},{"indexed":false,"internalType":"string","name":"reason","type":"string"}],"name":"ReputationEarned","type":"event"},{"anonymous":false,"inputs":[{"indexed":false,"internalType":"address","name":"account","type":"address"}],"name":"Unpaused","type":"event"},{"anonymous":false,"inputs":[{"indexed":true,"internalType":"uint256","name":"proposalId","type":"uint256"},{"indexed":true,"internalType":"address","name":"voter","type":"address"},{"indexed":false,"internalType":"enum AstroDAO.VoteChoice","name":"choice","type":"uint8"},{"indexed":false,"internalType":"uint256","name":"newVoteCount","type":"uint256"}],"name":"VoteCast","type":"event"},{"anonymous":false,"inputs":[{"indexed":true,"internalType":"uint256","name":"proposalId","type":"uint256"},{"indexed":false,"internalType":"string","name":"themeName","type":"string"},{"indexed":false,"internalType":"uint256","name":"weekNumber","type":"uint256"}],"name":"WeeklyThemeSet","type":"event"},{"inputs":[],"name":"MAX_REPUTATION","outputs":[{"internalType":"uint256","name":"","type":"uint256"}],"stateMutability":"view","type":"function"},{"inputs":[],"name":"activeVoterWindow","outputs":[{"internalType":"uint256","name":"","type":"uint256"}],"stateMutability":"view","type":"function"},{"inputs":[],"name":"activeWeeklyTheme","outputs":[{"internalType":"uint256","name":"","type":"uint256"}],"stateMutability":"view","type":"function"},{"inputs":[{"internalType":"address","name":"_user","type":"address"},{"internalType":"uint256","name":"_amount","type":"uint256"}],"name":"awardReputation","outputs":[],"stateMutability":"nonpayable","type":"function"},{"inputs":[{"internalType":"uint256","name":"_proposalId","type":"uint256"}],"name":"cancelProposal","outputs":[],"stateMutability":"nonpayable","type":"function"},{"inputs":[{"internalType":"uint256","name":"","type":"uint256"}],"name":"communityProposals","outputs":[{"internalType":"uint256","name":"","type":"uint256"}],"stateMutability":"view","type":"function"},{"inputs":[{"internalType":"enum AstroDAO.ProposalType","name":"_type","type":"uint8"},{"internalType":"string","name":"_title","type":"string"},{"internalType":"string","name":"_description","type":"string"},{"internalType":"string","name":"_ipfsHash","type":"string"},{"internalType":"bool","name":"_quickVote","type":"bool"}],"name":"createProposal","outputs":[{"internalType":"uint256","name":"","type":"uint256"}],"stateMutability":"nonpayable","type":"function"},{"inputs":[],"name":"currentWeek","outputs":[{"internalType":"uint256","name":"","type":"uint256"}],"stateMutability":"view","type":"function"},{"inputs":[{"internalType":"address","name":"_delegatee","type":"address"}],"name":"delegate","outputs":[],"stateMutability":"nonpayable","type":"function"},{"inputs":[{"internalType":"address","name":"","type":"address"}],"name":"delegates","outputs":[{"internalType":"address","name":"","type":"address"}],"stateMutability":"view","type":"function"},{"inputs":[{"internalType":"uint256","name":"","type":"uint256"}],"name":"discoveries","outputs":[{"internalType":"uint256","name":"proposalId","type":"uint256"},{"internalType":"string","name":"title","type":"string"},{"internalType":"string","name":"researcherName","type":"string"},{"internalType":"string","name":"institution","type":"string"},{"internalType":"string","name":"paperIPFS","type":"string"},{"internalType":"uint256","name":"votingScore","type":"uint256"},{"internalType":"uint256","name":"timestamp","type":"uint256"},{"internalType":"bool","name":"verified","type":"bool"},{"internalType":"uint256","name":"approvalCount","type":"uint256"}],"stateMutability":"view","type":"function"},{"inputs":[],"name":"discoveryCount","outputs":[{"internalType":"uint256","name":"","type":"uint256"}],"stateMutability":"view","type":"function"},{"inputs":[{"internalType":"uint256","name":"","type":"uint256"}],"name":"discoveryProposals","outputs":[{"internalType":"uint256","name":"","type":"uint256"}],"stateMutability":"view","type":"function"},{"inputs":[],"name":"emergencyWithdraw","outputs":[],"stateMutability":"nonpayable","type":"function"},{"inputs":[{"internalType":"uint256","name":"_proposalId","type":"uint256"}],"name":"executeProposal","outputs":[],"stateMutability":"nonpayable","type":"function"},{"inputs":[],"name":"executionDelay","outputs":[{"internalType":"uint256","name":"","type":"uint256"}],"stateMutability":"view","type":"function"},{"inputs":[{"internalType":"uint256","name":"_proposalId","type":"uint256"}],"name":"finalizeProposal","outputs":[],"stateMutability":"nonpayable","type":"function"},{"inputs":[{"internalType":"uint256","name":"_proposalId","type":"uint256"}],"name":"getProposal","outputs":[{"internalType":"uint256","name":"id","type":"uint256"},{"internalType":"address","name":"proposer","type":"address"},{"internalType":"enum AstroDAO.ProposalType","name":"proposalType","type":"uint8"},{"internalType":"string","name":"title","type":"string"},{"internalType":"string","name":"description","type":"string"},{"internalType":"string","name":"ipfsHash","type":"string"},{"internalType":"uint256","name":"votesFor","type":"uint256"},{"internalType":"uint256","name":"votesAgainst","type":"uint256"},{"internalType":"uint256","name":"votesAbstain","type":"uint256"},{"internalType":"uint256","name":"endTime","type":"uint256"},{"internalType":"uint256","name":"executionTime","type":"uint256"},{"internalType":"enum AstroDAO.ProposalStatus","name":"status","type":"uint8"}],"stateMutability":"view","type":"function"},{"inputs":[],"name":"incrementWeek","outputs":[],"stateMutability":"nonpayable","type":"function"},{"inputs":[{"internalType":"uint256","name":"_proposalId","type":"uint256"}],"name":"isQuorumReached","outputs":[{"internalType":"bool","name":"","type":"bool"}],"stateMutability":"view","type":"function"},{"inputs":[{"internalType":"address","name":"","type":"address"}],"name":"isRegisteredVoter","outputs":[{"internalType":"bool","name":"","type":"bool"}],"stateMutability":"view","type":"function"},{"inputs":[{"internalType":"uint256","name":"","type":"uint256"}],"name":"knowledgeSharingProposals","outputs":[{"internalType":"uint256","name":"","type":"uint256"}],"stateMutability":"view","type":"function"},{"inputs":[{"internalType":"address","name":"","type":"address"}],"name":"lastVoteTime","outputs":[{"internalType":"uint256","name":"","type":"uint256"}],"stateMutability":"view","type":"function"},{"inputs":[],"name":"minVotesRequired","outputs":[{"internalType":"uint256","name":"","type":"uint256"}],"stateMutability":"view","type":"function"},{"inputs":[],"name":"owner","outputs":[{"internalType":"address","name":"","type":"address"}],"stateMutability":"view","type":"function"},{"inputs":[],"name":"pause","outputs":[],"stateMutability":"nonpayable","type":"function"},{"inputs":[],"name":"paused","outputs":[{"internalType":"bool","name":"","type":"bool"}],"stateMutability":"view","type":"function"},{"inputs":[],"name":"proposalCount","outputs":[{"internalType":"uint256","name":"","type":"uint256"}],"stateMutability":"view","type":"function"},{"inputs":[],"name":"proposalThreshold","outputs":[{"internalType":"uint256","name":"","type":"uint256"}],"stateMutability":"view","type":"function"},{"inputs":[{"internalType":"uint256","name":"","type":"uint256"},{"internalType":"uint256","name":"","type":"uint256"}],"name":"proposalVoters","outputs":[{"internalType":"address","name":"","type":"address"}],"stateMutability":"view","type":"function"},{"inputs":[{"internalType":"uint256","name":"","type":"uint256"}],"name":"proposals","outputs":[{"internalType":"uint256","name":"id","type":"uint256"},{"internalType":"address","name":"proposer","type":"address"},{"internalType":"enum AstroDAO.ProposalType","name":"proposalType","type":"uint8"},{"internalType":"string","name":"title","type":"string"},{"internalType":"string","name":"description","type":"string"},{"internalType":"string","name":"ipfsHash","type":"string"},{"internalType":"uint256","name":"votesFor","type":"uint256"},{"internalType":"uint256","name":"votesAgainst","type":"uint256"},{"internalType":"uint256","name":"votesAbstain","type":"uint256"},{"internalType":"uint256","name":"startTime","type":"uint256"},{"internalType":"uint256","name":"endTime","type":"uint256"},{"internalType":"uint256","name":"executionTime","type":"uint256"},{"internalType":"enum AstroDAO.ProposalStatus","name":"status","type":"uint8"},{"internalType":"bool","name":"executed","type":"bool"}],"stateMutability":"view","type":"function"},{"inputs":[],"name":"quickVotePeriod","outputs":[{"internalType":"uint256","name":"","type":"uint256"}],"stateMutability":"view","type":"function"},{"inputs":[],"name":"quorumPercentage","outputs":[{"internalType":"uint256","name":"","type":"uint256"}],"stateMutability":"view","type":"function"},{"inputs":[],"name":"renounceOwnership","outputs":[],"stateMutability":"nonpayable","type":"function"},{"inputs":[{"internalType":"address","name":"_researcher","type":"address"},{"internalType":"bool","name":"_verified","type":"bool"}],"name":"setVerifiedResearcher","outputs":[],"stateMutability":"nonpayable","type":"function"},{"inputs":[],"name":"totalVoterCount","outputs":[{"internalType":"uint256","name":"","type":"uint256"}],"stateMutability":"view","type":"function"},{"inputs":[{"internalType":"address","name":"newOwner","type":"address"}],"name":"transferOwnership","outputs":[],"stateMutability":"nonpayable","type":"function"},{"inputs":[],"name":"undelegate","outputs":[],"stateMutability":"nonpayable","type":"function"},{"inputs":[],"name":"unpause","outputs":[],"stateMutability":"nonpayable","type":"function"},{"inputs":[{"internalType":"uint256","name":"_votingPeriod","type":"uint256"},{"internalType":"uint256","name":"_quickVotePeriod","type":"uint256"},{"internalType":"uint256","name":"_minVotesRequired","type":"uint256"},{"internalType":"uint256","name":"_quorumPercentage","type":"uint256"},{"internalType":"uint256","name":"_executionDelay","type":"uint256"},{"internalType":"uint256","name":"_proposalThreshold","type":"uint256"}],"name":"updateGovernanceParams","outputs":[],"stateMutability":"nonpayable","type":"function"},{"inputs":[{"internalType":"address","name":"","type":"address"},{"internalType":"uint256","name":"","type":"uint256"}],"name":"userProposals","outputs":[{"internalType":"uint256","name":"","type":"uint256"}],"stateMutability":"view","type":"function"},{"inputs":[{"internalType":"address","name":"","type":"address"}],"name":"userReputation","outputs":[{"internalType":"uint256","name":"","type":"uint256"}],"stateMutability":"view","type":"function"},{"inputs":[{"internalType":"address","name":"","type":"address"}],"name":"userVoteCount","outputs":[{"internalType":"uint256","name":"","type":"uint256"}],"stateMutability":"view","type":"function"},{"inputs":[{"internalType":"address","name":"","type":"address"}],"name":"verifiedResearchers","outputs":[{"internalType":"bool","name":"","type":"bool"}],"stateMutability":"view","type":"function"},{"inputs":[{"internalType":"uint256","name":"_proposalId","type":"uint256"},{"internalType":"enum AstroDAO.VoteChoice","name":"_choice","type":"uint8"}],"name":"vote","outputs":[],"stateMutability":"nonpayable","type":"function"},{"inputs":[],"name":"votingPeriod","outputs":[{"internalType":"uint256","name":"","type":"uint256"}],"stateMutability":"view","type":"function"},{"inputs":[{"internalType":"uint256","name":"","type":"uint256"}],"name":"weeklyThemeProposals","outputs":[{"internalType":"uint256","name":"","type":"uint256"}],"stateMutability":"view","type":"function"},{"inputs":[{"internalType":"uint256","name":"","type":"uint256"}],"name":"weeklyThemes","outputs":[{"internalType":"uint256","name":"proposalId","type":"uint256"},{"internalType":"string","name":"themeName","type":"string"},{"internalType":"string","name":"description","type":"string"},{"internalType":"uint256","name":"weekNumber","type":"uint256"},{"internalType":"uint256","name":"votingScore","type":"uint256"},{"internalType":"bool","name":"isActive","type":"bool"}],"stateMutability":"view","type":"function"}],"evm":{"bytecode":{"linkReferences":{},"object":"608060405262093a806006556203f4806007556005600855600a6009556202a300600a556003600b5562278d00600e5534801561003b57600080fd5b50338061006257604051631e4fbdf760e01b81526000600482015260240160405180910390fd5b61006b81610079565b5060018080556005556100c9565b600080546001600160a01b038381166001600160a01b0319831681178455604051919092169283917f8be0079c531659141344cd1fd0a4f28419497f9722a3daafe3b4186f6b6457e09190a35050565b612a4980620000d96000396000f3fe608060405234801561001057600080fd5b506004361061029f5760003560e01c8063713cdaa811610167578063c7f758a8116100ce578063da36cffe11610087578063da36cffe146105df578063db2e21bc14610602578063e0a8f6f51461060a578063e503bb051461061d578063e50be9e01461063d578063f2fde38b1461064657600080fd5b8063c7f758a81461057d578063cfffa620146105a8578063d213c0f2146105b1578063d364fbb7146105ba578063d7c05ed6146105cd578063da35c664146105d657600080fd5b8063922b832711610120578063922b83271461050e57806392ab89bb14610533578063943e82161461053b578063965494361461054e578063ab89437c14610561578063b58131b01461057457600080fd5b8063713cdaa8146104b1578063715018a6146104d15780638456cb59146104d95780638b257989146104e15780638da5cb5b146104ea5780639079991f146104fb57600080fd5b80634d61ac311161020b5780635c975abb116101c45780635c975abb14610451578063623bd3c41461045c5780636494fad91461046f578063696a21d2146104825780636f71e0651461049557806370e2ee1c1461049e57600080fd5b80634d61ac31146103a65780634fa76ec9146103ce57806354cd9e8c146103d75780635652077c146103ea578063587cde1e146103fd5780635c19a95c1461043e57600080fd5b80632813fe391161025d5780632813fe391461033e57806336f58e5f146103465780633f4ba83a146103795780634019bb5114610381578063403fb4a81461039457806341dfd4981461039d57600080fd5b8062ae2524146102a4578063013cf08b146102d757806302a251a31461030457806306575c891461030d5780630d61b519146103165780631b31527f1461032b575b600080fd5b6102c46102b23660046122a7565b600d6020526000908152604090205481565b6040519081526020015b60405180910390f35b6102ea6102e53660046122c9565b610659565b6040516102ce9e9d9c9b9a99989796959493929190612362565b6102c460065481565b6102c460055481565b6103296103243660046122c9565b610870565b005b6102c4610339366004612414565b610aa1565b610329610ad2565b6103696103543660046122a7565b60106020526000908152604090205460ff1681565b60405190151581526020016102ce565b610329610b39565b61032961038f36600461243e565b610b4b565b6102c460085481565b6102c460045481565b6103b96103b43660046122c9565b610d40565b6040516102ce99989796959493929190612481565b6102c460095481565b6102c46103e53660046122c9565b610fae565b6103296103f83660046122c9565b610fcf565b61042661040b3660046122a7565b6011602052600090815260409020546001600160a01b031681565b6040516001600160a01b0390911681526020016102ce565b61032961044c3660046122a7565b6111ca565b60025460ff16610369565b6102c461046a36600461255a565b6112d6565b6102c461047d3660046122c9565b61163f565b6102c46104903660046122c9565b61164f565b6102c4600c5481565b6103296104ac36600461261b565b61165f565b6102c46104bf3660046122a7565b601b6020526000908152604090205481565b610329611692565b6103296116a4565b6102c4600a5481565b6000546001600160a01b0316610426565b6103696105093660046122c9565b6116b4565b61052161051c3660046122c9565b611727565b6040516102ce9695949392919061264e565b610329611871565b61032961054936600461269a565b61191c565b61032961055c366004612414565b611c00565b61042661056f3660046126ce565b611c3f565b6102c4600b5481565b61059061058b3660046122c9565b611c77565b6040516102ce9c9b9a999897969594939291906126f0565b6102c460075481565b6102c461271081565b6102c46105c83660046122c9565b611ec1565b6102c4601d5481565b6102c460035481565b6103696105ed3660046122a7565b601a6020526000908152604090205460ff1681565b610329611ed1565b6103296106183660046122c9565b611fa9565b6102c461062b3660046122a7565b600f6020526000908152604090205481565b6102c4600e5481565b6103296106543660046122a7565b61206d565b60126020526000908152604090208054600182015460028301805492936001600160a01b03831693600160a01b90930460ff169290919061069990612791565b80601f01602080910402602001604051908101604052809291908181526020018280546106c590612791565b80156107125780601f106106e757610100808354040283529160200191610712565b820191906000526020600020905b8154815290600101906020018083116106f557829003601f168201915b50505050509080600301805461072790612791565b80601f016020809104026020016040519081016040528092919081815260200182805461075390612791565b80156107a05780601f10610775576101008083540402835291602001916107a0565b820191906000526020600020905b81548152906001019060200180831161078357829003601f168201915b5050505050908060040180546107b590612791565b80601f01602080910402602001604051908101604052809291908181526020018280546107e190612791565b801561082e5780601f106108035761010080835404028352916020019161082e565b820191906000526020600020905b81548152906001019060200180831161081157829003601f168201915b5050505060058301546006840154600785015460088601546009870154600a880154600b90980154969794969395509193909260ff808216916101009004168e565b6108786120a8565b60008181526012602052604090206004600b82015460ff1660068111156108a1576108a16122e2565b146108bf57604051630992f7ad60e01b815260040160405180910390fd5b600b810154610100900460ff16156108ea57604051630992f7ad60e01b815260040160405180910390fd5b60018101546001600160a01b0316331480159061091257506000546001600160a01b03163314155b1561098d57600a81015461092990620151806127e1565b4210156109885760405162461bcd60e51b815260206004820152602260248201527f5075626c696320657865637574696f6e206e6f742079657420617661696c61626044820152616c6560f01b60648201526084015b60405180910390fd5b6109d4565b80600a01544210156109d45760405162461bcd60e51b815260206004820152601060248201526f54696d65206c6f636b2061637469766560801b604482015260640161097f565b600b8101805461ffff19166101051790556001810154600090600160a01b900460ff166004811115610a0857610a086122e2565b03610a2f57601d8290556000828152601460205260409020600501805460ff191660011790555b6001810154604080518082019091526011815270141c9bdc1bdcd85b08195e1958dd5d1959607a1b6020820152610a72916001600160a01b0316906005906120cc565b60405182907f712ae1383f79ac853f8d882153778e0260ef8f03b504e2866e0593e04d2b291f90600090a25050565b601c6020528160005260406000208181548110610abd57600080fd5b90600052602060002001600091509150505481565b610ada61215c565b60001960055410610b1d5760405162461bcd60e51b815260206004820152600d60248201526c5765656b206f766572666c6f7760981b604482015260640161097f565b60058054906000610b2d836127fa565b90915550506000601d55565b610b4161215c565b610b49612189565b565b610b5361215c565b6203f480861015610ba65760405162461bcd60e51b815260206004820152601760248201527f566f74696e6720706572696f6420746f6f2073686f7274000000000000000000604482015260640161097f565b62015180851015610bf05760405162461bcd60e51b8152602060048201526014602482015273145d5a58dac81d9bdd19481d1bdbc81cda1bdc9d60621b604482015260640161097f565b60008411610c405760405162461bcd60e51b815260206004820152601a60248201527f4d696e20766f746573206d75737420626520706f736974697665000000000000604482015260640161097f565b600083118015610c51575060648311155b610c8e5760405162461bcd60e51b815260206004820152600e60248201526d496e76616c69642071756f72756d60901b604482015260640161097f565b62015180821015610cd35760405162461bcd60e51b815260206004820152600f60248201526e11195b185e481d1bdbc81cda1bdc9d608a1b604482015260640161097f565b60008111610d235760405162461bcd60e51b815260206004820152601a60248201527f5468726573686f6c64206d75737420626520706f736974697665000000000000604482015260640161097f565b600695909555600793909355600891909155600955600a55600b55565b60136020526000908152604090208054600182018054919291610d6290612791565b80601f0160208091040260200160405190810160405280929190818152602001828054610d8e90612791565b8015610ddb5780601f10610db057610100808354040283529160200191610ddb565b820191906000526020600020905b815481529060010190602001808311610dbe57829003601f168201915b505050505090806002018054610df090612791565b80601f0160208091040260200160405190810160405280929190818152602001828054610e1c90612791565b8015610e695780601f10610e3e57610100808354040283529160200191610e69565b820191906000526020600020905b815481529060010190602001808311610e4c57829003601f168201915b505050505090806003018054610e7e90612791565b80601f0160208091040260200160405190810160405280929190818152602001828054610eaa90612791565b8015610ef75780601f10610ecc57610100808354040283529160200191610ef7565b820191906000526020600020905b815481529060010190602001808311610eda57829003601f168201915b505050505090806004018054610f0c90612791565b80601f0160208091040260200160405190810160405280929190818152602001828054610f3890612791565b8015610f855780601f10610f5a57610100808354040283529160200191610f85565b820191906000526020600020905b815481529060010190602001808311610f6857829003601f168201915b505050600684015460078501546008860154600a909601549495919490935060ff909116915089565b60178181548110610fbe57600080fd5b600091825260209091200154905081565b610fd76120a8565b60008181526012602052604090206001600b82015460ff166006811115611000576110006122e2565b1461101e57604051637becc13f60e01b815260040160405180910390fd5b80600901544210156110685760405162461bcd60e51b8152602060048201526013602482015272566f74696e67207374696c6c2061637469766560681b604482015260640161097f565b600081600701548260060154836005015461108391906127e1565b61108d91906127e1565b9050611098836116b4565b6110fe57600b8201805460ff1916600390811790915560058301546006840154600785015460405187947fbea26fb7b1bee880c70cf1614c512461ecf3f0039de69cff7141c9f88d5c73d7946110f19491939092612813565b60405180910390a2505050565b81600601548260050154111561116b57600b8201805460ff19166004179055600a5461112a90426127e1565b600a830181905560405190815283907f9a2e42fd6722813d69113e7d0079d3d940171428df7373df9c7f7617cfda28929060200160405180910390a261117b565b600b8201805460ff191660031790555b600b82015460058301546006840154600785015460405187947fbea26fb7b1bee880c70cf1614c512461ecf3f0039de69cff7141c9f88d5c73d7946110f19460ff909216939092612813565b50565b336001600160a01b038216036112225760405162461bcd60e51b815260206004820152601760248201527f43616e6e6f742064656c656761746520746f2073656c66000000000000000000604482015260640161097f565b6001600160a01b0381166112785760405162461bcd60e51b815260206004820152601760248201527f43616e6e6f742064656c656761746520746f207a65726f000000000000000000604482015260640161097f565b3360008181526011602052604080822080546001600160a01b038681166001600160a01b0319831681179093559251921693909284927f3134e8a2e6d97e929a7e54011ea5485d7d196dd5f0ba4d4ef95803e8e3fc257f9190a45050565b60006112e06120a8565b8661131e5760405162461bcd60e51b815260206004820152600e60248201526d151a5d1b19481c995c5d5a5c995960921b604482015260640161097f565b846113625760405162461bcd60e51b815260206004820152601460248201527311195cd8dc9a5c1d1a5bdb881c995c5d5a5c995960621b604482015260640161097f565b600b54336000908152600f6020526040902054101561139457604051631899c49760e31b815260040160405180910390fd5b600380549060006113a4836127fa565b90915550506003546000818152601260205260409020818155600181018054336001600160a01b03198216811783558d92916001600160a81b03191660ff60a01b1990911617600160a01b836004811115611401576114016122e2565b0217905550600281016114158a8c836128a1565b5060038101611425888a836128a1565b50600481016114358688836128a1565b50426008820155836114495760065461144d565b6007545b61145790426127e1565b6009820155600b8101805460ff1916600117905560008b600481111561147f5761147f6122e2565b036114be57601680546001810182556000919091527fd833147d7dc355ba459fc788f669e58cfaf9dc25ddcd0702e87d69c7b5124289018290556115b3565b60018b60048111156114d2576114d26122e2565b0361151157601780546001810182556000919091527fc624b66cc0138b8fabc209247f72d758e1cf3343756d543badbf24212bed8c15018290556115b3565b60028b6004811115611525576115256122e2565b0361156457601880546001810182556000919091527fb13d2d76d1f4b7be834882e410b3e3a8afaf69f83600ae24db354391d2378d2e018290556115b3565b60038b6004811115611578576115786122e2565b036115b357601980546001810182556000919091527f944998273e477b495144fb8794c914197f3ccb46be2900f4698fd0ef743c9695018290555b336000908152601c60209081526040822080546001810182559083529120018290558a60048111156115e7576115e76122e2565b336001600160a01b0316837f2160cbf9d326719dd2cc1be7c9b9c511051b9228f9b3edc8fe58aed7d44fdac38d8d866009015460405161162993929190612962565b60405180910390a4509998505050505050505050565b60168181548110610fbe57600080fd5b60198181548110610fbe57600080fd5b61166761215c565b6001600160a01b03919091166000908152601060205260409020805460ff1916911515919091179055565b61169a61215c565b610b4960006121db565b6116ac61215c565b610b4961222b565b60008181526012602052604081206007810154600682015460058301548492916116dd916127e1565b6116e791906127e1565b90506008548110156116fd575060009392505050565b60006064600954600c54611711919061299b565b61171b91906129b2565b90911015949350505050565b6014602052600090815260409020805460018201805491929161174990612791565b80601f016020809104026020016040519081016040528092919081815260200182805461177590612791565b80156117c25780601f10611797576101008083540402835291602001916117c2565b820191906000526020600020905b8154815290600101906020018083116117a557829003601f168201915b5050505050908060020180546117d790612791565b80601f016020809104026020016040519081016040528092919081815260200182805461180390612791565b80156118505780601f1061182557610100808354040283529160200191611850565b820191906000526020600020905b81548152906001019060200180831161183357829003601f168201915b50505050600383015460048401546005909401549293909290915060ff1686565b336000908152601160205260409020546001600160a01b0316806118c85760405162461bcd60e51b815260206004820152600e60248201526d4e6f742064656c65676174696e6760901b604482015260640161097f565b3360008181526011602052604080822080546001600160a01b03191690555190916001600160a01b038416917f3134e8a2e6d97e929a7e54011ea5485d7d196dd5f0ba4d4ef95803e8e3fc257f908490a450565b6119246120a8565b6000828152601260205260408120805490910361195457604051630992f7ad60e01b815260040160405180910390fd5b6001600b82015460ff16600681111561196f5761196f6122e2565b1461198d57604051637becc13f60e01b815260040160405180910390fd5b80600901544211156119b257604051637becc13f60e01b815260040160405180910390fd5b336000908152600c8201602052604090205460ff16156119e557604051637c9a1cf960e01b815260040160405180910390fd5b336000908152601160205260409020546001600160a01b031615611a1c57604051631a30c08d60e31b815260040160405180910390fd5b336000908152601a602052604090205460ff16611a6157336000908152601a60205260408120805460ff19166001179055600c805491611a5b836127fa565b91905055505b336000908152600d60208181526040808420429055600c850182528084208054600160ff1991821681179092559386019092529092208054859391921690836002811115611ab157611ab16122e2565b02179055506001826002811115611aca57611aca6122e2565b03611aeb57600581018054906000611ae1836127fa565b9190505550611b2e565b6000826002811115611aff57611aff6122e2565b03611b1657600681018054906000611ae1836127fa565b600781018054906000611b28836127fa565b91905055505b600083815260156020908152604080832080546001810182559084528284200180546001600160a01b031916339081179091558352601b9091528120805491611b76836127fa565b9190505550611bb033600160405180604001604052806011815260200170159bdd1959081bdb881c1c9bdc1bdcd85b607a1b8152506120cc565b336000818152601b60205260409081902054905185917fb83d25c6a5d258561330739951487acb4bd09ba5190b5d32c4f261817d90679291611bf39187916129d4565b60405180910390a3505050565b611c0861215c565b611c3b82826040518060400160405280601081526020016f20bbb0b93232b210313c9030b236b4b760811b8152506120cc565b5050565b60156020528160005260406000208181548110611c5b57600080fd5b6000918252602090912001546001600160a01b03169150829050565b6000818152601260205260408120805460018201546005830154600684015460078501546009860154600a870154600b8801546002890180548b9a8b9a60609a8b9a8b9a8e9a8b9a8b9a8b9a8b9a8b9a6001600160a01b0389169860ff600160a01b909104811698929760038d019760048e019794969195909493919216908990611d0190612791565b80601f0160208091040260200160405190810160405280929190818152602001828054611d2d90612791565b8015611d7a5780601f10611d4f57610100808354040283529160200191611d7a565b820191906000526020600020905b815481529060010190602001808311611d5d57829003601f168201915b50505050509850878054611d8d90612791565b80601f0160208091040260200160405190810160405280929190818152602001828054611db990612791565b8015611e065780601f10611ddb57610100808354040283529160200191611e06565b820191906000526020600020905b815481529060010190602001808311611de957829003601f168201915b50505050509750868054611e1990612791565b80601f0160208091040260200160405190810160405280929190818152602001828054611e4590612791565b8015611e925780601f10611e6757610100808354040283529160200191611e92565b820191906000526020600020905b815481529060010190602001808311611e7557829003601f168201915b505050505096509c509c509c509c509c509c509c509c509c509c509c509c505091939597999b5091939597999b565b60188181548110610fbe57600080fd5b611ed961215c565b4780611f125760405162461bcd60e51b81526020600482015260086024820152674e6f2066756e647360c01b604482015260640161097f565b600080546040516001600160a01b039091169083908381818185875af1925050503d8060008114611f5f576040519150601f19603f3d011682016040523d82523d6000602084013e611f64565b606091505b5050905080611c3b5760405162461bcd60e51b815260206004820152601160248201527015da5d1a191c985dd85b0819985a5b1959607a1b604482015260640161097f565b600081815260126020526040902060018101546001600160a01b03163314801590611fdf57506000546001600160a01b03163314155b15611ffc576040516282b42960e81b815260040160405180910390fd5b6001600b82015460ff166006811115612017576120176122e2565b1415801561203e57506000600b82015460ff16600681111561203b5761203b6122e2565b14155b1561205c57604051630992f7ad60e01b815260040160405180910390fd5b600b01805460ff1916600617905550565b61207561215c565b6001600160a01b03811661209f57604051631e4fbdf760e01b81526000600482015260240161097f565b6111c7816121db565b60025460ff1615610b495760405163d93c066560e01b815260040160405180910390fd5b6001600160a01b0383166000908152600f60205260408120546120f09084906127e1565b905061271081111561210157506127105b6001600160a01b0384166000818152600f602052604090819020839055517f20d1203ad04af96695a6de2e92289c50b68bd139de21fe5249b4ba5837fe297a9061214e90869086906129f2565b60405180910390a250505050565b6000546001600160a01b03163314610b495760405163118cdaa760e01b815233600482015260240161097f565b612191612268565b6002805460ff191690557f5db9ee0a495bf2e6ff9c91a7834c1ba4fdd244a5e8aa4e537bd38aeae4b073aa335b6040516001600160a01b03909116815260200160405180910390a1565b600080546001600160a01b038381166001600160a01b0319831681178455604051919092169283917f8be0079c531659141344cd1fd0a4f28419497f9722a3daafe3b4186f6b6457e09190a35050565b6122336120a8565b6002805460ff191660011790557f62e78cea01bee320cd4e420270b5ea74000d11b0c9f74754ebdbfc544b05a2586121be3390565b60025460ff16610b4957604051638dfc202b60e01b815260040160405180910390fd5b80356001600160a01b03811681146122a257600080fd5b919050565b6000602082840312156122b957600080fd5b6122c28261228b565b9392505050565b6000602082840312156122db57600080fd5b5035919050565b634e487b7160e01b600052602160045260246000fd5b60058110612308576123086122e2565b9052565b6000815180845260005b8181101561233257602081850181015186830182015201612316565b506000602082860101526020601f19601f83011685010191505092915050565b60078110612308576123086122e2565b8e81526001600160a01b038e166020820152612381604082018e6122f8565b6101c0606082015260006123996101c083018e61230c565b82810360808401526123ab818e61230c565b905082810360a08401526123bf818d61230c565b9150508960c08301528860e0830152876101008301528661012083015285610140830152846101608301526123f8610180830185612352565b8215156101a08301529f9e505050505050505050505050505050565b6000806040838503121561242757600080fd5b6124308361228b565b946020939093013593505050565b60008060008060008060c0878903121561245757600080fd5b505084359660208601359650604086013595606081013595506080810135945060a0013592509050565b60006101208b835280602084015261249b8184018c61230c565b905082810360408401526124af818b61230c565b905082810360608401526124c3818a61230c565b905082810360808401526124d7818961230c565b60a0840197909752505060c081019390935290151560e08301526101009091015295945050505050565b60008083601f84011261251357600080fd5b50813567ffffffffffffffff81111561252b57600080fd5b60208301915083602082850101111561254357600080fd5b9250929050565b803580151581146122a257600080fd5b60008060008060008060008060a0898b03121561257657600080fd5b88356005811061258557600080fd5b9750602089013567ffffffffffffffff808211156125a257600080fd5b6125ae8c838d01612501565b909950975060408b01359150808211156125c757600080fd5b6125d38c838d01612501565b909750955060608b01359150808211156125ec57600080fd5b506125f98b828c01612501565b909450925061260c905060808a0161254a565b90509295985092959890939650565b6000806040838503121561262e57600080fd5b6126378361228b565b91506126456020840161254a565b90509250929050565b86815260c06020820152600061266760c083018861230c565b8281036040840152612679818861230c565b606084019690965250506080810192909252151560a0909101529392505050565b600080604083850312156126ad57600080fd5b823591506020830135600381106126c357600080fd5b809150509250929050565b600080604083850312156126e157600080fd5b50508035926020909101359150565b8c81526001600160a01b038c1660208201526000610180612714604084018e6122f8565b8060608401526127268184018d61230c565b9050828103608084015261273a818c61230c565b905082810360a084015261274e818b61230c565b9150508760c08301528660e0830152856101008301528461012083015283610140830152612780610160830184612352565b9d9c50505050505050505050505050565b600181811c908216806127a557607f821691505b6020821081036127c557634e487b7160e01b600052602260045260246000fd5b50919050565b634e487b7160e01b600052601160045260246000fd5b808201808211156127f4576127f46127cb565b92915050565b60006001820161280c5761280c6127cb565b5060010190565b608081016128218287612352565b84602083015283604083015282606083015295945050505050565b634e487b7160e01b600052604160045260246000fd5b601f82111561289c57600081815260208120601f850160051c810160208610156128795750805b601f850160051c820191505b8181101561289857828155600101612885565b5050505b505050565b67ffffffffffffffff8311156128b9576128b961283c565b6128cd836128c78354612791565b83612852565b6000601f84116001811461290157600085156128e95750838201355b600019600387901b1c1916600186901b17835561295b565b600083815260209020601f19861690835b828110156129325786850135825560209485019460019092019101612912565b508682101561294f5760001960f88860031b161c19848701351681555b505060018560011b0183555b5050505050565b604081528260408201528284606083013760006060848301015260006060601f19601f8601168301019050826020830152949350505050565b80820281158282048414176127f4576127f46127cb565b6000826129cf57634e487b7160e01b600052601260045260246000fd5b500490565b60408101600384106129e8576129e86122e2565b9281526020015290565b828152604060208201526000612a0b604083018461230c565b94935050505056fea264697066735822122035debac699989e10841e888e0e6478e7c6d99b5355975430977f86bc87fad62164736f6c63430008140033","opcodes":"PUSH1 0x80 PUSH1 0x40 MSTORE PUSH3 0x93A80 PUSH1 0x6 SSTORE PUSH3 0x3F480 PUSH1 0x7 SSTORE PUSH1 0x5 PUSH1 0x8 SSTORE PUSH1 0xA PUSH1 0x9 SSTORE PUSH3 0x2A300 PUSH1 0xA SSTORE PUSH1 0x3 PUSH1 0xB SSTORE PUSH3 0x278D00 PUSH1 0xE SSTORE CALLVALUE DUP1 ISZERO PUSH2 0x3B JUMPI PUSH1 0x0 DUP1 REVERT JUMPDEST POP CALLER DUP1 PUSH2 0x62 JUMPI PUSH1 0x40 MLOAD PUSH4 0x1E4FBDF7 PUSH1 0xE0 SHL DUP2 MSTORE PUSH1 0x0 PUSH1 0x4 DUP3 ADD MSTORE PUSH1 0x24 ADD PUSH1 0x40 MLOAD DUP1 SWAP2 SUB SWAP1 REVERT JUMPDEST PUSH2 0x6B DUP2 PUSH2 0x79 JUMP JUMPDEST POP PUSH1 0x1 DUP1 DUP1 SSTORE PUSH1 0x5 SSTORE PUSH2 0xC9 JUMP JUMPDEST PUSH1 0x0 DUP1 SLOAD PUSH1 0x1 PUSH1 0x1 PUSH1 0xA0 SHL SUB DUP4 DUP2 AND PUSH1 0x1 PUSH1 0x1 PUSH1 0xA0 SHL SUB NOT DUP4 AND DUP2 OR DUP5 SSTORE PUSH1 0x40 MLOAD SWAP2 SWAP1 SWAP3 AND SWAP3 DUP4 SWAP2 PUSH32 0x8BE0079C531659141344CD1FD0A4F28419497F9722A3DAAFE3B4186F6B6457E0 SWAP2 SWAP1 LOG3 POP POP JUMP JUMPDEST PUSH2 0x2A49 DUP1 PUSH3 0xD9 PUSH1 0x0 CODECOPY PUSH1 0x0 RETURN INVALID PUSH1 0x80 PUSH1 0x40 MSTORE CALLVALUE DUP1 ISZERO PUSH2 0x10 JUMPI PUSH1 0x0 DUP1 REVERT JUMPDEST POP PUSH1 0x4 CALLDATASIZE LT PUSH2 0x29F JUMPI PUSH1 0x0 CALLDATALOAD PUSH1 0xE0 SHR DUP1 PUSH4 0x713CDAA8 GT PUSH2 0x167 JUMPI DUP1 PUSH4 0xC7F758A8 GT PUSH2 0xCE JUMPI DUP1 PUSH4 0xDA36CFFE GT PUSH2 0x87 JUMPI DUP1 PUSH4 0xDA36CFFE EQ PUSH2 0x5DF JUMPI DUP1 PUSH4 0xDB2E21BC EQ PUSH2 0x602 JUMPI DUP1 PUSH4 0xE0A8F6F5 EQ PUSH2 0x60A JUMPI DUP1 PUSH4 0xE503BB05 EQ PUSH2 0x61D JUMPI DUP1 PUSH4 0xE50BE9E0 EQ PUSH2 0x63D JUMPI DUP1 PUSH4 0xF2FDE38B EQ PUSH2 0x646 JUMPI PUSH1 0x0 DUP1 REVERT JUMPDEST DUP1 PUSH4 0xC7F758A8 EQ PUSH2 0x57D JUMPI DUP1 PUSH4 0xCFFFA620 EQ PUSH2 0x5A8 JUMPI DUP1 PUSH4 0xD213C0F2 EQ PUSH2 0x5B1 JUMPI DUP1 PUSH4 0xD364FBB7 EQ PUSH2 0x5BA JUMPI DUP1 PUSH4 0xD7C05ED6 EQ PUSH2 0x5CD JUMPI DUP1 PUSH4 0xDA35C664 EQ PUSH2 0x5D6 JUMPI PUSH1 0x0 DUP1 REVERT JUMPDEST DUP1 PUSH4 0x922B8327 GT PUSH2 0x120 JUMPI DUP1 PUSH4 0x922B8327 EQ PUSH2 0x50E JUMPI DUP1 PUSH4 0x92AB89BB EQ PUSH2 0x533 JUMPI DUP1 PUSH4 0x943E8216 EQ PUSH2 0x53B JUMPI DUP1 PUSH4 0x96549436 EQ PUSH2 0x54E JUMPI DUP1 PUSH4 0xAB89437C EQ PUSH2 0x561 JUMPI DUP1 PUSH4 0xB58131B0 EQ PUSH2 0x574 JUMPI PUSH1 0x0 DUP1 REVERT JUMPDEST DUP1 PUSH4 0x713CDAA8 EQ PUSH2 0x4B1 JUMPI DUP1 PUSH4 0x715018A6 EQ PUSH2 0x4D1 JUMPI DUP1 PUSH4 0x8456CB59 EQ PUSH2 0x4D9 JUMPI DUP1 PUSH4 0x8B257989 EQ PUSH2 0x4E1 JUMPI DUP1 PUSH4 0x8DA5CB5B EQ PUSH2 0x4EA JUMPI DUP1 PUSH4 0x9079991F EQ PUSH2 0x4FB JUMPI PUSH1 0x0 DUP1 REVERT JUMPDEST DUP1 PUSH4 0x4D61AC31 GT PUSH2 0x20B JUMPI DUP1 PUSH4 0x5C975ABB GT PUSH2 0x1C4 JUMPI DUP1 PUSH4 0x5C975ABB EQ PUSH2 0x451 JUMPI DUP1 PUSH4 0x623BD3C4 EQ PUSH2 0x45C JUMPI DUP1 PUSH4 0x6494FAD9 EQ PUSH2 0x46F JUMPI DUP1 PUSH4 0x696A21D2 EQ PUSH2 0x482 JUMPI DUP1 PUSH4 0x6F71E065 EQ PUSH2 0x495 JUMPI DUP1 PUSH4 0x70E2EE1C EQ PUSH2 0x49E JUMPI PUSH1 0x0 DUP1 REVERT JUMPDEST DUP1 PUSH4 0x4D61AC31 EQ PUSH2 0x3A6 JUMPI DUP1 PUSH4 0x4FA76EC9 EQ PUSH2 0x3CE JUMPI DUP1 PUSH4 0x54CD9E8C EQ PUSH2 0x3D7 JUMPI DUP1 PUSH4 0x5652077C EQ PUSH2 0x3EA JUMPI DUP1 PUSH4 0x587CDE1E EQ PUSH2 0x3FD JUMPI DUP1 PUSH4 0x5C19A95C EQ PUSH2 0x43E JUMPI PUSH1 0x0 DUP1 REVERT JUMPDEST DUP1 PUSH4 0x2813FE39 GT PUSH2 0x25D JUMPI DUP1 PUSH4 0x2813FE39 EQ PUSH2 0x33E JUMPI DUP1 PUSH4 0x36F58E5F EQ PUSH2 0x346 JUMPI DUP1 PUSH4 0x3F4BA83A EQ PUSH2 0x379 JUMPI DUP1 PUSH4 0x4019BB51 EQ PUSH2 0x381 JUMPI DUP1 PUSH4 0x403FB4A8 EQ PUSH2 0x394 JUMPI DUP1 PUSH4 0x41DFD498 EQ PUSH2 0x39D JUMPI PUSH1 0x0 DUP1 REVERT JUMPDEST DUP1 PUSH3 0xAE2524 EQ PUSH2 0x2A4 JUMPI DUP1 PUSH4 0x13CF08B EQ PUSH2 0x2D7 JUMPI DUP1 PUSH4 0x2A251A3 EQ PUSH2 0x304 JUMPI DUP1 PUSH4 0x6575C89 EQ PUSH2 0x30D JUMPI DUP1 PUSH4 0xD61B519 EQ PUSH2 0x316 JUMPI DUP1 PUSH4 0x1B31527F EQ PUSH2 0x32B JUMPI JUMPDEST PUSH1 0x0 DUP1 REVERT JUMPDEST PUSH2 0x2C4 PUSH2 0x2B2 CALLDATASIZE PUSH1 0x4 PUSH2 0x22A7 JUMP JUMPDEST PUSH1 0xD PUSH1 0x20 MSTORE PUSH1 0x0 SWAP1 DUP2 MSTORE PUSH1 0x40 SWAP1 KECCAK256 SLOAD DUP2 JUMP JUMPDEST PUSH1 0x40 MLOAD SWAP1 DUP2 MSTORE PUSH1 0x20 ADD JUMPDEST PUSH1 0x40 MLOAD DUP1 SWAP2 SUB SWAP1 RETURN JUMPDEST PUSH2 0x2EA PUSH2 0x2E5 CALLDATASIZE PUSH1 0x4 PUSH2 0x22C9 JUMP JUMPDEST PUSH2 0x659 JUMP JUMPDEST PUSH1 0x40 MLOAD PUSH2 0x2CE SWAP15 SWAP14 SWAP13 SWAP12 SWAP11 SWAP10 SWAP9 SWAP8 SWAP7 SWAP6 SWAP5 SWAP4 SWAP3 SWAP2 SWAP1 PUSH2 0x2362 JUMP JUMPDEST PUSH2 0x2C4 PUSH1 0x6 SLOAD DUP2 JUMP JUMPDEST PUSH2 0x2C4 PUSH1 0x5 SLOAD DUP2 JUMP JUMPDEST PUSH2 0x329 PUSH2 0x324 CALLDATASIZE PUSH1 0x4 PUSH2 0x22C9 JUMP JUMPDEST PUSH2 0x870 JUMP JUMPDEST STOP JUMPDEST PUSH2 0x2C4 PUSH2 0x339 CALLDATASIZE PUSH1 0x4 PUSH2 0x2414 JUMP JUMPDEST PUSH2 0xAA1 JUMP JUMPDEST PUSH2 0x329 PUSH2 0xAD2 JUMP JUMPDEST PUSH2 0x369 PUSH2 0x354 CALLDATASIZE PUSH1 0x4 PUSH2 0x22A7 JUMP JUMPDEST PUSH1 0x10 PUSH1 0x20 MSTORE PUSH1 0x0 SWAP1 DUP2 MSTORE PUSH1 0x40 SWAP1 KECCAK256 SLOAD PUSH1 0xFF AND DUP2 JUMP JUMPDEST PUSH1 0x40 MLOAD SWAP1 ISZERO ISZERO DUP2 MSTORE PUSH1 0x20 ADD PUSH2 0x2CE JUMP JUMPDEST PUSH2 0x329 PUSH2 0xB39 JUMP JUMPDEST PUSH2 0x329 PUSH2 0x38F CALLDATASIZE PUSH1 0x4 PUSH2 0x243E JUMP JUMPDEST PUSH2 0xB4B JUMP JUMPDEST PUSH2 0x2C4 PUSH1 0x8 SLOAD DUP2 JUMP JUMPDEST PUSH2 0x2C4 PUSH1 0x4 SLOAD DUP2 JUMP JUMPDEST PUSH2 0x3B9 PUSH2 0x3B4 CALLDATASIZE PUSH1 0x4 PUSH2 0x22C9 JUMP JUMPDEST PUSH2 0xD40 JUMP JUMPDEST PUSH1 0x40 MLOAD PUSH2 0x2CE SWAP10 SWAP9 SWAP8 SWAP7 SWAP6 SWAP5 SWAP4 SWAP3 SWAP2 SWAP1 PUSH2 0x2481 JUMP JUMPDEST PUSH2 0x2C4 PUSH1 0x9 SLOAD DUP2 JUMP JUMPDEST PUSH2 0x2C4 PUSH2 0x3E5 CALLDATASIZE PUSH1 0x4 PUSH2 0x22C9 JUMP JUMPDEST PUSH2 0xFAE JUMP JUMPDEST PUSH2 0x329 PUSH2 0x3F8 CALLDATASIZE PUSH1 0x4 PUSH2 0x22C9 JUMP JUMPDEST PUSH2 0xFCF JUMP JUMPDEST PUSH2 0x426 PUSH2 0x40B CALLDATASIZE PUSH1 0x4 PUSH2 0x22A7 JUMP JUMPDEST PUSH1 0x11 PUSH1 0x20 MSTORE PUSH1 0x0 SWAP1 DUP2 MSTORE PUSH1 0x40 SWAP1 KECCAK256 SLOAD PUSH1 0x1 PUSH1 0x1 PUSH1 0xA0 SHL SUB AND DUP2 JUMP JUMPDEST PUSH1 0x40 MLOAD PUSH1 0x1 PUSH1 0x1 PUSH1 0xA0 SHL SUB SWAP1 SWAP2 AND DUP2 MSTORE PUSH1 0x20 ADD PUSH2 0x2CE JUMP JUMPDEST PUSH2 0x329 PUSH2 0x44C CALLDATASIZE PUSH1 0x4 PUSH2 0x22A7 JUMP JUMPDEST PUSH2 0x11CA JUMP JUMPDEST PUSH1 0x2 SLOAD PUSH1 0xFF AND PUSH2 0x369 JUMP JUMPDEST PUSH2 0x2C4 PUSH2 0x46A CALLDATASIZE PUSH1 0x4 PUSH2 0x255A JUMP JUMPDEST PUSH2 0x12D6 JUMP JUMPDEST PUSH2 0x2C4 PUSH2 0x47D CALLDATASIZE PUSH1 0x4 PUSH2 0x22C9 JUMP JUMPDEST PUSH2 0x163F JUMP JUMPDEST PUSH2 0x2C4 PUSH2 0x490 CALLDATASIZE PUSH1 0x4 PUSH2 0x22C9 JUMP JUMPDEST PUSH2 0x164F JUMP JUMPDEST PUSH2 0x2C4 PUSH1 0xC SLOAD DUP2 JUMP JUMPDEST PUSH2 0x329 PUSH2 0x4AC CALLDATASIZE PUSH1 0x4 PUSH2 0x261B JUMP JUMPDEST PUSH2 0x165F JUMP JUMPDEST PUSH2 0x2C4 PUSH2 0x4BF CALLDATASIZE PUSH1 0x4 PUSH2 0x22A7 JUMP JUMPDEST PUSH1 0x1B PUSH1 0x20 MSTORE PUSH1 0x0 SWAP1 DUP2 MSTORE PUSH1 0x40 SWAP1 KECCAK256 SLOAD DUP2 JUMP JUMPDEST PUSH2 0x329 PUSH2 0x1692 JUMP JUMPDEST PUSH2 0x329 PUSH2 0x16A4 JUMP JUMPDEST PUSH2 0x2C4 PUSH1 0xA SLOAD DUP2 JUMP JUMPDEST PUSH1 0x0 SLOAD PUSH1 0x1 PUSH1 0x1 PUSH1 0xA0 SHL SUB AND PUSH2 0x426 JUMP JUMPDEST PUSH2 0x369 PUSH2 0x509 CALLDATASIZE PUSH1 0x4 PUSH2 0x22C9 JUMP JUMPDEST PUSH2 0x16B4 JUMP JUMPDEST PUSH2 0x521 PUSH2 0x51C CALLDATASIZE PUSH1 0x4 PUSH2 0x22C9 JUMP JUMPDEST PUSH2 0x1727 JUMP JUMPDEST PUSH1 0x40 MLOAD PUSH2 0x2CE SWAP7 SWAP6 SWAP5 SWAP4 SWAP3 SWAP2 SWAP1 PUSH2 0x264E JUMP JUMPDEST PUSH2 0x329 PUSH2 0x1871 JUMP JUMPDEST PUSH2 0x329 PUSH2 0x549 CALLDATASIZE PUSH1 0x4 PUSH2 0x269A JUMP JUMPDEST PUSH2 0x191C JUMP JUMPDEST PUSH2 0x329 PUSH2 0x55C CALLDATASIZE PUSH1 0x4 PUSH2 0x2414 JUMP JUMPDEST PUSH2 0x1C00 JUMP JUMPDEST PUSH2 0x426 PUSH2 0x56F CALLDATASIZE PUSH1 0x4 PUSH2 0x26CE JUMP JUMPDEST PUSH2 0x1C3F JUMP JUMPDEST PUSH2 0x2C4 PUSH1 0xB SLOAD DUP2 JUMP JUMPDEST PUSH2 0x590 PUSH2 0x58B CALLDATASIZE PUSH1 0x4 PUSH2 0x22C9 JUMP JUMPDEST PUSH2 0x1C77 JUMP JUMPDEST PUSH1 0x40 MLOAD PUSH2 0x2CE SWAP13 SWAP12 SWAP11 SWAP10 SWAP9 SWAP8 SWAP7 SWAP6 SWAP5 SWAP4 SWAP3 SWAP2 SWAP1 PUSH2 0x26F0 JUMP JUMPDEST PUSH2 0x2C4 PUSH1 0x7 SLOAD DUP2 JUMP JUMPDEST PUSH2 0x2C4 PUSH2 0x2710 DUP2 JUMP JUMPDEST PUSH2 0x2C4 PUSH2 0x5C8 CALLDATASIZE PUSH1 0x4 PUSH2 0x22C9 JUMP JUMPDEST PUSH2 0x1EC1 JUMP JUMPDEST PUSH2 0x2C4 PUSH1 0x1D SLOAD DUP2 JUMP JUMPDEST PUSH2 0x2C4 PUSH1 0x3 SLOAD DUP2 JUMP JUMPDEST PUSH2 0x369 PUSH2 0x5ED CALLDATASIZE PUSH1 0x4 PUSH2 0x22A7 JUMP JUMPDEST PUSH1 0x1A PUSH1 0x20 MSTORE PUSH1 0x0 SWAP1 DUP2 MSTORE PUSH1 0x40 SWAP1 KECCAK256 SLOAD PUSH1 0xFF AND DUP2 JUMP JUMPDEST PUSH2 0x329 PUSH2 0x1ED1 JUMP JUMPDEST PUSH2 0x329 PUSH2 0x618 CALLDATASIZE PUSH1 0x4 PUSH2 0x22C9 JUMP JUMPDEST PUSH2 0x1FA9 JUMP JUMPDEST PUSH2 0x2C4 PUSH2 0x62B CALLDATASIZE PUSH1 0x4 PUSH2 0x22A7 JUMP JUMPDEST PUSH1 0xF PUSH1 0x20 MSTORE PUSH1 0x0 SWAP1 DUP2 MSTORE PUSH1 0x40 SWAP1 KECCAK256 SLOAD DUP2 JUMP JUMPDEST PUSH2 0x2C4 PUSH1 0xE SLOAD DUP2 JUMP JUMPDEST PUSH2 0x329 PUSH2 0x654 CALLDATASIZE PUSH1 0x4 PUSH2 0x22A7 JUMP JUMPDEST PUSH2 0x206D JUMP JUMPDEST PUSH1 0x12 PUSH1 0x20 MSTORE PUSH1 0x0 SWAP1 DUP2 MSTORE PUSH1 0x40 SWAP1 KECCAK256 DUP1 SLOAD PUSH1 0x1 DUP3 ADD SLOAD PUSH1 0x2 DUP4 ADD DUP1 SLOAD SWAP3 SWAP4 PUSH1 0x1 PUSH1 0x1 PUSH1 0xA0 SHL SUB DUP4 AND SWAP4 PUSH1 0x1 PUSH1 0xA0 SHL SWAP1 SWAP4 DIV PUSH1 0xFF AND SWAP3 SWAP1 SWAP2 SWAP1 PUSH2 0x699 SWAP1 PUSH2 0x2791 JUMP JUMPDEST DUP1 PUSH1 0x1F ADD PUSH1 0x20 DUP1 SWAP2 DIV MUL PUSH1 0x20 ADD PUSH1 0x40 MLOAD SWAP1 DUP2 ADD PUSH1 0x40 MSTORE DUP1 SWAP3 SWAP2 SWAP1 DUP2 DUP2 MSTORE PUSH1 0x20 ADD DUP3 DUP1 SLOAD PUSH2 0x6C5 SWAP1 PUSH2 0x2791 JUMP JUMPDEST DUP1 ISZERO PUSH2 0x712 JUMPI DUP1 PUSH1 0x1F LT PUSH2 0x6E7 JUMPI PUSH2 0x100 DUP1 DUP4 SLOAD DIV MUL DUP4 MSTORE SWAP2 PUSH1 0x20 ADD SWAP2 PUSH2 0x712 JUMP JUMPDEST DUP3 ADD SWAP2 SWAP1 PUSH1 0x0 MSTORE PUSH1 0x20 PUSH1 0x0 KECCAK256 SWAP1 JUMPDEST DUP2 SLOAD DUP2 MSTORE SWAP1 PUSH1 0x1 ADD SWAP1 PUSH1 0x20 ADD DUP1 DUP4 GT PUSH2 0x6F5 JUMPI DUP3 SWAP1 SUB PUSH1 0x1F AND DUP3 ADD SWAP2 JUMPDEST POP POP POP POP POP SWAP1 DUP1 PUSH1 0x3 ADD DUP1 SLOAD PUSH2 0x727 SWAP1 PUSH2 0x2791 JUMP JUMPDEST DUP1 PUSH1 0x1F ADD PUSH1 0x20 DUP1 SWAP2 DIV MUL PUSH1 0x20 ADD PUSH1 0x40 MLOAD SWAP1 DUP2 ADD PUSH1 0x40 MSTORE DUP1 SWAP3 SWAP2 SWAP1 DUP2 DUP2 MSTORE PUSH1 0x20 ADD DUP3 DUP1 SLOAD PUSH2 0x753 SWAP1 PUSH2 0x2791 JUMP JUMPDEST DUP1 ISZERO PUSH2 0x7A0 JUMPI DUP1 PUSH1 0x1F LT PUSH2 0x775 JUMPI PUSH2 0x100 DUP1 DUP4 SLOAD DIV MUL DUP4 MSTORE SWAP2 PUSH1 0x20 ADD SWAP2 PUSH2 0x7A0 JUMP JUMPDEST DUP3 ADD SWAP2 SWAP1 PUSH1 0x0 MSTORE PUSH1 0x20 PUSH1 0x0 KECCAK256 SWAP1 JUMPDEST DUP2 SLOAD DUP2 MSTORE SWAP1 PUSH1 0x1 ADD SWAP1 PUSH1 0x20 ADD DUP1 DUP4 GT PUSH2 0x783 JUMPI DUP3 SWAP1 SUB PUSH1 0x1F AND DUP3 ADD SWAP2 JUMPDEST POP POP POP POP POP SWAP1 DUP1 PUSH1 0x4 ADD DUP1 SLOAD PUSH2 0x7B5 SWAP1 PUSH2 0x2791 JUMP JUMPDEST DUP1 PUSH1 0x1F ADD PUSH1 0x20 DUP1 SWAP2 DIV MUL PUSH1 0x20 ADD PUSH1 0x40 MLOAD SWAP1 DUP2 ADD PUSH1 0x40 MSTORE DUP1 SWAP3 SWAP2 SWAP1 DUP2 DUP2 MSTORE PUSH1 0x20 ADD DUP3 DUP1 SLOAD PUSH2 0x7E1 SWAP1 PUSH2 0x2791 JUMP JUMPDEST DUP1 ISZERO PUSH2 0x82E JUMPI DUP1 PUSH1 0x1F LT PUSH2 0x803 JUMPI PUSH2 0x100 DUP1 DUP4 SLOAD DIV MUL DUP4 MSTORE SWAP2 PUSH1 0x20 ADD SWAP2 PUSH2 0x82E JUMP JUMPDEST DUP3 ADD SWAP2 SWAP1 PUSH1 0x0 MSTORE PUSH1 0x20 PUSH1 0x0 KECCAK256 SWAP1 JUMPDEST DUP2 SLOAD DUP2 MSTORE SWAP1 PUSH1 0x1 ADD SWAP1 PUSH1 0x20 ADD DUP1 DUP4 GT PUSH2 0x811 JUMPI DUP3 SWAP1 SUB PUSH1 0x1F AND DUP3 ADD SWAP2 JUMPDEST POP POP POP POP PUSH1 0x5 DUP4 ADD SLOAD PUSH1 0x6 DUP5 ADD SLOAD PUSH1 0x7 DUP6 ADD SLOAD PUSH1 0x8 DUP7 ADD SLOAD PUSH1 0x9 DUP8 ADD SLOAD PUSH1 0xA DUP9 ADD SLOAD PUSH1 0xB SWAP1 SWAP9 ADD SLOAD SWAP7 SWAP8 SWAP5 SWAP7 SWAP4 SWAP6 POP SWAP2 SWAP4 SWAP1 SWAP3 PUSH1 0xFF DUP1 DUP3 AND SWAP2 PUSH2 0x100 SWAP1 DIV AND DUP15 JUMP JUMPDEST PUSH2 0x878 PUSH2 0x20A8 JUMP JUMPDEST PUSH1 0x0 DUP2 DUP2 MSTORE PUSH1 0x12 PUSH1 0x20 MSTORE PUSH1 0x40 SWAP1 KECCAK256 PUSH1 0x4 PUSH1 0xB DUP3 ADD SLOAD PUSH1 0xFF AND PUSH1 0x6 DUP2 GT ISZERO PUSH2 0x8A1 JUMPI PUSH2 0x8A1 PUSH2 0x22E2 JUMP JUMPDEST EQ PUSH2 0x8BF JUMPI PUSH1 0x40 MLOAD PUSH4 0x992F7AD PUSH1 0xE0 SHL DUP2 MSTORE PUSH1 0x4 ADD PUSH1 0x40 MLOAD DUP1 SWAP2 SUB SWAP1 REVERT JUMPDEST PUSH1 0xB DUP2 ADD SLOAD PUSH2 0x100 SWAP1 DIV PUSH1 0xFF AND ISZERO PUSH2 0x8EA JUMPI PUSH1 0x40 MLOAD PUSH4 0x992F7AD PUSH1 0xE0 SHL DUP2 MSTORE PUSH1 0x4 ADD PUSH1 0x40 MLOAD DUP1 SWAP2 SUB SWAP1 REVERT JUMPDEST PUSH1 0x1 DUP2 ADD SLOAD PUSH1 0x1 PUSH1 0x1 PUSH1 0xA0 SHL SUB AND CALLER EQ DUP1 ISZERO SWAP1 PUSH2 0x912 JUMPI POP PUSH1 0x0 SLOAD PUSH1 0x1 PUSH1 0x1 PUSH1 0xA0 SHL SUB AND CALLER EQ ISZERO JUMPDEST ISZERO PUSH2 0x98D JUMPI PUSH1 0xA DUP2 ADD SLOAD PUSH2 0x929 SWAP1 PUSH3 0x15180 PUSH2 0x27E1 JUMP JUMPDEST TIMESTAMP LT ISZERO PUSH2 0x988 JUMPI PUSH1 0x40 MLOAD PUSH3 0x461BCD PUSH1 0xE5 SHL DUP2 MSTORE PUSH1 0x20 PUSH1 0x4 DUP3 ADD MSTORE PUSH1 0x22 PUSH1 0x24 DUP3 ADD MSTORE PUSH32 0x5075626C696320657865637574696F6E206E6F742079657420617661696C6162 PUSH1 0x44 DUP3 ADD MSTORE PUSH2 0x6C65 PUSH1 0xF0 SHL PUSH1 0x64 DUP3 ADD MSTORE PUSH1 0x84 ADD JUMPDEST PUSH1 0x40 MLOAD DUP1 SWAP2 SUB SWAP1 REVERT JUMPDEST PUSH2 0x9D4 JUMP JUMPDEST DUP1 PUSH1 0xA ADD SLOAD TIMESTAMP LT ISZERO PUSH2 0x9D4 JUMPI PUSH1 0x40 MLOAD PUSH3 0x461BCD PUSH1 0xE5 SHL DUP2 MSTORE PUSH1 0x20 PUSH1 0x4 DUP3 ADD MSTORE PUSH1 0x10 PUSH1 0x24 DUP3 ADD MSTORE PUSH16 0x54696D65206C6F636B20616374697665 PUSH1 0x80 SHL PUSH1 0x44 DUP3 ADD MSTORE PUSH1 0x64 ADD PUSH2 0x97F JUMP JUMPDEST PUSH1 0xB DUP2 ADD DUP1 SLOAD PUSH2 0xFFFF NOT AND PUSH2 0x105 OR SWAP1 SSTORE PUSH1 0x1 DUP2 ADD SLOAD PUSH1 0x0 SWAP1 PUSH1 0x1 PUSH1 0xA0 SHL SWAP1 DIV PUSH1 0xFF AND PUSH1 0x4 DUP2 GT ISZERO PUSH2 0xA08 JUMPI PUSH2 0xA08 PUSH2 0x22E2 JUMP JUMPDEST SUB PUSH2 0xA2F JUMPI PUSH1 0x1D DUP3 SWAP1 SSTORE PUSH1 0x0 DUP3 DUP2 MSTORE PUSH1 0x14 PUSH1 0x20 MSTORE PUSH1 0x40 SWAP1 KECCAK256 PUSH1 0x5 ADD DUP1 SLOAD PUSH1 0xFF NOT AND PUSH1 0x1 OR SWAP1 SSTORE JUMPDEST PUSH1 0x1 DUP2 ADD SLOAD PUSH1 0x40 DUP1 MLOAD DUP1 DUP3 ADD SWAP1 SWAP2 MSTORE PUSH1 0x11 DUP2 MSTORE PUSH17 0x141C9BDC1BDCD85B08195E1958DD5D1959 PUSH1 0x7A SHL PUSH1 0x20 DUP3 ADD MSTORE PUSH2 0xA72 SWAP2 PUSH1 0x1 PUSH1 0x1 PUSH1 0xA0 SHL SUB AND SWAP1 PUSH1 0x5 SWAP1 PUSH2 0x20CC JUMP JUMPDEST PUSH1 0x40 MLOAD DUP3 SWAP1 PUSH32 0x712AE1383F79AC853F8D882153778E0260EF8F03B504E2866E0593E04D2B291F SWAP1 PUSH1 0x0 SWAP1 LOG2 POP POP JUMP JUMPDEST PUSH1 0x1C PUSH1 0x20 MSTORE DUP2 PUSH1 0x0 MSTORE PUSH1 0x40 PUSH1 0x0 KECCAK256 DUP2 DUP2 SLOAD DUP2 LT PUSH2 0xABD JUMPI PUSH1 0x0 DUP1 REVERT JUMPDEST SWAP1 PUSH1 0x0 MSTORE PUSH1 0x20 PUSH1 0x0 KECCAK256 ADD PUSH1 0x0 SWAP2 POP SWAP2 POP POP SLOAD DUP2 JUMP JUMPDEST PUSH2 0xADA PUSH2 0x215C JUMP JUMPDEST PUSH1 0x0 NOT PUSH1 0x5 SLOAD LT PUSH2 0xB1D JUMPI PUSH1 0x40 MLOAD PUSH3 0x461BCD PUSH1 0xE5 SHL DUP2 MSTORE PUSH1 0x20 PUSH1 0x4 DUP3 ADD MSTORE PUSH1 0xD PUSH1 0x24 DUP3 ADD MSTORE PUSH13 0x5765656B206F766572666C6F77 PUSH1 0x98 SHL PUSH1 0x44 DUP3 ADD MSTORE PUSH1 0x64 ADD PUSH2 0x97F JUMP JUMPDEST PUSH1 0x5 DUP1 SLOAD SWAP1 PUSH1 0x0 PUSH2 0xB2D DUP4 PUSH2 0x27FA JUMP JUMPDEST SWAP1 SWAP2 SSTORE POP POP PUSH1 0x0 PUSH1 0x1D SSTORE JUMP JUMPDEST PUSH2 0xB41 PUSH2 0x215C JUMP JUMPDEST PUSH2 0xB49 PUSH2 0x2189 JUMP JUMPDEST JUMP JUMPDEST PUSH2 0xB53 PUSH2 0x215C JUMP JUMPDEST PUSH3 0x3F480 DUP7 LT ISZERO PUSH2 0xBA6 JUMPI PUSH1 0x40 MLOAD PUSH3 0x461BCD PUSH1 0xE5 SHL DUP2 MSTORE PUSH1 0x20 PUSH1 0x4 DUP3 ADD MSTORE PUSH1 0x17 PUSH1 0x24 DUP3 ADD MSTORE PUSH32 0x566F74696E6720706572696F6420746F6F2073686F7274000000000000000000 PUSH1 0x44 DUP3 ADD MSTORE PUSH1 0x64 ADD PUSH2 0x97F JUMP JUMPDEST PUSH3 0x15180 DUP6 LT ISZERO PUSH2 0xBF0 JUMPI PUSH1 0x40 MLOAD PUSH3 0x461BCD PUSH1 0xE5 SHL DUP2 MSTORE PUSH1 0x20 PUSH1 0x4 DUP3 ADD MSTORE PUSH1 0x14 PUSH1 0x24 DUP3 ADD MSTORE PUSH20 0x145D5A58DAC81D9BDD19481D1BDBC81CDA1BDC9D PUSH1 0x62 SHL PUSH1 0x44 DUP3 ADD MSTORE PUSH1 0x64 ADD PUSH2 0x97F JUMP JUMPDEST PUSH1 0x0 DUP5 GT PUSH2 0xC40 JUMPI PUSH1 0x40 MLOAD PUSH3 0x461BCD PUSH1 0xE5 SHL DUP2 MSTORE PUSH1 0x20 PUSH1 0x4 DUP3 ADD MSTORE PUSH1 0x1A PUSH1 0x24 DUP3 ADD MSTORE PUSH32 0x4D696E20766F746573206D75737420626520706F736974697665000000000000 PUSH1 0x44 DUP3 ADD MSTORE PUSH1 0x64 ADD PUSH2 0x97F JUMP JUMPDEST PUSH1 0x0 DUP4 GT DUP1 ISZERO PUSH2 0xC51 JUMPI POP PUSH1 0x64 DUP4 GT ISZERO JUMPDEST PUSH2 0xC8E JUMPI PUSH1 0x40 MLOAD PUSH3 0x461BCD PUSH1 0xE5 SHL DUP2 MSTORE PUSH1 0x20 PUSH1 0x4 DUP3 ADD MSTORE PUSH1 0xE PUSH1 0x24 DUP3 ADD MSTORE PUSH14 0x496E76616C69642071756F72756D PUSH1 0x90 SHL PUSH1 0x44 DUP3 ADD MSTORE PUSH1 0x64 ADD PUSH2 0x97F JUMP JUMPDEST PUSH3 0x15180 DUP3 LT ISZERO PUSH2 0xCD3 JUMPI PUSH1 0x40 MLOAD PUSH3 0x461BCD PUSH1 0xE5 SHL DUP2 MSTORE PUSH1 0x20 PUSH1 0x4 DUP3 ADD MSTORE PUSH1 0xF PUSH1 0x24 DUP3 ADD MSTORE PUSH15 0x11195B185E481D1BDBC81CDA1BDC9D PUSH1 0x8A SHL PUSH1 0x44 DUP3 ADD MSTORE PUSH1 0x64 ADD PUSH2 0x97F JUMP JUMPDEST PUSH1 0x0 DUP2 GT PUSH2 0xD23 JUMPI PUSH1 0x40 MLOAD PUSH3 0x461BCD PUSH1 0xE5 SHL DUP2 MSTORE PUSH1 0x20 PUSH1 0x4 DUP3 ADD MSTORE PUSH1 0x1A PUSH1 0x24 DUP3 ADD MSTORE PUSH32 0x5468726573686F6C64206D75737420626520706F736974697665000000000000 PUSH1 0x44 DUP3 ADD MSTORE PUSH1 0x64 ADD PUSH2 0x97F JUMP JUMPDEST PUSH1 0x6 SWAP6 SWAP1 SWAP6 SSTORE PUSH1 0x7 SWAP4 SWAP1 SWAP4 SSTORE PUSH1 0x8 SWAP2 SWAP1 SWAP2 SSTORE PUSH1 0x9 SSTORE PUSH1 0xA SSTORE PUSH1 0xB SSTORE JUMP JUMPDEST PUSH1 0x13 PUSH1 0x20 MSTORE PUSH1 0x0 SWAP1 DUP2 MSTORE PUSH1 0x40 SWAP1 KECCAK256 DUP1 SLOAD PUSH1 0x1 DUP3 ADD DUP1 SLOAD SWAP2 SWAP3 SWAP2 PUSH2 0xD62 SWAP1 PUSH2 0x2791 JUMP JUMPDEST DUP1 PUSH1 0x1F ADD PUSH1 0x20 DUP1 SWAP2 DIV MUL PUSH1 0x20 ADD PUSH1 0x40 MLOAD SWAP1 DUP2 ADD PUSH1 0x40 MSTORE DUP1 SWAP3 SWAP2 SWAP1 DUP2 DUP2 MSTORE PUSH1 0x20 ADD DUP3 DUP1 SLOAD PUSH2 0xD8E SWAP1 PUSH2 0x2791 JUMP JUMPDEST DUP1 ISZERO PUSH2 0xDDB JUMPI DUP1 PUSH1 0x1F LT PUSH2 0xDB0 JUMPI PUSH2 0x100 DUP1 DUP4 SLOAD DIV MUL DUP4 MSTORE SWAP2 PUSH1 0x20 ADD SWAP2 PUSH2 0xDDB JUMP JUMPDEST DUP3 ADD SWAP2 SWAP1 PUSH1 0x0 MSTORE PUSH1 0x20 PUSH1 0x0 KECCAK256 SWAP1 JUMPDEST DUP2 SLOAD DUP2 MSTORE SWAP1 PUSH1 0x1 ADD SWAP1 PUSH1 0x20 ADD DUP1 DUP4 GT PUSH2 0xDBE JUMPI DUP3 SWAP1 SUB PUSH1 0x1F AND DUP3 ADD SWAP2 JUMPDEST POP POP POP POP POP SWAP1 DUP1 PUSH1 0x2 ADD DUP1 SLOAD PUSH2 0xDF0 SWAP1 PUSH2 0x2791 JUMP JUMPDEST DUP1 PUSH1 0x1F ADD PUSH1 0x20 DUP1 SWAP2 DIV MUL PUSH1 0x20 ADD PUSH1 0x40 MLOAD SWAP1 DUP2 ADD PUSH1 0x40 MSTORE DUP1 SWAP3 SWAP2 SWAP1 DUP2 DUP2 MSTORE PUSH1 0x20 ADD DUP3 DUP1 SLOAD PUSH2 0xE1C SWAP1 PUSH2 0x2791 JUMP JUMPDEST DUP1 ISZERO PUSH2 0xE69 JUMPI DUP1 PUSH1 0x1F LT PUSH2 0xE3E JUMPI PUSH2 0x100 DUP1 DUP4 SLOAD DIV MUL DUP4 MSTORE SWAP2 PUSH1 0x20 ADD SWAP2 PUSH2 0xE69 JUMP JUMPDEST DUP3 ADD SWAP2 SWAP1 PUSH1 0x0 MSTORE PUSH1 0x20 PUSH1 0x0 KECCAK256 SWAP1 JUMPDEST DUP2 SLOAD DUP2 MSTORE SWAP1 PUSH1 0x1 ADD SWAP1 PUSH1 0x20 ADD DUP1 DUP4 GT PUSH2 0xE4C JUMPI DUP3 SWAP1 SUB PUSH1 0x1F AND DUP3 ADD SWAP2 JUMPDEST POP POP POP POP POP SWAP1 DUP1 PUSH1 0x3 ADD DUP1 SLOAD PUSH2 0xE7E SWAP1 PUSH2 0x2791 JUMP JUMPDEST DUP1 PUSH1 0x1F ADD PUSH1 0x20 DUP1 SWAP2 DIV MUL PUSH1 0x20 ADD PUSH1 0x40 MLOAD SWAP1 DUP2 ADD PUSH1 0x40 MSTORE DUP1 SWAP3 SWAP2 SWAP1 DUP2 DUP2 MSTORE PUSH1 0x20 ADD DUP3 DUP1 SLOAD PUSH2 0xEAA SWAP1 PUSH2 0x2791 JUMP JUMPDEST DUP1 ISZERO PUSH2 0xEF7 JUMPI DUP1 PUSH1 0x1F LT PUSH2 0xECC JUMPI PUSH2 0x100 DUP1 DUP4 SLOAD DIV MUL DUP4 MSTORE SWAP2 PUSH1 0x20 ADD SWAP2 PUSH2 0xEF7 JUMP JUMPDEST DUP3 ADD SWAP2 SWAP1 PUSH1 0x0 MSTORE PUSH1 0x20 PUSH1 0x0 KECCAK256 SWAP1 JUMPDEST DUP2 SLOAD DUP2 MSTORE SWAP1 PUSH1 0x1 ADD SWAP1 PUSH1 0x20 ADD DUP1 DUP4 GT PUSH2 0xEDA JUMPI DUP3 SWAP1 SUB PUSH1 0x1F AND DUP3 ADD SWAP2 JUMPDEST POP POP POP POP POP SWAP1 DUP1 PUSH1 0x4 ADD DUP1 SLOAD PUSH2 0xF0C SWAP1 PUSH2 0x2791 JUMP JUMPDEST DUP1 PUSH1 0x1F ADD PUSH1 0x20 DUP1 SWAP2 DIV MUL PUSH1 0x20 ADD PUSH1 0x40 MLOAD SWAP1 DUP2 ADD PUSH1 0x40 MSTORE DUP1 SWAP3 SWAP2 SWAP1 DUP2 DUP2 MSTORE PUSH1 0x20 ADD DUP3 DUP1 SLOAD PUSH2 0xF38 SWAP1 PUSH2 0x2791 JUMP JUMPDEST DUP1 ISZERO PUSH2 0xF85 JUMPI DUP1 PUSH1 0x1F LT PUSH2 0xF5A JUMPI PUSH2 0x100 DUP1 DUP4 SLOAD DIV MUL DUP4 MSTORE SWAP2 PUSH1 0x20 ADD SWAP2 PUSH2 0xF85 JUMP JUMPDEST DUP3 ADD SWAP2 SWAP1 PUSH1 0x0 MSTORE PUSH1 0x20 PUSH1 0x0 KECCAK256 SWAP1 JUMPDEST DUP2 SLOAD DUP2 MSTORE SWAP1 PUSH1 0x1 ADD SWAP1 PUSH1 0x20 ADD DUP1 DUP4 GT PUSH2 0xF68 JUMPI DUP3 SWAP1 SUB PUSH1 0x1F AND DUP3 ADD SWAP2 JUMPDEST POP POP POP PUSH1 0x6 DUP5 ADD SLOAD PUSH1 0x7 DUP6 ADD SLOAD PUSH1 0x8 DUP7 ADD SLOAD PUSH1 0xA SWAP1 SWAP7 ADD SLOAD SWAP5 SWAP6 SWAP2 SWAP5 SWAP1 SWAP4 POP PUSH1 0xFF SWAP1 SWAP2 AND SWAP2 POP DUP10 JUMP JUMPDEST PUSH1 0x17 DUP2 DUP2 SLOAD DUP2 LT PUSH2 0xFBE JUMPI PUSH1 0x0 DUP1 REVERT JUMPDEST PUSH1 0x0 SWAP2 DUP3 MSTORE PUSH1 0x20 SWAP1 SWAP2 KECCAK256 ADD SLOAD SWAP1 POP DUP2 JUMP JUMPDEST PUSH2 0xFD7 PUSH2 0x20A8 JUMP JUMPDEST PUSH1 0x0 DUP2 DUP2 MSTORE PUSH1 0x12 PUSH1 0x20 MSTORE PUSH1 0x40 SWAP1 KECCAK256 PUSH1 0x1 PUSH1 0xB DUP3 ADD SLOAD PUSH1 0xFF AND PUSH1 0x6 DUP2 GT ISZERO PUSH2 0x1000 JUMPI PUSH2 0x1000 PUSH2 0x22E2 JUMP JUMPDEST EQ PUSH2 0x101E JUMPI PUSH1 0x40 MLOAD PUSH4 0x7BECC13F PUSH1 0xE0 SHL DUP2 MSTORE PUSH1 0x4 ADD PUSH1 0x40 MLOAD DUP1 SWAP2 SUB SWAP1 REVERT JUMPDEST DUP1 PUSH1 0x9 ADD SLOAD TIMESTAMP LT ISZERO PUSH2 0x1068 JUMPI PUSH1 0x40 MLOAD PUSH3 0x461BCD PUSH1 0xE5 SHL DUP2 MSTORE PUSH1 0x20 PUSH1 0x4 DUP3 ADD MSTORE PUSH1 0x13 PUSH1 0x24 DUP3 ADD MSTORE PUSH19 0x566F74696E67207374696C6C20616374697665 PUSH1 0x68 SHL PUSH1 0x44 DUP3 ADD MSTORE PUSH1 0x64 ADD PUSH2 0x97F JUMP JUMPDEST PUSH1 0x0 DUP2 PUSH1 0x7 ADD SLOAD DUP3 PUSH1 0x6 ADD SLOAD DUP4 PUSH1 0x5 ADD SLOAD PUSH2 0x1083 SWAP2 SWAP1 PUSH2 0x27E1 JUMP JUMPDEST PUSH2 0x108D SWAP2 SWAP1 PUSH2 0x27E1 JUMP JUMPDEST SWAP1 POP PUSH2 0x1098 DUP4 PUSH2 0x16B4 JUMP JUMPDEST PUSH2 0x10FE JUMPI PUSH1 0xB DUP3 ADD DUP1 SLOAD PUSH1 0xFF NOT AND PUSH1 0x3 SWAP1 DUP2 OR SWAP1 SWAP2 SSTORE PUSH1 0x5 DUP4 ADD SLOAD PUSH1 0x6 DUP5 ADD SLOAD PUSH1 0x7 DUP6 ADD SLOAD PUSH1 0x40 MLOAD DUP8 SWAP5 PUSH32 0xBEA26FB7B1BEE880C70CF1614C512461ECF3F0039DE69CFF7141C9F88D5C73D7 SWAP5 PUSH2 0x10F1 SWAP5 SWAP2 SWAP4 SWAP1 SWAP3 PUSH2 0x2813 JUMP JUMPDEST PUSH1 0x40 MLOAD DUP1 SWAP2 SUB SWAP1 LOG2 POP POP POP JUMP JUMPDEST DUP2 PUSH1 0x6 ADD SLOAD DUP3 PUSH1 0x5 ADD SLOAD GT ISZERO PUSH2 0x116B JUMPI PUSH1 0xB DUP3 ADD DUP1 SLOAD PUSH1 0xFF NOT AND PUSH1 0x4 OR SWAP1 SSTORE PUSH1 0xA SLOAD PUSH2 0x112A SWAP1 TIMESTAMP PUSH2 0x27E1 JUMP JUMPDEST PUSH1 0xA DUP4 ADD DUP2 SWAP1 SSTORE PUSH1 0x40 MLOAD SWAP1 DUP2 MSTORE DUP4 SWAP1 PUSH32 0x9A2E42FD6722813D69113E7D0079D3D940171428DF7373DF9C7F7617CFDA2892 SWAP1 PUSH1 0x20 ADD PUSH1 0x40 MLOAD DUP1 SWAP2 SUB SWAP1 LOG2 PUSH2 0x117B JUMP JUMPDEST PUSH1 0xB DUP3 ADD DUP1 SLOAD PUSH1 0xFF NOT AND PUSH1 0x3 OR SWAP1 SSTORE JUMPDEST PUSH1 0xB DUP3 ADD SLOAD PUSH1 0x5 DUP4 ADD SLOAD PUSH1 0x6 DUP5 ADD SLOAD PUSH1 0x7 DUP6 ADD SLOAD PUSH1 0x40 MLOAD DUP8 SWAP5 PUSH32 0xBEA26FB7B1BEE880C70CF1614C512461ECF3F0039DE69CFF7141C9F88D5C73D7 SWAP5 PUSH2 0x10F1 SWAP5 PUSH1 0xFF SWAP1 SWAP3 AND SWAP4 SWAP1 SWAP3 PUSH2 0x2813 JUMP JUMPDEST POP JUMP JUMPDEST CALLER PUSH1 0x1 PUSH1 0x1 PUSH1 0xA0 SHL SUB DUP3 AND SUB PUSH2 0x1222 JUMPI PUSH1 0x40 MLOAD PUSH3 0x461BCD PUSH1 0xE5 SHL DUP2 MSTORE PUSH1 0x20 PUSH1 0x4 DUP3 ADD MSTORE PUSH1 0x17 PUSH1 0x24 DUP3 ADD MSTORE PUSH32 0x43616E6E6F742064656C656761746520746F2073656C66000000000000000000 PUSH1 0x44 DUP3 ADD MSTORE PUSH1 0x64 ADD PUSH2 0x97F JUMP JUMPDEST PUSH1 0x1 PUSH1 0x1 PUSH1 0xA0 SHL SUB DUP2 AND PUSH2 0x1278 JUMPI PUSH1 0x40 MLOAD PUSH3 0x461BCD PUSH1 0xE5 SHL DUP2 MSTORE PUSH1 0x20 PUSH1 0x4 DUP3 ADD MSTORE PUSH1 0x17 PUSH1 0x24 DUP3 ADD MSTORE PUSH32 0x43616E6E6F742064656C656761746520746F207A65726F000000000000000000 PUSH1 0x44 DUP3 ADD MSTORE PUSH1 0x64 ADD PUSH2 0x97F JUMP JUMPDEST CALLER PUSH1 0x0 DUP2 DUP2 MSTORE PUSH1 0x11 PUSH1 0x20 MSTORE PUSH1 0x40 DUP1 DUP3 KECCAK256 DUP1 SLOAD PUSH1 0x1 PUSH1 0x1 PUSH1 0xA0 SHL SUB DUP7 DUP2 AND PUSH1 0x1 PUSH1 0x1 PUSH1 0xA0 SHL SUB NOT DUP4 AND DUP2 OR SWAP1 SWAP4 SSTORE SWAP3 MLOAD SWAP3 AND SWAP4 SWAP1 SWAP3 DUP5 SWAP3 PUSH32 0x3134E8A2E6D97E929A7E54011EA5485D7D196DD5F0BA4D4EF95803E8E3FC257F SWAP2 SWAP1 LOG4 POP POP JUMP JUMPDEST PUSH1 0x0 PUSH2 0x12E0 PUSH2 0x20A8 JUMP JUMPDEST DUP7 PUSH2 0x131E JUMPI PUSH1 0x40 MLOAD PUSH3 0x461BCD PUSH1 0xE5 SHL DUP2 MSTORE PUSH1 0x20 PUSH1 0x4 DUP3 ADD MSTORE PUSH1 0xE PUSH1 0x24 DUP3 ADD MSTORE PUSH14 0x151A5D1B19481C995C5D5A5C9959 PUSH1 0x92 SHL PUSH1 0x44 DUP3 ADD MSTORE PUSH1 0x64 ADD PUSH2 0x97F JUMP JUMPDEST DUP5 PUSH2 0x1362 JUMPI PUSH1 0x40 MLOAD PUSH3 0x461BCD PUSH1 0xE5 SHL DUP2 MSTORE PUSH1 0x20 PUSH1 0x4 DUP3 ADD MSTORE PUSH1 0x14 PUSH1 0x24 DUP3 ADD MSTORE PUSH20 0x11195CD8DC9A5C1D1A5BDB881C995C5D5A5C9959 PUSH1 0x62 SHL PUSH1 0x44 DUP3 ADD MSTORE PUSH1 0x64 ADD PUSH2 0x97F JUMP JUMPDEST PUSH1 0xB SLOAD CALLER PUSH1 0x0 SWAP1 DUP2 MSTORE PUSH1 0xF PUSH1 0x20 MSTORE PUSH1 0x40 SWAP1 KECCAK256 SLOAD LT ISZERO PUSH2 0x1394 JUMPI PUSH1 0x40 MLOAD PUSH4 0x1899C497 PUSH1 0xE3 SHL DUP2 MSTORE PUSH1 0x4 ADD PUSH1 0x40 MLOAD DUP1 SWAP2 SUB SWAP1 REVERT JUMPDEST PUSH1 0x3 DUP1 SLOAD SWAP1 PUSH1 0x0 PUSH2 0x13A4 DUP4 PUSH2 0x27FA JUMP JUMPDEST SWAP1 SWAP2 SSTORE POP POP PUSH1 0x3 SLOAD PUSH1 0x0 DUP2 DUP2 MSTORE PUSH1 0x12 PUSH1 0x20 MSTORE PUSH1 0x40 SWAP1 KECCAK256 DUP2 DUP2 SSTORE PUSH1 0x1 DUP2 ADD DUP1 SLOAD CALLER PUSH1 0x1 PUSH1 0x1 PUSH1 0xA0 SHL SUB NOT DUP3 AND DUP2 OR DUP4 SSTORE DUP14 SWAP3 SWAP2 PUSH1 0x1 PUSH1 0x1 PUSH1 0xA8 SHL SUB NOT AND PUSH1 0xFF PUSH1 0xA0 SHL NOT SWAP1 SWAP2 AND OR PUSH1 0x1 PUSH1 0xA0 SHL DUP4 PUSH1 0x4 DUP2 GT ISZERO PUSH2 0x1401 JUMPI PUSH2 0x1401 PUSH2 0x22E2 JUMP JUMPDEST MUL OR SWAP1 SSTORE POP PUSH1 0x2 DUP2 ADD PUSH2 0x1415 DUP11 DUP13 DUP4 PUSH2 0x28A1 JUMP JUMPDEST POP PUSH1 0x3 DUP2 ADD PUSH2 0x1425 DUP9 DUP11 DUP4 PUSH2 0x28A1 JUMP JUMPDEST POP PUSH1 0x4 DUP2 ADD PUSH2 0x1435 DUP7 DUP9 DUP4 PUSH2 0x28A1 JUMP JUMPDEST POP TIMESTAMP PUSH1 0x8 DUP3 ADD SSTORE DUP4 PUSH2 0x1449 JUMPI PUSH1 0x6 SLOAD PUSH2 0x144D JUMP JUMPDEST PUSH1 0x7 SLOAD JUMPDEST PUSH2 0x1457 SWAP1 TIMESTAMP PUSH2 0x27E1 JUMP JUMPDEST PUSH1 0x9 DUP3 ADD SSTORE PUSH1 0xB DUP2 ADD DUP1 SLOAD PUSH1 0xFF NOT AND PUSH1 0x1 OR SWAP1 SSTORE PUSH1 0x0 DUP12 PUSH1 0x4 DUP2 GT ISZERO PUSH2 0x147F JUMPI PUSH2 0x147F PUSH2 0x22E2 JUMP JUMPDEST SUB PUSH2 0x14BE JUMPI PUSH1 0x16 DUP1 SLOAD PUSH1 0x1 DUP2 ADD DUP3 SSTORE PUSH1 0x0 SWAP2 SWAP1 SWAP2 MSTORE PUSH32 0xD833147D7DC355BA459FC788F669E58CFAF9DC25DDCD0702E87D69C7B5124289 ADD DUP3 SWAP1 SSTORE PUSH2 0x15B3 JUMP JUMPDEST PUSH1 0x1 DUP12 PUSH1 0x4 DUP2 GT ISZERO PUSH2 0x14D2 JUMPI PUSH2 0x14D2 PUSH2 0x22E2 JUMP JUMPDEST SUB PUSH2 0x1511 JUMPI PUSH1 0x17 DUP1 SLOAD PUSH1 0x1 DUP2 ADD DUP3 SSTORE PUSH1 0x0 SWAP2 SWAP1 SWAP2 MSTORE PUSH32 0xC624B66CC0138B8FABC209247F72D758E1CF3343756D543BADBF24212BED8C15 ADD DUP3 SWAP1 SSTORE PUSH2 0x15B3 JUMP JUMPDEST PUSH1 0x2 DUP12 PUSH1 0x4 DUP2 GT ISZERO PUSH2 0x1525 JUMPI PUSH2 0x1525 PUSH2 0x22E2 JUMP JUMPDEST SUB PUSH2 0x1564 JUMPI PUSH1 0x18 DUP1 SLOAD PUSH1 0x1 DUP2 ADD DUP3 SSTORE PUSH1 0x0 SWAP2 SWAP1 SWAP2 MSTORE PUSH32 0xB13D2D76D1F4B7BE834882E410B3E3A8AFAF69F83600AE24DB354391D2378D2E ADD DUP3 SWAP1 SSTORE PUSH2 0x15B3 JUMP JUMPDEST PUSH1 0x3 DUP12 PUSH1 0x4 DUP2 GT ISZERO PUSH2 0x1578 JUMPI PUSH2 0x1578 PUSH2 0x22E2 JUMP JUMPDEST SUB PUSH2 0x15B3 JUMPI PUSH1 0x19 DUP1 SLOAD PUSH1 0x1 DUP2 ADD DUP3 SSTORE PUSH1 0x0 SWAP2 SWAP1 SWAP2 MSTORE PUSH32 0x944998273E477B495144FB8794C914197F3CCB46BE2900F4698FD0EF743C9695 ADD DUP3 SWAP1 SSTORE JUMPDEST CALLER PUSH1 0x0 SWAP1 DUP2 MSTORE PUSH1 0x1C PUSH1 0x20 SWAP1 DUP2 MSTORE PUSH1 0x40 DUP3 KECCAK256 DUP1 SLOAD PUSH1 0x1 DUP2 ADD DUP3 SSTORE SWAP1 DUP4 MSTORE SWAP2 KECCAK256 ADD DUP3 SWAP1 SSTORE DUP11 PUSH1 0x4 DUP2 GT ISZERO PUSH2 0x15E7 JUMPI PUSH2 0x15E7 PUSH2 0x22E2 JUMP JUMPDEST CALLER PUSH1 0x1 PUSH1 0x1 PUSH1 0xA0 SHL SUB AND DUP4 PUSH32 0x2160CBF9D326719DD2CC1BE7C9B9C511051B9228F9B3EDC8FE58AED7D44FDAC3 DUP14 DUP14 DUP7 PUSH1 0x9 ADD SLOAD PUSH1 0x40 MLOAD PUSH2 0x1629 SWAP4 SWAP3 SWAP2 SWAP1 PUSH2 0x2962 JUMP JUMPDEST PUSH1 0x40 MLOAD DUP1 SWAP2 SUB SWAP1 LOG4 POP SWAP10 SWAP9 POP POP POP POP POP POP POP POP POP JUMP JUMPDEST PUSH1 0x16 DUP2 DUP2 SLOAD DUP2 LT PUSH2 0xFBE JUMPI PUSH1 0x0 DUP1 REVERT JUMPDEST PUSH1 0x19 DUP2 DUP2 SLOAD DUP2 LT PUSH2 0xFBE JUMPI PUSH1 0x0 DUP1 REVERT JUMPDEST PUSH2 0x1667 PUSH2 0x215C JUMP JUMPDEST PUSH1 0x1 PUSH1 0x1 PUSH1 0xA0 SHL SUB SWAP2 SWAP1 SWAP2 AND PUSH1 0x0 SWAP1 DUP2 MSTORE PUSH1 0x10 PUSH1 0x20 MSTORE PUSH1 0x40 SWAP1 KECCAK256 DUP1 SLOAD PUSH1 0xFF NOT AND SWAP2 ISZERO ISZERO SWAP2 SWAP1 SWAP2 OR SWAP1 SSTORE JUMP JUMPDEST PUSH2 0x169A PUSH2 0x215C JUMP JUMPDEST PUSH2 0xB49 PUSH1 0x0 PUSH2 0x21DB JUMP JUMPDEST PUSH2 0x16AC PUSH2 0x215C JUMP JUMPDEST PUSH2 0xB49 PUSH2 0x222B JUMP JUMPDEST PUSH1 0x0 DUP2 DUP2 MSTORE PUSH1 0x12 PUSH1 0x20 MSTORE PUSH1 0x40 DUP2 KECCAK256 PUSH1 0x7 DUP2 ADD SLOAD PUSH1 0x6 DUP3 ADD SLOAD PUSH1 0x5 DUP4 ADD SLOAD DUP5 SWAP3 SWAP2 PUSH2 0x16DD SWAP2 PUSH2 0x27E1 JUMP JUMPDEST PUSH2 0x16E7 SWAP2 SWAP1 PUSH2 0x27E1 JUMP JUMPDEST SWAP1 POP PUSH1 0x8 SLOAD DUP2 LT ISZERO PUSH2 0x16FD JUMPI POP PUSH1 0x0 SWAP4 SWAP3 POP POP POP JUMP JUMPDEST PUSH1 0x0 PUSH1 0x64 PUSH1 0x9 SLOAD PUSH1 0xC SLOAD PUSH2 0x1711 SWAP2 SWAP1 PUSH2 0x299B JUMP JUMPDEST PUSH2 0x171B SWAP2 SWAP1 PUSH2 0x29B2 JUMP JUMPDEST SWAP1 SWAP2 LT ISZERO SWAP5 SWAP4 POP POP POP POP JUMP JUMPDEST PUSH1 0x14 PUSH1 0x20 MSTORE PUSH1 0x0 SWAP1 DUP2 MSTORE PUSH1 0x40 SWAP1 KECCAK256 DUP1 SLOAD PUSH1 0x1 DUP3 ADD DUP1 SLOAD SWAP2 SWAP3 SWAP2 PUSH2 0x1749 SWAP1 PUSH2 0x2791 JUMP JUMPDEST DUP1 PUSH1 0x1F ADD PUSH1 0x20 DUP1 SWAP2 DIV MUL PUSH1 0x20 ADD PUSH1 0x40 MLOAD SWAP1 DUP2 ADD PUSH1 0x40 MSTORE DUP1 SWAP3 SWAP2 SWAP1 DUP2 DUP2 MSTORE PUSH1 0x20 ADD DUP3 DUP1 SLOAD PUSH2 0x1775 SWAP1 PUSH2 0x2791 JUMP JUMPDEST DUP1 ISZERO PUSH2 0x17C2 JUMPI DUP1 PUSH1 0x1F LT PUSH2 0x1797 JUMPI PUSH2 0x100 DUP1 DUP4 SLOAD DIV MUL DUP4 MSTORE SWAP2 PUSH1 0x20 ADD SWAP2 PUSH2 0x17C2 JUMP JUMPDEST DUP3 ADD SWAP2 SWAP1 PUSH1 0x0 MSTORE PUSH1 0x20 PUSH1 0x0 KECCAK256 SWAP1 JUMPDEST DUP2 SLOAD DUP2 MSTORE SWAP1 PUSH1 0x1 ADD SWAP1 PUSH1 0x20 ADD DUP1 DUP4 GT PUSH2 0x17A5 JUMPI DUP3 SWAP1 SUB PUSH1 0x1F AND DUP3 ADD SWAP2 JUMPDEST POP POP POP POP POP SWAP1 DUP1 PUSH1 0x2 ADD DUP1 SLOAD PUSH2 0x17D7 SWAP1 PUSH2 0x2791 JUMP JUMPDEST DUP1 PUSH1 0x1F ADD PUSH1 0x20 DUP1 SWAP2 DIV MUL PUSH1 0x20 ADD PUSH1 0x40 MLOAD SWAP1 DUP2 ADD PUSH1 0x40 MSTORE DUP1 SWAP3 SWAP2 SWAP1 DUP2 DUP2 MSTORE PUSH1 0x20 ADD DUP3 DUP1 SLOAD PUSH2 0x1803 SWAP1 PUSH2 0x2791 JUMP JUMPDEST DUP1 ISZERO PUSH2 0x1850 JUMPI DUP1 PUSH1 0x1F LT PUSH2 0x1825 JUMPI PUSH2 0x100 DUP1 DUP4 SLOAD DIV MUL DUP4 MSTORE SWAP2 PUSH1 0x20 ADD SWAP2 PUSH2 0x1850 JUMP JUMPDEST DUP3 ADD SWAP2 SWAP1 PUSH1 0x0 MSTORE PUSH1 0x20 PUSH1 0x0 KECCAK256 SWAP1 JUMPDEST DUP2 SLOAD DUP2 MSTORE SWAP1 PUSH1 0x1 ADD SWAP1 PUSH1 0x20 ADD DUP1 DUP4 GT PUSH2 0x1833 JUMPI DUP3 SWAP1 SUB PUSH1 0x1F AND DUP3 ADD SWAP2 JUMPDEST POP POP POP POP PUSH1 0x3 DUP4 ADD SLOAD PUSH1 0x4 DUP5 ADD SLOAD PUSH1 0x5 SWAP1 SWAP5 ADD SLOAD SWAP3 SWAP4 SWAP1 SWAP3 SWAP1 SWAP2 POP PUSH1 0xFF AND DUP7 JUMP JUMPDEST CALLER PUSH1 0x0 SWAP1 DUP2 MSTORE PUSH1 0x11 PUSH1 0x20 MSTORE PUSH1 0x40 SWAP1 KECCAK256 SLOAD PUSH1 0x1 PUSH1 0x1 PUSH1 0xA0 SHL SUB AND DUP1 PUSH2 0x18C8 JUMPI PUSH1 0x40 MLOAD PUSH3 0x461BCD PUSH1 0xE5 SHL DUP2 MSTORE PUSH1 0x20 PUSH1 0x4 DUP3 ADD MSTORE PUSH1 0xE PUSH1 0x24 DUP3 ADD MSTORE PUSH14 0x4E6F742064656C65676174696E67 PUSH1 0x90 SHL PUSH1 0x44 DUP3 ADD MSTORE PUSH1 0x64 ADD PUSH2 0x97F JUMP JUMPDEST CALLER PUSH1 0x0 DUP2 DUP2 MSTORE PUSH1 0x11 PUSH1 0x20 MSTORE PUSH1 0x40 DUP1 DUP3 KECCAK256 DUP1 SLOAD PUSH1 0x1 PUSH1 0x1 PUSH1 0xA0 SHL SUB NOT AND SWAP1 SSTORE MLOAD SWAP1 SWAP2 PUSH1 0x1 PUSH1 0x1 PUSH1 0xA0 SHL SUB DUP5 AND SWAP2 PUSH32 0x3134E8A2E6D97E929A7E54011EA5485D7D196DD5F0BA4D4EF95803E8E3FC257F SWAP1 DUP5 SWAP1 LOG4 POP JUMP JUMPDEST PUSH2 0x1924 PUSH2 0x20A8 JUMP JUMPDEST PUSH1 0x0 DUP3 DUP2 MSTORE PUSH1 0x12 PUSH1 0x20 MSTORE PUSH1 0x40 DUP2 KECCAK256 DUP1 SLOAD SWAP1 SWAP2 SUB PUSH2 0x1954 JUMPI PUSH1 0x40 MLOAD PUSH4 0x992F7AD PUSH1 0xE0 SHL DUP2 MSTORE PUSH1 0x4 ADD PUSH1 0x40 MLOAD DUP1 SWAP2 SUB SWAP1 REVERT JUMPDEST PUSH1 0x1 PUSH1 0xB DUP3 ADD SLOAD PUSH1 0xFF AND PUSH1 0x6 DUP2 GT ISZERO PUSH2 0x196F JUMPI PUSH2 0x196F PUSH2 0x22E2 JUMP JUMPDEST EQ PUSH2 0x198D JUMPI PUSH1 0x40 MLOAD PUSH4 0x7BECC13F PUSH1 0xE0 SHL DUP2 MSTORE PUSH1 0x4 ADD PUSH1 0x40 MLOAD DUP1 SWAP2 SUB SWAP1 REVERT JUMPDEST DUP1 PUSH1 0x9 ADD SLOAD TIMESTAMP GT ISZERO PUSH2 0x19B2 JUMPI PUSH1 0x40 MLOAD PUSH4 0x7BECC13F PUSH1 0xE0 SHL DUP2 MSTORE PUSH1 0x4 ADD PUSH1 0x40 MLOAD DUP1 SWAP2 SUB SWAP1 REVERT JUMPDEST CALLER PUSH1 0x0 SWAP1 DUP2 MSTORE PUSH1 0xC DUP3 ADD PUSH1 0x20 MSTORE PUSH1 0x40 SWAP1 KECCAK256 SLOAD PUSH1 0xFF AND ISZERO PUSH2 0x19E5 JUMPI PUSH1 0x40 MLOAD PUSH4 0x7C9A1CF9 PUSH1 0xE0 SHL DUP2 MSTORE PUSH1 0x4 ADD PUSH1 0x40 MLOAD DUP1 SWAP2 SUB SWAP1 REVERT JUMPDEST CALLER PUSH1 0x0 SWAP1 DUP2 MSTORE PUSH1 0x11 PUSH1 0x20 MSTORE PUSH1 0x40 SWAP1 KECCAK256 SLOAD PUSH1 0x1 PUSH1 0x1 PUSH1 0xA0 SHL SUB AND ISZERO PUSH2 0x1A1C JUMPI PUSH1 0x40 MLOAD PUSH4 0x1A30C08D PUSH1 0xE3 SHL DUP2 MSTORE PUSH1 0x4 ADD PUSH1 0x40 MLOAD DUP1 SWAP2 SUB SWAP1 REVERT JUMPDEST CALLER PUSH1 0x0 SWAP1 DUP2 MSTORE PUSH1 0x1A PUSH1 0x20 MSTORE PUSH1 0x40 SWAP1 KECCAK256 SLOAD PUSH1 0xFF AND PUSH2 0x1A61 JUMPI CALLER PUSH1 0x0 SWAP1 DUP2 MSTORE PUSH1 0x1A PUSH1 0x20 MSTORE PUSH1 0x40 DUP2 KECCAK256 DUP1 SLOAD PUSH1 0xFF NOT AND PUSH1 0x1 OR SWAP1 SSTORE PUSH1 0xC DUP1 SLOAD SWAP2 PUSH2 0x1A5B DUP4 PUSH2 0x27FA JUMP JUMPDEST SWAP2 SWAP1 POP SSTORE POP JUMPDEST CALLER PUSH1 0x0 SWAP1 DUP2 MSTORE PUSH1 0xD PUSH1 0x20 DUP2 DUP2 MSTORE PUSH1 0x40 DUP1 DUP5 KECCAK256 TIMESTAMP SWAP1 SSTORE PUSH1 0xC DUP6 ADD DUP3 MSTORE DUP1 DUP5 KECCAK256 DUP1 SLOAD PUSH1 0x1 PUSH1 0xFF NOT SWAP2 DUP3 AND DUP2 OR SWAP1 SWAP3 SSTORE SWAP4 DUP7 ADD SWAP1 SWAP3 MSTORE SWAP1 SWAP3 KECCAK256 DUP1 SLOAD DUP6 SWAP4 SWAP2 SWAP3 AND SWAP1 DUP4 PUSH1 0x2 DUP2 GT ISZERO PUSH2 0x1AB1 JUMPI PUSH2 0x1AB1 PUSH2 0x22E2 JUMP JUMPDEST MUL OR SWAP1 SSTORE POP PUSH1 0x1 DUP3 PUSH1 0x2 DUP2 GT ISZERO PUSH2 0x1ACA JUMPI PUSH2 0x1ACA PUSH2 0x22E2 JUMP JUMPDEST SUB PUSH2 0x1AEB JUMPI PUSH1 0x5 DUP2 ADD DUP1 SLOAD SWAP1 PUSH1 0x0 PUSH2 0x1AE1 DUP4 PUSH2 0x27FA JUMP JUMPDEST SWAP2 SWAP1 POP SSTORE POP PUSH2 0x1B2E JUMP JUMPDEST PUSH1 0x0 DUP3 PUSH1 0x2 DUP2 GT ISZERO PUSH2 0x1AFF JUMPI PUSH2 0x1AFF PUSH2 0x22E2 JUMP JUMPDEST SUB PUSH2 0x1B16 JUMPI PUSH1 0x6 DUP2 ADD DUP1 SLOAD SWAP1 PUSH1 0x0 PUSH2 0x1AE1 DUP4 PUSH2 0x27FA JUMP JUMPDEST PUSH1 0x7 DUP2 ADD DUP1 SLOAD SWAP1 PUSH1 0x0 PUSH2 0x1B28 DUP4 PUSH2 0x27FA JUMP JUMPDEST SWAP2 SWAP1 POP SSTORE POP JUMPDEST PUSH1 0x0 DUP4 DUP2 MSTORE PUSH1 0x15 PUSH1 0x20 SWAP1 DUP2 MSTORE PUSH1 0x40 DUP1 DUP4 KECCAK256 DUP1 SLOAD PUSH1 0x1 DUP2 ADD DUP3 SSTORE SWAP1 DUP5 MSTORE DUP3 DUP5 KECCAK256 ADD DUP1 SLOAD PUSH1 0x1 PUSH1 0x1 PUSH1 0xA0 SHL SUB NOT AND CALLER SWAP1 DUP2 OR SWAP1 SWAP2 SSTORE DUP4 MSTORE PUSH1 0x1B SWAP1 SWAP2 MSTORE DUP2 KECCAK256 DUP1 SLOAD SWAP2 PUSH2 0x1B76 DUP4 PUSH2 0x27FA JUMP JUMPDEST SWAP2 SWAP1 POP SSTORE POP PUSH2 0x1BB0 CALLER PUSH1 0x1 PUSH1 0x40 MLOAD DUP1 PUSH1 0x40 ADD PUSH1 0x40 MSTORE DUP1 PUSH1 0x11 DUP2 MSTORE PUSH1 0x20 ADD PUSH17 0x159BDD1959081BDB881C1C9BDC1BDCD85B PUSH1 0x7A SHL DUP2 MSTORE POP PUSH2 0x20CC JUMP JUMPDEST CALLER PUSH1 0x0 DUP2 DUP2 MSTORE PUSH1 0x1B PUSH1 0x20 MSTORE PUSH1 0x40 SWAP1 DUP2 SWAP1 KECCAK256 SLOAD SWAP1 MLOAD DUP6 SWAP2 PUSH32 0xB83D25C6A5D258561330739951487ACB4BD09BA5190B5D32C4F261817D906792 SWAP2 PUSH2 0x1BF3 SWAP2 DUP8 SWAP2 PUSH2 0x29D4 JUMP JUMPDEST PUSH1 0x40 MLOAD DUP1 SWAP2 SUB SWAP1 LOG3 POP POP POP JUMP JUMPDEST PUSH2 0x1C08 PUSH2 0x215C JUMP JUMPDEST PUSH2 0x1C3B DUP3 DUP3 PUSH1 0x40 MLOAD DUP1 PUSH1 0x40 ADD PUSH1 0x40 MSTORE DUP1 PUSH1 0x10 DUP2 MSTORE PUSH1 0x20 ADD PUSH16 0x20BBB0B93232B210313C9030B236B4B7 PUSH1 0x81 SHL DUP2 MSTORE POP PUSH2 0x20CC JUMP JUMPDEST POP POP JUMP JUMPDEST PUSH1 0x15 PUSH1 0x20 MSTORE DUP2 PUSH1 0x0 MSTORE PUSH1 0x40 PUSH1 0x0 KECCAK256 DUP2 DUP2 SLOAD DUP2 LT PUSH2 0x1C5B JUMPI PUSH1 0x0 DUP1 REVERT JUMPDEST PUSH1 0x0 SWAP2 DUP3 MSTORE PUSH1 0x20 SWAP1 SWAP2 KECCAK256 ADD SLOAD PUSH1 0x1 PUSH1 0x1 PUSH1 0xA0 SHL SUB AND SWAP2 POP DUP3 SWAP1 POP JUMP JUMPDEST PUSH1 0x0 DUP2 DUP2 MSTORE PUSH1 0x12 PUSH1 0x20 MSTORE PUSH1 0x40 DUP2 KECCAK256 DUP1 SLOAD PUSH1 0x1 DUP3 ADD SLOAD PUSH1 0x5 DUP4 ADD SLOAD PUSH1 0x6 DUP5 ADD SLOAD PUSH1 0x7 DUP6 ADD SLOAD PUSH1 0x9 DUP7 ADD SLOAD PUSH1 0xA DUP8 ADD SLOAD PUSH1 0xB DUP9 ADD SLOAD PUSH1 0x2 DUP10 ADD DUP1 SLOAD DUP12 SWAP11 DUP12 SWAP11 PUSH1 0x60 SWAP11 DUP12 SWAP11 DUP12 SWAP11 DUP15 SWAP11 DUP12 SWAP11 DUP12 SWAP11 DUP12 SWAP11 DUP12 SWAP11 DUP12 SWAP11 PUSH1 0x1 PUSH1 0x1 PUSH1 0xA0 SHL SUB DUP10 AND SWAP9 PUSH1 0xFF PUSH1 0x1 PUSH1 0xA0 SHL SWAP1 SWAP2 DIV DUP2 AND SWAP9 SWAP3 SWAP8 PUSH1 0x3 DUP14 ADD SWAP8 PUSH1 0x4 DUP15 ADD SWAP8 SWAP5 SWAP7 SWAP2 SWAP6 SWAP1 SWAP5 SWAP4 SWAP2 SWAP3 AND SWAP1 DUP10 SWAP1 PUSH2 0x1D01 SWAP1 PUSH2 0x2791 JUMP JUMPDEST DUP1 PUSH1 0x1F ADD PUSH1 0x20 DUP1 SWAP2 DIV MUL PUSH1 0x20 ADD PUSH1 0x40 MLOAD SWAP1 DUP2 ADD PUSH1 0x40 MSTORE DUP1 SWAP3 SWAP2 SWAP1 DUP2 DUP2 MSTORE PUSH1 0x20 ADD DUP3 DUP1 SLOAD PUSH2 0x1D2D SWAP1 PUSH2 0x2791 JUMP JUMPDEST DUP1 ISZERO PUSH2 0x1D7A JUMPI DUP1 PUSH1 0x1F LT PUSH2 0x1D4F JUMPI PUSH2 0x100 DUP1 DUP4 SLOAD DIV MUL DUP4 MSTORE SWAP2 PUSH1 0x20 ADD SWAP2 PUSH2 0x1D7A JUMP JUMPDEST DUP3 ADD SWAP2 SWAP1 PUSH1 0x0 MSTORE PUSH1 0x20 PUSH1 0x0 KECCAK256 SWAP1 JUMPDEST DUP2 SLOAD DUP2 MSTORE SWAP1 PUSH1 0x1 ADD SWAP1 PUSH1 0x20 ADD DUP1 DUP4 GT PUSH2 0x1D5D JUMPI DUP3 SWAP1 SUB PUSH1 0x1F AND DUP3 ADD SWAP2 JUMPDEST POP POP POP POP POP SWAP9 POP DUP8 DUP1 SLOAD PUSH2 0x1D8D SWAP1 PUSH2 0x2791 JUMP JUMPDEST DUP1 PUSH1 0x1F ADD PUSH1 0x20 DUP1 SWAP2 DIV MUL PUSH1 0x20 ADD PUSH1 0x40 MLOAD SWAP1 DUP2 ADD PUSH1 0x40 MSTORE DUP1 SWAP3 SWAP2 SWAP1 DUP2 DUP2 MSTORE PUSH1 0x20 ADD DUP3 DUP1 SLOAD PUSH2 0x1DB9 SWAP1 PUSH2 0x2791 JUMP JUMPDEST DUP1 ISZERO PUSH2 0x1E06 JUMPI DUP1 PUSH1 0x1F LT PUSH2 0x1DDB JUMPI PUSH2 0x100 DUP1 DUP4 SLOAD DIV MUL DUP4 MSTORE SWAP2 PUSH1 0x20 ADD SWAP2 PUSH2 0x1E06 JUMP JUMPDEST DUP3 ADD SWAP2 SWAP1 PUSH1 0x0 MSTORE PUSH1 0x20 PUSH1 0x0 KECCAK256 SWAP1 JUMPDEST DUP2 SLOAD DUP2 MSTORE SWAP1 PUSH1 0x1 ADD SWAP1 PUSH1 0x20 ADD DUP1 DUP4 GT PUSH2 0x1DE9 JUMPI DUP3 SWAP1 SUB PUSH1 0x1F AND DUP3 ADD SWAP2 JUMPDEST POP POP POP POP POP SWAP8 POP DUP7 DUP1 SLOAD PUSH2 0x1E19 SWAP1 PUSH2 0x2791 JUMP JUMPDEST DUP1 PUSH1 0x1F ADD PUSH1 0x20 DUP1 SWAP2 DIV MUL PUSH1 0x20 ADD PUSH1 0x40 MLOAD SWAP1 DUP2 ADD PUSH1 0x40 MSTORE DUP1 SWAP3 SWAP2 SWAP1 DUP2 DUP2 MSTORE PUSH1 0x20 ADD DUP3 DUP1 SLOAD PUSH2 0x1E45 SWAP1 PUSH2 0x2791 JUMP JUMPDEST DUP1 ISZERO PUSH2 0x1E92 JUMPI DUP1 PUSH1 0x1F LT PUSH2 0x1E67 JUMPI PUSH2 0x100 DUP1 DUP4 SLOAD DIV MUL DUP4 MSTORE SWAP2 PUSH1 0x20 ADD SWAP2 PUSH2 0x1E92 JUMP JUMPDEST DUP3 ADD SWAP2 SWAP1 PUSH1 0x0 MSTORE PUSH1 0x20 PUSH1 0x0 KECCAK256 SWAP1 JUMPDEST DUP2 SLOAD DUP2 MSTORE SWAP1 PUSH1 0x1 ADD SWAP1 PUSH1 0x20 ADD DUP1 DUP4 GT PUSH2 0x1E75 JUMPI DUP3 SWAP1 SUB PUSH1 0x1F AND DUP3 ADD SWAP2 JUMPDEST POP POP POP POP POP SWAP7 POP SWAP13 POP SWAP13 POP SWAP13 POP SWAP13 POP SWAP13 POP SWAP13 POP SWAP13 POP SWAP13 POP SWAP13 POP SWAP13 POP SWAP13 POP SWAP13 POP POP SWAP2 SWAP4 SWAP6 SWAP8 SWAP10 SWAP12 POP SWAP2 SWAP4 SWAP6 SWAP8 SWAP10 SWAP12 JUMP JUMPDEST PUSH1 0x18 DUP2 DUP2 SLOAD DUP2 LT PUSH2 0xFBE JUMPI PUSH1 0x0 DUP1 REVERT JUMPDEST PUSH2 0x1ED9 PUSH2 0x215C JUMP JUMPDEST SELFBALANCE DUP1 PUSH2 0x1F12 JUMPI PUSH1 0x40 MLOAD PUSH3 0x461BCD PUSH1 0xE5 SHL DUP2 MSTORE PUSH1 0x20 PUSH1 0x4 DUP3 ADD MSTORE PUSH1 0x8 PUSH1 0x24 DUP3 ADD MSTORE PUSH8 0x4E6F2066756E6473 PUSH1 0xC0 SHL PUSH1 0x44 DUP3 ADD MSTORE PUSH1 0x64 ADD PUSH2 0x97F JUMP JUMPDEST PUSH1 0x0 DUP1 SLOAD PUSH1 0x40 MLOAD PUSH1 0x1 PUSH1 0x1 PUSH1 0xA0 SHL SUB SWAP1 SWAP2 AND SWAP1 DUP4 SWAP1 DUP4 DUP2 DUP2 DUP2 DUP6 DUP8 GAS CALL SWAP3 POP POP POP RETURNDATASIZE DUP1 PUSH1 0x0 DUP2 EQ PUSH2 0x1F5F JUMPI PUSH1 0x40 MLOAD SWAP2 POP PUSH1 0x1F NOT PUSH1 0x3F RETURNDATASIZE ADD AND DUP3 ADD PUSH1 0x40 MSTORE RETURNDATASIZE DUP3 MSTORE RETURNDATASIZE PUSH1 0x0 PUSH1 0x20 DUP5 ADD RETURNDATACOPY PUSH2 0x1F64 JUMP JUMPDEST PUSH1 0x60 SWAP2 POP JUMPDEST POP POP SWAP1 POP DUP1 PUSH2 0x1C3B JUMPI PUSH1 0x40 MLOAD PUSH3 0x461BCD PUSH1 0xE5 SHL DUP2 MSTORE PUSH1 0x20 PUSH1 0x4 DUP3 ADD MSTORE PUSH1 0x11 PUSH1 0x24 DUP3 ADD MSTORE PUSH17 0x15DA5D1A191C985DD85B0819985A5B1959 PUSH1 0x7A SHL PUSH1 0x44 DUP3 ADD MSTORE PUSH1 0x64 ADD PUSH2 0x97F JUMP JUMPDEST PUSH1 0x0 DUP2 DUP2 MSTORE PUSH1 0x12 PUSH1 0x20 MSTORE PUSH1 0x40 SWAP1 KECCAK256 PUSH1 0x1 DUP2 ADD SLOAD PUSH1 0x1 PUSH1 0x1 PUSH1 0xA0 SHL SUB AND CALLER EQ DUP1 ISZERO SWAP1 PUSH2 0x1FDF JUMPI POP PUSH1 0x0 SLOAD PUSH1 0x1 PUSH1 0x1 PUSH1 0xA0 SHL SUB AND CALLER EQ ISZERO JUMPDEST ISZERO PUSH2 0x1FFC JUMPI PUSH1 0x40 MLOAD PUSH3 0x82B429 PUSH1 0xE8 SHL DUP2 MSTORE PUSH1 0x4 ADD PUSH1 0x40 MLOAD DUP1 SWAP2 SUB SWAP1 REVERT JUMPDEST PUSH1 0x1 PUSH1 0xB DUP3 ADD SLOAD PUSH1 0xFF AND PUSH1 0x6 DUP2 GT ISZERO PUSH2 0x2017 JUMPI PUSH2 0x2017 PUSH2 0x22E2 JUMP JUMPDEST EQ ISZERO DUP1 ISZERO PUSH2 0x203E JUMPI POP PUSH1 0x0 PUSH1 0xB DUP3 ADD SLOAD PUSH1 0xFF AND PUSH1 0x6 DUP2 GT ISZERO PUSH2 0x203B JUMPI PUSH2 0x203B PUSH2 0x22E2 JUMP JUMPDEST EQ ISZERO JUMPDEST ISZERO PUSH2 0x205C JUMPI PUSH1 0x40 MLOAD PUSH4 0x992F7AD PUSH1 0xE0 SHL DUP2 MSTORE PUSH1 0x4 ADD PUSH1 0x40 MLOAD DUP1 SWAP2 SUB SWAP1 REVERT JUMPDEST PUSH1 0xB ADD DUP1 SLOAD PUSH1 0xFF NOT AND PUSH1 0x6 OR SWAP1 SSTORE POP JUMP JUMPDEST PUSH2 0x2075 PUSH2 0x215C JUMP JUMPDEST PUSH1 0x1 PUSH1 0x1 PUSH1 0xA0 SHL SUB DUP2 AND PUSH2 0x209F JUMPI PUSH1 0x40 MLOAD PUSH4 0x1E4FBDF7 PUSH1 0xE0 SHL DUP2 MSTORE PUSH1 0x0 PUSH1 0x4 DUP3 ADD MSTORE PUSH1 0x24 ADD PUSH2 0x97F JUMP JUMPDEST PUSH2 0x11C7 DUP2 PUSH2 0x21DB JUMP JUMPDEST PUSH1 0x2 SLOAD PUSH1 0xFF AND ISZERO PUSH2 0xB49 JUMPI PUSH1 0x40 MLOAD PUSH4 0xD93C0665 PUSH1 0xE0 SHL DUP2 MSTORE PUSH1 0x4 ADD PUSH1 0x40 MLOAD DUP1 SWAP2 SUB SWAP1 REVERT JUMPDEST PUSH1 0x1 PUSH1 0x1 PUSH1 0xA0 SHL SUB DUP4 AND PUSH1 0x0 SWAP1 DUP2 MSTORE PUSH1 0xF PUSH1 0x20 MSTORE PUSH1 0x40 DUP2 KECCAK256 SLOAD PUSH2 0x20F0 SWAP1 DUP5 SWAP1 PUSH2 0x27E1 JUMP JUMPDEST SWAP1 POP PUSH2 0x2710 DUP2 GT ISZERO PUSH2 0x2101 JUMPI POP PUSH2 0x2710 JUMPDEST PUSH1 0x1 PUSH1 0x1 PUSH1 0xA0 SHL SUB DUP5 AND PUSH1 0x0 DUP2 DUP2 MSTORE PUSH1 0xF PUSH1 0x20 MSTORE PUSH1 0x40 SWAP1 DUP2 SWAP1 KECCAK256 DUP4 SWAP1 SSTORE MLOAD PUSH32 0x20D1203AD04AF96695A6DE2E92289C50B68BD139DE21FE5249B4BA5837FE297A SWAP1 PUSH2 0x214E SWAP1 DUP7 SWAP1 DUP7 SWAP1 PUSH2 0x29F2 JUMP JUMPDEST PUSH1 0x40 MLOAD DUP1 SWAP2 SUB SWAP1 LOG2 POP POP POP POP JUMP JUMPDEST PUSH1 0x0 SLOAD PUSH1 0x1 PUSH1 0x1 PUSH1 0xA0 SHL SUB AND CALLER EQ PUSH2 0xB49 JUMPI PUSH1 0x40 MLOAD PUSH4 0x118CDAA7 PUSH1 0xE0 SHL DUP2 MSTORE CALLER PUSH1 0x4 DUP3 ADD MSTORE PUSH1 0x24 ADD PUSH2 0x97F JUMP JUMPDEST PUSH2 0x2191 PUSH2 0x2268 JUMP JUMPDEST PUSH1 0x2 DUP1 SLOAD PUSH1 0xFF NOT AND SWAP1 SSTORE PUSH32 0x5DB9EE0A495BF2E6FF9C91A7834C1BA4FDD244A5E8AA4E537BD38AEAE4B073AA CALLER JUMPDEST PUSH1 0x40 MLOAD PUSH1 0x1 PUSH1 0x1 PUSH1 0xA0 SHL SUB SWAP1 SWAP2 AND DUP2 MSTORE PUSH1 0x20 ADD PUSH1 0x40 MLOAD DUP1 SWAP2 SUB SWAP1 LOG1 JUMP JUMPDEST PUSH1 0x0 DUP1 SLOAD PUSH1 0x1 PUSH1 0x1 PUSH1 0xA0 SHL SUB DUP4 DUP2 AND PUSH1 0x1 PUSH1 0x1 PUSH1 0xA0 SHL SUB NOT DUP4 AND DUP2 OR DUP5 SSTORE PUSH1 0x40 MLOAD SWAP2 SWAP1 SWAP3 AND SWAP3 DUP4 SWAP2 PUSH32 0x8BE0079C531659141344CD1FD0A4F28419497F9722A3DAAFE3B4186F6B6457E0 SWAP2 SWAP1 LOG3 POP POP JUMP JUMPDEST PUSH2 0x2233 PUSH2 0x20A8 JUMP JUMPDEST PUSH1 0x2 DUP1 SLOAD PUSH1 0xFF NOT AND PUSH1 0x1 OR SWAP1 SSTORE PUSH32 0x62E78CEA01BEE320CD4E420270B5EA74000D11B0C9F74754EBDBFC544B05A258 PUSH2 0x21BE CALLER SWAP1 JUMP JUMPDEST PUSH1 0x2 SLOAD PUSH1 0xFF AND PUSH2 0xB49 JUMPI PUSH1 0x40 MLOAD PUSH4 0x8DFC202B PUSH1 0xE0 SHL DUP2 MSTORE PUSH1 0x4 ADD PUSH1 0x40 MLOAD DUP1 SWAP2 SUB SWAP1 REVERT JUMPDEST DUP1 CALLDATALOAD PUSH1 0x1 PUSH1 0x1 PUSH1 0xA0 SHL SUB DUP2 AND DUP2 EQ PUSH2 0x22A2 JUMPI PUSH1 0x0 DUP1 REVERT JUMPDEST SWAP2 SWAP1 POP JUMP JUMPDEST PUSH1 0x0 PUSH1 0x20 DUP3 DUP5 SUB SLT ISZERO PUSH2 0x22B9 JUMPI PUSH1 0x0 DUP1 REVERT JUMPDEST PUSH2 0x22C2 DUP3 PUSH2 0x228B JUMP JUMPDEST SWAP4 SWAP3 POP POP POP JUMP JUMPDEST PUSH1 0x0 PUSH1 0x20 DUP3 DUP5 SUB SLT ISZERO PUSH2 0x22DB JUMPI PUSH1 0x0 DUP1 REVERT JUMPDEST POP CALLDATALOAD SWAP2 SWAP1 POP JUMP JUMPDEST PUSH4 0x4E487B71 PUSH1 0xE0 SHL PUSH1 0x0 MSTORE PUSH1 0x21 PUSH1 0x4 MSTORE PUSH1 0x24 PUSH1 0x0 REVERT JUMPDEST PUSH1 0x5 DUP2 LT PUSH2 0x2308 JUMPI PUSH2 0x2308 PUSH2 0x22E2 JUMP JUMPDEST SWAP1 MSTORE JUMP JUMPDEST PUSH1 0x0 DUP2 MLOAD DUP1 DUP5 MSTORE PUSH1 0x0 JUMPDEST DUP2 DUP2 LT ISZERO PUSH2 0x2332 JUMPI PUSH1 0x20 DUP2 DUP6 ADD DUP2 ADD MLOAD DUP7 DUP4 ADD DUP3 ADD MSTORE ADD PUSH2 0x2316 JUMP JUMPDEST POP PUSH1 0x0 PUSH1 0x20 DUP3 DUP7 ADD ADD MSTORE PUSH1 0x20 PUSH1 0x1F NOT PUSH1 0x1F DUP4 ADD AND DUP6 ADD ADD SWAP2 POP POP SWAP3 SWAP2 POP POP JUMP JUMPDEST PUSH1 0x7 DUP2 LT PUSH2 0x2308 JUMPI PUSH2 0x2308 PUSH2 0x22E2 JUMP JUMPDEST DUP15 DUP2 MSTORE PUSH1 0x1 PUSH1 0x1 PUSH1 0xA0 SHL SUB DUP15 AND PUSH1 0x20 DUP3 ADD MSTORE PUSH2 0x2381 PUSH1 0x40 DUP3 ADD DUP15 PUSH2 0x22F8 JUMP JUMPDEST PUSH2 0x1C0 PUSH1 0x60 DUP3 ADD MSTORE PUSH1 0x0 PUSH2 0x2399 PUSH2 0x1C0 DUP4 ADD DUP15 PUSH2 0x230C JUMP JUMPDEST DUP3 DUP2 SUB PUSH1 0x80 DUP5 ADD MSTORE PUSH2 0x23AB DUP2 DUP15 PUSH2 0x230C JUMP JUMPDEST SWAP1 POP DUP3 DUP2 SUB PUSH1 0xA0 DUP5 ADD MSTORE PUSH2 0x23BF DUP2 DUP14 PUSH2 0x230C JUMP JUMPDEST SWAP2 POP POP DUP10 PUSH1 0xC0 DUP4 ADD MSTORE DUP9 PUSH1 0xE0 DUP4 ADD MSTORE DUP8 PUSH2 0x100 DUP4 ADD MSTORE DUP7 PUSH2 0x120 DUP4 ADD MSTORE DUP6 PUSH2 0x140 DUP4 ADD MSTORE DUP5 PUSH2 0x160 DUP4 ADD MSTORE PUSH2 0x23F8 PUSH2 0x180 DUP4 ADD DUP6 PUSH2 0x2352 JUMP JUMPDEST DUP3 ISZERO ISZERO PUSH2 0x1A0 DUP4 ADD MSTORE SWAP16 SWAP15 POP POP POP POP POP POP POP POP POP POP POP POP POP POP POP JUMP JUMPDEST PUSH1 0x0 DUP1 PUSH1 0x40 DUP4 DUP6 SUB SLT ISZERO PUSH2 0x2427 JUMPI PUSH1 0x0 DUP1 REVERT JUMPDEST PUSH2 0x2430 DUP4 PUSH2 0x228B JUMP JUMPDEST SWAP5 PUSH1 0x20 SWAP4 SWAP1 SWAP4 ADD CALLDATALOAD SWAP4 POP POP POP JUMP JUMPDEST PUSH1 0x0 DUP1 PUSH1 0x0 DUP1 PUSH1 0x0 DUP1 PUSH1 0xC0 DUP8 DUP10 SUB SLT ISZERO PUSH2 0x2457 JUMPI PUSH1 0x0 DUP1 REVERT JUMPDEST POP POP DUP5 CALLDATALOAD SWAP7 PUSH1 0x20 DUP7 ADD CALLDATALOAD SWAP7 POP PUSH1 0x40 DUP7 ADD CALLDATALOAD SWAP6 PUSH1 0x60 DUP2 ADD CALLDATALOAD SWAP6 POP PUSH1 0x80 DUP2 ADD CALLDATALOAD SWAP5 POP PUSH1 0xA0 ADD CALLDATALOAD SWAP3 POP SWAP1 POP JUMP JUMPDEST PUSH1 0x0 PUSH2 0x120 DUP12 DUP4 MSTORE DUP1 PUSH1 0x20 DUP5 ADD MSTORE PUSH2 0x249B DUP2 DUP5 ADD DUP13 PUSH2 0x230C JUMP JUMPDEST SWAP1 POP DUP3 DUP2 SUB PUSH1 0x40 DUP5 ADD MSTORE PUSH2 0x24AF DUP2 DUP12 PUSH2 0x230C JUMP JUMPDEST SWAP1 POP DUP3 DUP2 SUB PUSH1 0x60 DUP5 ADD MSTORE PUSH2 0x24C3 DUP2 DUP11 PUSH2 0x230C JUMP JUMPDEST SWAP1 POP DUP3 DUP2 SUB PUSH1 0x80 DUP5 ADD MSTORE PUSH2 0x24D7 DUP2 DUP10 PUSH2 0x230C JUMP JUMPDEST PUSH1 0xA0 DUP5 ADD SWAP8 SWAP1 SWAP8 MSTORE POP POP PUSH1 0xC0 DUP2 ADD SWAP4 SWAP1 SWAP4 MSTORE SWAP1 ISZERO ISZERO PUSH1 0xE0 DUP4 ADD MSTORE PUSH2 0x100 SWAP1 SWAP2 ADD MSTORE SWAP6 SWAP5 POP POP POP POP POP JUMP JUMPDEST PUSH1 0x0 DUP1 DUP4 PUSH1 0x1F DUP5 ADD SLT PUSH2 0x2513 JUMPI PUSH1 0x0 DUP1 REVERT JUMPDEST POP DUP2 CALLDATALOAD PUSH8 0xFFFFFFFFFFFFFFFF DUP2 GT ISZERO PUSH2 0x252B JUMPI PUSH1 0x0 DUP1 REVERT JUMPDEST PUSH1 0x20 DUP4 ADD SWAP2 POP DUP4 PUSH1 0x20 DUP3 DUP6 ADD ADD GT ISZERO PUSH2 0x2543 JUMPI PUSH1 0x0 DUP1 REVERT JUMPDEST SWAP3 POP SWAP3 SWAP1 POP JUMP JUMPDEST DUP1 CALLDATALOAD DUP1 ISZERO ISZERO DUP2 EQ PUSH2 0x22A2 JUMPI PUSH1 0x0 DUP1 REVERT JUMPDEST PUSH1 0x0 DUP1 PUSH1 0x0 DUP1 PUSH1 0x0 DUP1 PUSH1 0x0 DUP1 PUSH1 0xA0 DUP10 DUP12 SUB SLT ISZERO PUSH2 0x2576 JUMPI PUSH1 0x0 DUP1 REVERT JUMPDEST DUP9 CALLDATALOAD PUSH1 0x5 DUP2 LT PUSH2 0x2585 JUMPI PUSH1 0x0 DUP1 REVERT JUMPDEST SWAP8 POP PUSH1 0x20 DUP10 ADD CALLDATALOAD PUSH8 0xFFFFFFFFFFFFFFFF DUP1 DUP3 GT ISZERO PUSH2 0x25A2 JUMPI PUSH1 0x0 DUP1 REVERT JUMPDEST PUSH2 0x25AE DUP13 DUP4 DUP14 ADD PUSH2 0x2501 JUMP JUMPDEST SWAP1 SWAP10 POP SWAP8 POP PUSH1 0x40 DUP12 ADD CALLDATALOAD SWAP2 POP DUP1 DUP3 GT ISZERO PUSH2 0x25C7 JUMPI PUSH1 0x0 DUP1 REVERT JUMPDEST PUSH2 0x25D3 DUP13 DUP4 DUP14 ADD PUSH2 0x2501 JUMP JUMPDEST SWAP1 SWAP8 POP SWAP6 POP PUSH1 0x60 DUP12 ADD CALLDATALOAD SWAP2 POP DUP1 DUP3 GT ISZERO PUSH2 0x25EC JUMPI PUSH1 0x0 DUP1 REVERT JUMPDEST POP PUSH2 0x25F9 DUP12 DUP3 DUP13 ADD PUSH2 0x2501 JUMP JUMPDEST SWAP1 SWAP5 POP SWAP3 POP PUSH2 0x260C SWAP1 POP PUSH1 0x80 DUP11 ADD PUSH2 0x254A JUMP JUMPDEST SWAP1 POP SWAP3 SWAP6 SWAP9 POP SWAP3 SWAP6 SWAP9 SWAP1 SWAP4 SWAP7 POP JUMP JUMPDEST PUSH1 0x0 DUP1 PUSH1 0x40 DUP4 DUP6 SUB SLT ISZERO PUSH2 0x262E JUMPI PUSH1 0x0 DUP1 REVERT JUMPDEST PUSH2 0x2637 DUP4 PUSH2 0x228B JUMP JUMPDEST SWAP2 POP PUSH2 0x2645 PUSH1 0x20 DUP5 ADD PUSH2 0x254A JUMP JUMPDEST SWAP1 POP SWAP3 POP SWAP3 SWAP1 POP JUMP JUMPDEST DUP7 DUP2 MSTORE PUSH1 0xC0 PUSH1 0x20 DUP3 ADD MSTORE PUSH1 0x0 PUSH2 0x2667 PUSH1 0xC0 DUP4 ADD DUP9 PUSH2 0x230C JUMP JUMPDEST DUP3 DUP2 SUB PUSH1 0x40 DUP5 ADD MSTORE PUSH2 0x2679 DUP2 DUP9 PUSH2 0x230C JUMP JUMPDEST PUSH1 0x60 DUP5 ADD SWAP7 SWAP1 SWAP7 MSTORE POP POP PUSH1 0x80 DUP2 ADD SWAP3 SWAP1 SWAP3 MSTORE ISZERO ISZERO PUSH1 0xA0 SWAP1 SWAP2 ADD MSTORE SWAP4 SWAP3 POP POP POP JUMP JUMPDEST PUSH1 0x0 DUP1 PUSH1 0x40 DUP4 DUP6 SUB SLT ISZERO PUSH2 0x26AD JUMPI PUSH1 0x0 DUP1 REVERT JUMPDEST DUP3 CALLDATALOAD SWAP2 POP PUSH1 0x20 DUP4 ADD CALLDATALOAD PUSH1 0x3 DUP2 LT PUSH2 0x26C3 JUMPI PUSH1 0x0 DUP1 REVERT JUMPDEST DUP1 SWAP2 POP POP SWAP3 POP SWAP3 SWAP1 POP JUMP JUMPDEST PUSH1 0x0 DUP1 PUSH1 0x40 DUP4 DUP6 SUB SLT ISZERO PUSH2 0x26E1 JUMPI PUSH1 0x0 DUP1 REVERT JUMPDEST POP POP DUP1 CALLDATALOAD SWAP3 PUSH1 0x20 SWAP1 SWAP2 ADD CALLDATALOAD SWAP2 POP JUMP JUMPDEST DUP13 DUP2 MSTORE PUSH1 0x1 PUSH1 0x1 PUSH1 0xA0 SHL SUB DUP13 AND PUSH1 0x20 DUP3 ADD MSTORE PUSH1 0x0 PUSH2 0x180 PUSH2 0x2714 PUSH1 0x40 DUP5 ADD DUP15 PUSH2 0x22F8 JUMP JUMPDEST DUP1 PUSH1 0x60 DUP5 ADD MSTORE PUSH2 0x2726 DUP2 DUP5 ADD DUP14 PUSH2 0x230C JUMP JUMPDEST SWAP1 POP DUP3 DUP2 SUB PUSH1 0x80 DUP5 ADD MSTORE PUSH2 0x273A DUP2 DUP13 PUSH2 0x230C JUMP JUMPDEST SWAP1 POP DUP3 DUP2 SUB PUSH1 0xA0 DUP5 ADD MSTORE PUSH2 0x274E DUP2 DUP12 PUSH2 0x230C JUMP JUMPDEST SWAP2 POP POP DUP8 PUSH1 0xC0 DUP4 ADD MSTORE DUP7 PUSH1 0xE0 DUP4 ADD MSTORE DUP6 PUSH2 0x100 DUP4 ADD MSTORE DUP5 PUSH2 0x120 DUP4 ADD MSTORE DUP4 PUSH2 0x140 DUP4 ADD MSTORE PUSH2 0x2780 PUSH2 0x160 DUP4 ADD DUP5 PUSH2 0x2352 JUMP JUMPDEST SWAP14 SWAP13 POP POP POP POP POP POP POP POP POP POP POP POP POP JUMP JUMPDEST PUSH1 0x1 DUP2 DUP2 SHR SWAP1 DUP3 AND DUP1 PUSH2 0x27A5 JUMPI PUSH1 0x7F DUP3 AND SWAP2 POP JUMPDEST PUSH1 0x20 DUP3 LT DUP2 SUB PUSH2 0x27C5 JUMPI PUSH4 0x4E487B71 PUSH1 0xE0 SHL PUSH1 0x0 MSTORE PUSH1 0x22 PUSH1 0x4 MSTORE PUSH1 0x24 PUSH1 0x0 REVERT JUMPDEST POP SWAP2 SWAP1 POP JUMP JUMPDEST PUSH4 0x4E487B71 PUSH1 0xE0 SHL PUSH1 0x0 MSTORE PUSH1 0x11 PUSH1 0x4 MSTORE PUSH1 0x24 PUSH1 0x0 REVERT JUMPDEST DUP1 DUP3 ADD DUP1 DUP3 GT ISZERO PUSH2 0x27F4 JUMPI PUSH2 0x27F4 PUSH2 0x27CB JUMP JUMPDEST SWAP3 SWAP2 POP POP JUMP JUMPDEST PUSH1 0x0 PUSH1 0x1 DUP3 ADD PUSH2 0x280C JUMPI PUSH2 0x280C PUSH2 0x27CB JUMP JUMPDEST POP PUSH1 0x1 ADD SWAP1 JUMP JUMPDEST PUSH1 0x80 DUP2 ADD PUSH2 0x2821 DUP3 DUP8 PUSH2 0x2352 JUMP JUMPDEST DUP5 PUSH1 0x20 DUP4 ADD MSTORE DUP4 PUSH1 0x40 DUP4 ADD MSTORE DUP3 PUSH1 0x60 DUP4 ADD MSTORE SWAP6 SWAP5 POP POP POP POP POP JUMP JUMPDEST PUSH4 0x4E487B71 PUSH1 0xE0 SHL PUSH1 0x0 MSTORE PUSH1 0x41 PUSH1 0x4 MSTORE PUSH1 0x24 PUSH1 0x0 REVERT JUMPDEST PUSH1 0x1F DUP3 GT ISZERO PUSH2 0x289C JUMPI PUSH1 0x0 DUP2 DUP2 MSTORE PUSH1 0x20 DUP2 KECCAK256 PUSH1 0x1F DUP6 ADD PUSH1 0x5 SHR DUP2 ADD PUSH1 0x20 DUP7 LT ISZERO PUSH2 0x2879 JUMPI POP DUP1 JUMPDEST PUSH1 0x1F DUP6 ADD PUSH1 0x5 SHR DUP3 ADD SWAP2 POP JUMPDEST DUP2 DUP2 LT ISZERO PUSH2 0x2898 JUMPI DUP3 DUP2 SSTORE PUSH1 0x1 ADD PUSH2 0x2885 JUMP JUMPDEST POP POP POP JUMPDEST POP POP POP JUMP JUMPDEST PUSH8 0xFFFFFFFFFFFFFFFF DUP4 GT ISZERO PUSH2 0x28B9 JUMPI PUSH2 0x28B9 PUSH2 0x283C JUMP JUMPDEST PUSH2 0x28CD DUP4 PUSH2 0x28C7 DUP4 SLOAD PUSH2 0x2791 JUMP JUMPDEST DUP4 PUSH2 0x2852 JUMP JUMPDEST PUSH1 0x0 PUSH1 0x1F DUP5 GT PUSH1 0x1 DUP2 EQ PUSH2 0x2901 JUMPI PUSH1 0x0 DUP6 ISZERO PUSH2 0x28E9 JUMPI POP DUP4 DUP3 ADD CALLDATALOAD JUMPDEST PUSH1 0x0 NOT PUSH1 0x3 DUP8 SWAP1 SHL SHR NOT AND PUSH1 0x1 DUP7 SWAP1 SHL OR DUP4 SSTORE PUSH2 0x295B JUMP JUMPDEST PUSH1 0x0 DUP4 DUP2 MSTORE PUSH1 0x20 SWAP1 KECCAK256 PUSH1 0x1F NOT DUP7 AND SWAP1 DUP4 JUMPDEST DUP3 DUP2 LT ISZERO PUSH2 0x2932 JUMPI DUP7 DUP6 ADD CALLDATALOAD DUP3 SSTORE PUSH1 0x20 SWAP5 DUP6 ADD SWAP5 PUSH1 0x1 SWAP1 SWAP3 ADD SWAP2 ADD PUSH2 0x2912 JUMP JUMPDEST POP DUP7 DUP3 LT ISZERO PUSH2 0x294F JUMPI PUSH1 0x0 NOT PUSH1 0xF8 DUP9 PUSH1 0x3 SHL AND SHR NOT DUP5 DUP8 ADD CALLDATALOAD AND DUP2 SSTORE JUMPDEST POP POP PUSH1 0x1 DUP6 PUSH1 0x1 SHL ADD DUP4 SSTORE JUMPDEST POP POP POP POP POP JUMP JUMPDEST PUSH1 0x40 DUP2 MSTORE DUP3 PUSH1 0x40 DUP3 ADD MSTORE DUP3 DUP5 PUSH1 0x60 DUP4 ADD CALLDATACOPY PUSH1 0x0 PUSH1 0x60 DUP5 DUP4 ADD ADD MSTORE PUSH1 0x0 PUSH1 0x60 PUSH1 0x1F NOT PUSH1 0x1F DUP7 ADD AND DUP4 ADD ADD SWAP1 POP DUP3 PUSH1 0x20 DUP4 ADD MSTORE SWAP5 SWAP4 POP POP POP POP JUMP JUMPDEST DUP1 DUP3 MUL DUP2 ISZERO DUP3 DUP3 DIV DUP5 EQ OR PUSH2 0x27F4 JUMPI PUSH2 0x27F4 PUSH2 0x27CB JUMP JUMPDEST PUSH1 0x0 DUP3 PUSH2 0x29CF JUMPI PUSH4 0x4E487B71 PUSH1 0xE0 SHL PUSH1 0x0 MSTORE PUSH1 0x12 PUSH1 0x4 MSTORE PUSH1 0x24 PUSH1 0x0 REVERT JUMPDEST POP DIV SWAP1 JUMP JUMPDEST PUSH1 0x40 DUP2 ADD PUSH1 0x3 DUP5 LT PUSH2 0x29E8 JUMPI PUSH2 0x29E8 PUSH2 0x22E2 JUMP JUMPDEST SWAP3 DUP2 MSTORE PUSH1 0x20 ADD MSTORE SWAP1 JUMP JUMPDEST DUP3 DUP2 MSTORE PUSH1 0x40 PUSH1 0x20 DUP3 ADD MSTORE PUSH1 0x0 PUSH2 0x2A0B PUSH1 0x40 DUP4 ADD DUP5 PUSH2 0x230C JUMP JUMPDEST SWAP5 SWAP4 POP POP POP POP JUMP INVALID LOG2 PUSH5 0x6970667358 0x22 SLT KECCAK256 CALLDATALOAD 0xDE 0xBA 0xC6 SWAP10 SWAP9 SWAP15 LT DUP5 0x1E DUP9 DUP15 0xE PUSH5 0x78E7C6D99B MSTORE8 SSTORE SWAP8 SLOAD ADDRESS SWAP8 PUSH32 0x86BC87FAD62164736F6C63430008140033000000000000000000000000000000 "},"methodIdentifiers":{"MAX_REPUTATION()":"d213c0f2","activeVoterWindow()":"e50be9e0","activeWeeklyTheme()":"d7c05ed6","awardReputation(address,uint256)":"96549436","cancelProposal(uint256)":"e0a8f6f5","communityProposals(uint256)":"d364fbb7","createProposal(uint8,string,string,string,bool)":"623bd3c4","currentWeek()":"06575c89","delegate(address)":"5c19a95c","delegates(address)":"587cde1e","discoveries(uint256)":"4d61ac31","discoveryCount()":"41dfd498","discoveryProposals(uint256)":"54cd9e8c","emergencyWithdraw()":"db2e21bc","executeProposal(uint256)":"0d61b519","executionDelay()":"8b257989","finalizeProposal(uint256)":"5652077c","getProposal(uint256)":"c7f758a8","incrementWeek()":"2813fe39","isQuorumReached(uint256)":"9079991f","isRegisteredVoter(address)":"da36cffe","knowledgeSharingProposals(uint256)":"696a21d2","lastVoteTime(address)":"00ae2524","minVotesRequired()":"403fb4a8","owner()":"8da5cb5b","pause()":"8456cb59","paused()":"5c975abb","proposalCount()":"da35c664","proposalThreshold()":"b58131b0","proposalVoters(uint256,uint256)":"ab89437c","proposals(uint256)":"013cf08b","quickVotePeriod()":"cfffa620","quorumPercentage()":"4fa76ec9","renounceOwnership()":"715018a6","setVerifiedResearcher(address,bool)":"70e2ee1c","totalVoterCount()":"6f71e065","transferOwnership(address)":"f2fde38b","undelegate()":"92ab89bb","unpause()":"3f4ba83a","updateGovernanceParams(uint256,uint256,uint256,uint256,uint256,uint256)":"4019bb51","userProposals(address,uint256)":"1b31527f","userReputation(address)":"e503bb05","userVoteCount(address)":"713cdaa8","verifiedResearchers(address)":"36f58e5f","vote(uint256,uint8)":"943e8216","votingPeriod()":"02a251a3","weeklyThemeProposals(uint256)":"6494fad9","weeklyThemes(uint256)":"922b8327"}}}}}