{"contracts/AstroDAO.sol":{"AstroDAO":{"abi":[{"inputs":[],"stateMutability":"nonpayable","type":"constructor"},{"inputs":[{"internalType":"address","name":"owner","type":"address"}],"name":"OwnableInvalidOwner","type":"error"},{"inputs":[{"internalType":"address","name":"account","type":"address"}],"name":"OwnableUnauthorizedAccount","type":"error"},{"inputs":[],"name":"ReentrancyGuardReentrantCall","type":"error"},{"anonymous":false,"inputs":[{"indexed":true,"internalType":"uint256","name":"proposalId","type":"uint256"},{"indexed":false,"internalType":"string","name":"title","type":"string"},{"indexed":false,"internalType":"string","name":"researcher","type":"string"}],"name":"DiscoverySubmitted","type":"event"},{"anonymous":false,"inputs":[{"indexed":true,"internalType":"address","name":"previousOwner","type":"address"},{"indexed":true,"internalType":"address","name":"newOwner","type":"address"}],"name":"OwnershipTransferred","type":"event"},{"anonymous":false,"inputs":[{"indexed":true,"internalType":"uint256","name":"proposalId","type":"uint256"},{"indexed":true,"internalType":"address","name":"proposer","type":"address"},{"indexed":false,"internalType":"enum AstroDAO.ProposalType","name":"proposalType","type":"uint8"},{"indexed":false,"internalType":"string","name":"title","type":"string"}],"name":"ProposalCreated","type":"event"},{"anonymous":false,"inputs":[{"indexed":true,"internalType":"uint256","name":"proposalId","type":"uint256"}],"name":"ProposalExecuted","type":"event"},{"anonymous":false,"inputs":[{"indexed":true,"internalType":"uint256","name":"proposalId","type":"uint256"},{"indexed":true,"internalType":"address","name":"voter","type":"address"},{"indexed":false,"internalType":"bool","name":"support","type":"bool"}],"name":"VoteCast","type":"event"},{"inputs":[{"internalType":"uint256","name":"","type":"uint256"}],"name":"allVoters","outputs":[{"internalType":"address","name":"","type":"address"}],"stateMutability":"view","type":"function"},{"inputs":[{"internalType":"enum AstroDAO.ProposalType","name":"_type","type":"uint8"},{"internalType":"string","name":"_title","type":"string"},{"internalType":"string","name":"_description","type":"string"},{"internalType":"string","name":"_ipfsHash","type":"string"}],"name":"createProposal","outputs":[{"internalType":"uint256","name":"","type":"uint256"}],"stateMutability":"nonpayable","type":"function"},{"inputs":[{"internalType":"uint256","name":"","type":"uint256"}],"name":"discoveries","outputs":[{"internalType":"uint256","name":"proposalId","type":"uint256"},{"internalType":"string","name":"discoveryTitle","type":"string"},{"internalType":"string","name":"researcherName","type":"string"},{"internalType":"string","name":"paperIPFS","type":"string"},{"internalType":"uint256","name":"votingScore","type":"uint256"},{"internalType":"uint256","name":"timestamp","type":"uint256"}],"stateMutability":"view","type":"function"},{"inputs":[{"internalType":"uint256","name":"","type":"uint256"}],"name":"discoveryProposals","outputs":[{"internalType":"uint256","name":"","type":"uint256"}],"stateMutability":"view","type":"function"},{"inputs":[{"internalType":"uint256","name":"_proposalId","type":"uint256"}],"name":"finalizeProposal","outputs":[],"stateMutability":"nonpayable","type":"function"},{"inputs":[],"name":"getKnowledgeSharingProposals","outputs":[{"internalType":"uint256[]","name":"","type":"uint256[]"}],"stateMutability":"view","type":"function"},{"inputs":[{"internalType":"uint256","name":"_proposalId","type":"uint256"}],"name":"getProposal","outputs":[{"internalType":"uint256","name":"id","type":"uint256"},{"internalType":"address","name":"proposer","type":"address"},{"internalType":"enum AstroDAO.ProposalType","name":"proposalType","type":"uint8"},{"internalType":"string","name":"title","type":"string"},{"internalType":"string","name":"description","type":"string"},{"internalType":"uint256","name":"votesFor","type":"uint256"},{"internalType":"uint256","name":"votesAgainst","type":"uint256"},{"internalType":"uint256","name":"endTime","type":"uint256"},{"internalType":"enum AstroDAO.ProposalStatus","name":"status","type":"uint8"}],"stateMutability":"view","type":"function"},{"inputs":[{"internalType":"uint256","name":"_proposalId","type":"uint256"}],"name":"getProposalVoters","outputs":[{"internalType":"address[]","name":"","type":"address[]"}],"stateMutability":"view","type":"function"},{"inputs":[{"internalType":"uint256","name":"_count","type":"uint256"}],"name":"getTopDiscoveries","outputs":[{"internalType":"uint256[]","name":"","type":"uint256[]"}],"stateMutability":"view","type":"function"},{"inputs":[],"name":"getTotalVoters","outputs":[{"internalType":"uint256","name":"","type":"uint256"}],"stateMutability":"view","type":"function"},{"inputs":[],"name":"getWeeklyTopics","outputs":[{"internalType":"uint256[]","name":"","type":"uint256[]"}],"stateMutability":"view","type":"function"},{"inputs":[{"internalType":"uint256","name":"_proposalId","type":"uint256"},{"internalType":"address","name":"_voter","type":"address"}],"name":"hasVoted","outputs":[{"internalType":"bool","name":"","type":"bool"}],"stateMutability":"view","type":"function"},{"inputs":[{"internalType":"address","name":"","type":"address"}],"name":"hasVotedEver","outputs":[{"internalType":"bool","name":"","type":"bool"}],"stateMutability":"view","type":"function"},{"inputs":[{"internalType":"uint256","name":"","type":"uint256"}],"name":"knowledgeSharingProposals","outputs":[{"internalType":"uint256","name":"","type":"uint256"}],"stateMutability":"view","type":"function"},{"inputs":[],"name":"owner","outputs":[{"internalType":"address","name":"","type":"address"}],"stateMutability":"view","type":"function"},{"inputs":[],"name":"proposalCount","outputs":[{"internalType":"uint256","name":"","type":"uint256"}],"stateMutability":"view","type":"function"},{"inputs":[{"internalType":"uint256","name":"","type":"uint256"},{"internalType":"uint256","name":"","type":"uint256"}],"name":"proposalVoters","outputs":[{"internalType":"address","name":"","type":"address"}],"stateMutability":"view","type":"function"},{"inputs":[{"internalType":"uint256","name":"","type":"uint256"}],"name":"proposals","outputs":[{"internalType":"uint256","name":"id","type":"uint256"},{"internalType":"address","name":"proposer","type":"address"},{"internalType":"enum AstroDAO.ProposalType","name":"proposalType","type":"uint8"},{"internalType":"string","name":"title","type":"string"},{"internalType":"string","name":"description","type":"string"},{"internalType":"string","name":"ipfsHash","type":"string"},{"internalType":"uint256","name":"votesFor","type":"uint256"},{"internalType":"uint256","name":"votesAgainst","type":"uint256"},{"internalType":"uint256","name":"startTime","type":"uint256"},{"internalType":"uint256","name":"endTime","type":"uint256"},{"internalType":"enum AstroDAO.ProposalStatus","name":"status","type":"uint8"},{"internalType":"bool","name":"executed","type":"bool"}],"stateMutability":"view","type":"function"},{"inputs":[],"name":"quorumPercentage","outputs":[{"internalType":"uint256","name":"","type":"uint256"}],"stateMutability":"view","type":"function"},{"inputs":[],"name":"renounceOwnership","outputs":[],"stateMutability":"nonpayable","type":"function"},{"inputs":[{"internalType":"string","name":"_title","type":"string"},{"internalType":"string","name":"_description","type":"string"},{"internalType":"string","name":"_researcherName","type":"string"},{"internalType":"string","name":"_paperIPFS","type":"string"}],"name":"submitDiscovery","outputs":[{"internalType":"uint256","name":"","type":"uint256"}],"stateMutability":"nonpayable","type":"function"},{"inputs":[{"internalType":"address","name":"newOwner","type":"address"}],"name":"transferOwnership","outputs":[],"stateMutability":"nonpayable","type":"function"},{"inputs":[{"internalType":"uint256","name":"_votingPeriod","type":"uint256"},{"internalType":"uint256","name":"_quorumPercentage","type":"uint256"}],"name":"updateParameters","outputs":[],"stateMutability":"nonpayable","type":"function"},{"inputs":[{"internalType":"uint256","name":"_proposalId","type":"uint256"},{"internalType":"bool","name":"_support","type":"bool"}],"name":"vote","outputs":[],"stateMutability":"nonpayable","type":"function"},{"inputs":[],"name":"votingPeriod","outputs":[{"internalType":"uint256","name":"","type":"uint256"}],"stateMutability":"view","type":"function"},{"inputs":[{"internalType":"uint256","name":"","type":"uint256"}],"name":"weeklyTopicProposals","outputs":[{"internalType":"uint256","name":"","type":"uint256"}],"stateMutability":"view","type":"function"}],"evm":{"bytecode":{"linkReferences":{},"object":"608060405262093a80600355600a60045534801561001c57600080fd5b50338061004357604051631e4fbdf760e01b81526000600482015260240160405180910390fd5b61004c81610056565b50600180556100a6565b600080546001600160a01b038381166001600160a01b0319831681178455604051919092169283917f8be0079c531659141344cd1fd0a4f28419497f9722a3daafe3b4186f6b6457e09190a35050565b611cb1806100b56000396000f3fe608060405234801561001057600080fd5b506004361061018e5760003560e01c80638147fc9a116100de578063ab89437c11610097578063cbcaca7211610071578063cbcaca72146103a8578063da35c664146103b0578063def8761b146103b9578063f2fde38b146103cc57600080fd5b8063ab89437c1461035a578063c7f758a81461036d578063c9d27afe1461039557600080fd5b80638147fc9a146102b557806385650674146102c85780638da5cb5b146102f357806396d54e41146103045780639732b21814610327578063a68f34f71461033a57600080fd5b80634fa76ec91161014b5780635941c441116101255780635941c4411461027f578063696a21d214610292578063715018a6146102a5578063793cf218146102ad57600080fd5b80634fa76ec91461025057806354cd9e8c146102595780635652077c1461026c57600080fd5b8063013cf08b1461019357806302a251a3146101c757806316128211146101de57806343859632146101f35780634d61ac31146102165780634f8ad3511461023b575b600080fd5b6101a66101a1366004611573565b6103df565b6040516101be9c9b9a99989796959493929190611606565b60405180910390f35b6101d060035481565b6040519081526020016101be565b6101f16101ec3660046116ad565b6105e9565b005b6102066102013660046116eb565b6105fc565b60405190151581526020016101be565b610229610224366004611573565b61062c565b6040516101be96959493929190611717565b6102436107f9565b6040516101be919061176c565b6101d060045481565b6101d0610267366004611573565b610851565b6101f161027a366004611573565b610872565b6101d061028d366004611853565b6109d0565b6101d06102a0366004611573565b610aba565b6101f1610aca565b600b546101d0565b6102436102c3366004611573565b610ade565b6102db6102d6366004611573565b610d10565b6040516001600160a01b0390911681526020016101be565b6000546001600160a01b03166102db565b610206610312366004611900565b600c6020526000908152604090205460ff1681565b6101d0610335366004611922565b610d3a565b61034d610348366004611573565b610f45565b6040516101be9190611964565b6102db6103683660046116ad565b610fb1565b61038061037b366004611573565b610fe9565b6040516101be999897969594939291906119a5565b6101f16103a3366004611a24565b61118c565b610243611452565b6101d060025481565b6101d06103c7366004611573565b6114a8565b6101f16103da366004611900565b6114b8565b60056020526000908152604090208054600182015460028301805492936001600160a01b03831693600160a01b90930460ff169290919061041f90611a59565b80601f016020809104026020016040519081016040528092919081815260200182805461044b90611a59565b80156104985780601f1061046d57610100808354040283529160200191610498565b820191906000526020600020905b81548152906001019060200180831161047b57829003601f168201915b5050505050908060030180546104ad90611a59565b80601f01602080910402602001604051908101604052809291908181526020018280546104d990611a59565b80156105265780601f106104fb57610100808354040283529160200191610526565b820191906000526020600020905b81548152906001019060200180831161050957829003601f168201915b50505050509080600401805461053b90611a59565b80601f016020809104026020016040519081016040528092919081815260200182805461056790611a59565b80156105b45780601f10610589576101008083540402835291602001916105b4565b820191906000526020600020905b81548152906001019060200180831161059757829003601f168201915b505050600584015460068501546007860154600887015460099097015495969295919450925060ff808216916101009004168c565b6105f16114f6565b600391909155600455565b60008281526005602090815260408083206001600160a01b0385168452600a0190915290205460ff165b92915050565b6006602052600090815260409020805460018201805491929161064e90611a59565b80601f016020809104026020016040519081016040528092919081815260200182805461067a90611a59565b80156106c75780601f1061069c576101008083540402835291602001916106c7565b820191906000526020600020905b8154815290600101906020018083116106aa57829003601f168201915b5050505050908060020180546106dc90611a59565b80601f016020809104026020016040519081016040528092919081815260200182805461070890611a59565b80156107555780601f1061072a57610100808354040283529160200191610755565b820191906000526020600020905b81548152906001019060200180831161073857829003601f168201915b50505050509080600301805461076a90611a59565b80601f016020809104026020016040519081016040528092919081815260200182805461079690611a59565b80156107e35780601f106107b8576101008083540402835291602001916107e3565b820191906000526020600020905b8154815290600101906020018083116107c657829003601f168201915b5050505050908060040154908060050154905086565b6060600880548060200260200160405190810160405280929190818152602001828054801561084757602002820191906000526020600020905b815481526020019060010190808311610833575b5050505050905090565b6009818154811061086157600080fd5b600091825260209091200154905081565b600081815260056020526040812080549091036108d05760405162461bcd60e51b8152602060048201526017602482015276141c9bdc1bdcd85b08191bd95cc81b9bdd08195e1a5cdd604a1b60448201526064015b60405180910390fd5b806008015442116109195760405162461bcd60e51b8152602060048201526013602482015272566f74696e67207374696c6c2061637469766560681b60448201526064016108c7565b6001600982015460ff1660048111156109345761093461158c565b146109755760405162461bcd60e51b8152602060048201526011602482015270105b1c9958591e48199a5b985b1a5e9959607a1b60448201526064016108c7565b60008160060154826005015461098b9190611aa9565b90506000811180156109a4575081600601548260050154115b156109bb5750600901805460ff1916600217905550565b60098201805460ff191660031790555b505050565b6000806109e06001878786610d3a565b6040805160c08101825282815260208082018a8152828401899052606083018890526000608084018190524260a08501528581526006909252929020815181559151929350916001820190610a359082611b0a565b5060408201516002820190610a4a9082611b0a565b5060608201516003820190610a5f9082611b0a565b506080820151816004015560a08201518160050155905050807f66189ae8c589fb36ff8dd983e7af2a48d602eac72064b026cb240d83ad5f37c58786604051610aa9929190611bca565b60405180910390a295945050505050565b600a818154811061086157600080fd5b610ad26114f6565b610adc6000611523565b565b6009546060908290811115610af257506009545b60008167ffffffffffffffff811115610b0d57610b0d6117b0565b604051908082528060200260200182016040528015610b36578160200160208202803683370190505b50905060008267ffffffffffffffff811115610b5457610b546117b0565b604051908082528060200260200182016040528015610b7d578160200160208202803683370190505b50905060005b600954811015610d0657600060098281548110610ba257610ba2611bf8565b600091825260208083209091015480835260069091526040822060040154909250905b86811015610cf057848181518110610bdf57610bdf611bf8565b6020026020010151821115610cde576000610bfb600189611c0e565b90505b81811115610c9a5785610c12600183611c0e565b81518110610c2257610c22611bf8565b6020026020010151868281518110610c3c57610c3c611bf8565b602090810291909101015286610c53600183611c0e565b81518110610c6357610c63611bf8565b6020026020010151878281518110610c7d57610c7d611bf8565b602090810291909101015280610c9281611c21565b915050610bfe565b5081858281518110610cae57610cae611bf8565b60200260200101818152505082868281518110610ccd57610ccd611bf8565b602002602001018181525050610cf0565b80610ce881611c38565b915050610bc5565b5050508080610cfe90611c38565b915050610b83565b5090949350505050565b600b8181548110610d2057600080fd5b6000918252602090912001546001600160a01b0316905081565b6002805460009182610d4b83611c38565b90915550506002546000818152600560205260409020818155600181018054336001600160a01b03198216811783558992916001600160a81b03191660ff60a01b1990911617600160a01b836004811115610da857610da861158c565b021790555060028101610dbb8782611b0a565b5060038101610dca8682611b0a565b5060048101610dd98582611b0a565b504260078201819055600354610dee91611aa9565b600882015560098101805460ff191660011790556000876004811115610e1657610e1661158c565b03610e5557600880546001810182556000919091527ff3f7a9fe364faab93b216da50a3214154f22a0a2b415b23a84c8169e8b636ee301829055610ef7565b6001876004811115610e6957610e6961158c565b03610ea857600980546001810182556000919091527f6e1540171b6c0c960b71a7020d9f60077f6af931a8bbf590da0223dacf75c7af01829055610ef7565b6002876004811115610ebc57610ebc61158c565b03610ef757600a80546001810182556000919091527fc65a7bb8d6351c1cf70c95a316cc6a92839c986682d98bc35f958f4883f9d2a8018290555b336001600160a01b0316827f8356bc5007056a642094f44da4e8e22469db3e8a36b5811c0f91f735f1491c798989604051610f33929190611c51565b60405180910390a35095945050505050565b600081815260076020908152604091829020805483518184028101840190945280845260609392830182828015610fa557602002820191906000526020600020905b81546001600160a01b03168152600190910190602001808311610f87575b50505050509050919050565b60076020528160005260406000208181548110610fcd57600080fd5b6000918252602090912001546001600160a01b03169150829050565b6000818152600560208190526040822080546001820154928201546006830154600884015460098501546002860180548998899860609889988b98899889988998959794966001600160a01b0381169660ff600160a01b909204821696909560038b01959094909390921690869061106090611a59565b80601f016020809104026020016040519081016040528092919081815260200182805461108c90611a59565b80156110d95780601f106110ae576101008083540402835291602001916110d9565b820191906000526020600020905b8154815290600101906020018083116110bc57829003601f168201915b505050505095508480546110ec90611a59565b80601f016020809104026020016040519081016040528092919081815260200182805461111890611a59565b80156111655780601f1061113a57610100808354040283529160200191611165565b820191906000526020600020905b81548152906001019060200180831161114857829003601f168201915b50505050509450995099509950995099509950995099509950509193959799909294969850565b600082815260056020526040812080549091036111e55760405162461bcd60e51b8152602060048201526017602482015276141c9bdc1bdcd85b08191bd95cc81b9bdd08195e1a5cdd604a1b60448201526064016108c7565b806008015442111561122f5760405162461bcd60e51b8152602060048201526013602482015272159bdd1a5b99c81c195c9a5bd908195b991959606a1b60448201526064016108c7565b336000908152600a8201602052604090205460ff16156112815760405162461bcd60e51b815260206004820152600d60248201526c105b1c9958591e481d9bdd1959609a1b60448201526064016108c7565b6001600982015460ff16600481111561129c5761129c61158c565b146112df5760405162461bcd60e51b815260206004820152601360248201527250726f706f73616c206e6f742061637469766560681b60448201526064016108c7565b336000818152600a830160209081526040808320805460ff19166001908117909155878452600783528184208054918201815584528284200180546001600160a01b03191685179055928252600c9052205460ff1661139557336000818152600c60205260408120805460ff19166001908117909155600b805491820181559091527f0175b7a638427703f0dbe7bb9bbf987a2551717b34e79f33b5b1008d1fa01db90180546001600160a01b03191690911790555b81156113bb5760018160050160008282546113b09190611aa9565b909155506113d69050565b60018160060160008282546113d09190611aa9565b90915550505b600180820154600160a01b900460ff1660048111156113f7576113f761158c565b036114145760058101546000848152600660205260409020600401555b6040518215158152339084907fe71fcdac32df1877c1700e7bda2a03157e20993363a28fc35ac495cefc76e4d49060200160405180910390a3505050565b6060600a8054806020026020016040519081016040528092919081815260200182805480156108475760200282019190600052602060002090815481526020019060010190808311610833575050505050905090565b6008818154811061086157600080fd5b6114c06114f6565b6001600160a01b0381166114ea57604051631e4fbdf760e01b8152600060048201526024016108c7565b6114f381611523565b50565b6000546001600160a01b03163314610adc5760405163118cdaa760e01b81523360048201526024016108c7565b600080546001600160a01b038381166001600160a01b0319831681178455604051919092169283917f8be0079c531659141344cd1fd0a4f28419497f9722a3daafe3b4186f6b6457e09190a35050565b60006020828403121561158557600080fd5b5035919050565b634e487b7160e01b600052602160045260246000fd5b600581106114f357634e487b7160e01b600052602160045260246000fd5b6000815180845260005b818110156115e6576020818501810151868301820152016115ca565b506000602082860101526020601f19601f83011685010191505092915050565b8c81526001600160a01b038c16602082015260006101806116268d6115a2565b8c604084015280606084015261163e8184018d6115c0565b90508281036080840152611652818c6115c0565b905082810360a0840152611666818b6115c0565b9150508760c08301528660e0830152856101008301528461012083015261168c846115a2565b836101408301528215156101608301529d9c50505050505050505050505050565b600080604083850312156116c057600080fd5b50508035926020909101359150565b80356001600160a01b03811681146116e657600080fd5b919050565b600080604083850312156116fe57600080fd5b8235915061170e602084016116cf565b90509250929050565b86815260c06020820152600061173060c08301886115c0565b828103604084015261174281886115c0565b9050828103606084015261175681876115c0565b6080840195909552505060a00152949350505050565b6020808252825182820181905260009190848201906040850190845b818110156117a457835183529284019291840191600101611788565b50909695505050505050565b634e487b7160e01b600052604160045260246000fd5b600082601f8301126117d757600080fd5b813567ffffffffffffffff808211156117f2576117f26117b0565b604051601f8301601f19908116603f0116810190828211818310171561181a5761181a6117b0565b8160405283815286602085880101111561183357600080fd5b836020870160208301376000602085830101528094505050505092915050565b6000806000806080858703121561186957600080fd5b843567ffffffffffffffff8082111561188157600080fd5b61188d888389016117c6565b955060208701359150808211156118a357600080fd5b6118af888389016117c6565b945060408701359150808211156118c557600080fd5b6118d1888389016117c6565b935060608701359150808211156118e757600080fd5b506118f4878288016117c6565b91505092959194509250565b60006020828403121561191257600080fd5b61191b826116cf565b9392505050565b6000806000806080858703121561193857600080fd5b84356005811061194757600080fd5b9350602085013567ffffffffffffffff808211156118a357600080fd5b6020808252825182820181905260009190848201906040850190845b818110156117a45783516001600160a01b031683529284019291840191600101611980565b8981526001600160a01b038916602082015260006101206119c58a6115a2565b8960408401528060608401526119dd8184018a6115c0565b905082810360808401526119f181896115c0565b9150508560a08301528460c08301528360e0830152611a0f836115a2565b826101008301529a9950505050505050505050565b60008060408385031215611a3757600080fd5b8235915060208301358015158114611a4e57600080fd5b809150509250929050565b600181811c90821680611a6d57607f821691505b602082108103611a8d57634e487b7160e01b600052602260045260246000fd5b50919050565b634e487b7160e01b600052601160045260246000fd5b8082018082111561062657610626611a93565b601f8211156109cb57600081815260208120601f850160051c81016020861015611ae35750805b601f850160051c820191505b81811015611b0257828155600101611aef565b505050505050565b815167ffffffffffffffff811115611b2457611b246117b0565b611b3881611b328454611a59565b84611abc565b602080601f831160018114611b6d5760008415611b555750858301515b600019600386901b1c1916600185901b178555611b02565b600085815260208120601f198616915b82811015611b9c57888601518255948401946001909101908401611b7d565b5085821015611bba5787850151600019600388901b60f8161c191681555b5050505050600190811b01905550565b604081526000611bdd60408301856115c0565b8281036020840152611bef81856115c0565b95945050505050565b634e487b7160e01b600052603260045260246000fd5b8181038181111561062657610626611a93565b600081611c3057611c30611a93565b506000190190565b600060018201611c4a57611c4a611a93565b5060010190565b611c5a836115a2565b828152604060208201526000611c7360408301846115c0565b94935050505056fea264697066735822122032fffbeb22d407603d44ee554d81e8b0ca711dcee946c98fb7ffd6840d1a291364736f6c63430008140033","opcodes":"PUSH1 0x80 PUSH1 0x40 MSTORE PUSH3 0x93A80 PUSH1 0x3 SSTORE PUSH1 0xA PUSH1 0x4 SSTORE CALLVALUE DUP1 ISZERO PUSH2 0x1C JUMPI PUSH1 0x0 DUP1 REVERT JUMPDEST POP CALLER DUP1 PUSH2 0x43 JUMPI PUSH1 0x40 MLOAD PUSH4 0x1E4FBDF7 PUSH1 0xE0 SHL DUP2 MSTORE PUSH1 0x0 PUSH1 0x4 DUP3 ADD MSTORE PUSH1 0x24 ADD PUSH1 0x40 MLOAD DUP1 SWAP2 SUB SWAP1 REVERT JUMPDEST PUSH2 0x4C DUP2 PUSH2 0x56 JUMP JUMPDEST POP PUSH1 0x1 DUP1 SSTORE PUSH2 0xA6 JUMP JUMPDEST PUSH1 0x0 DUP1 SLOAD PUSH1 0x1 PUSH1 0x1 PUSH1 0xA0 SHL SUB DUP4 DUP2 AND PUSH1 0x1 PUSH1 0x1 PUSH1 0xA0 SHL SUB NOT DUP4 AND DUP2 OR DUP5 SSTORE PUSH1 0x40 MLOAD SWAP2 SWAP1 SWAP3 AND SWAP3 DUP4 SWAP2 PUSH32 0x8BE0079C531659141344CD1FD0A4F28419497F9722A3DAAFE3B4186F6B6457E0 SWAP2 SWAP1 LOG3 POP POP JUMP JUMPDEST PUSH2 0x1CB1 DUP1 PUSH2 0xB5 PUSH1 0x0 CODECOPY PUSH1 0x0 RETURN INVALID PUSH1 0x80 PUSH1 0x40 MSTORE CALLVALUE DUP1 ISZERO PUSH2 0x10 JUMPI PUSH1 0x0 DUP1 REVERT JUMPDEST POP PUSH1 0x4 CALLDATASIZE LT PUSH2 0x18E JUMPI PUSH1 0x0 CALLDATALOAD PUSH1 0xE0 SHR DUP1 PUSH4 0x8147FC9A GT PUSH2 0xDE JUMPI DUP1 PUSH4 0xAB89437C GT PUSH2 0x97 JUMPI DUP1 PUSH4 0xCBCACA72 GT PUSH2 0x71 JUMPI DUP1 PUSH4 0xCBCACA72 EQ PUSH2 0x3A8 JUMPI DUP1 PUSH4 0xDA35C664 EQ PUSH2 0x3B0 JUMPI DUP1 PUSH4 0xDEF8761B EQ PUSH2 0x3B9 JUMPI DUP1 PUSH4 0xF2FDE38B EQ PUSH2 0x3CC JUMPI PUSH1 0x0 DUP1 REVERT JUMPDEST DUP1 PUSH4 0xAB89437C EQ PUSH2 0x35A JUMPI DUP1 PUSH4 0xC7F758A8 EQ PUSH2 0x36D JUMPI DUP1 PUSH4 0xC9D27AFE EQ PUSH2 0x395 JUMPI PUSH1 0x0 DUP1 REVERT JUMPDEST DUP1 PUSH4 0x8147FC9A EQ PUSH2 0x2B5 JUMPI DUP1 PUSH4 0x85650674 EQ PUSH2 0x2C8 JUMPI DUP1 PUSH4 0x8DA5CB5B EQ PUSH2 0x2F3 JUMPI DUP1 PUSH4 0x96D54E41 EQ PUSH2 0x304 JUMPI DUP1 PUSH4 0x9732B218 EQ PUSH2 0x327 JUMPI DUP1 PUSH4 0xA68F34F7 EQ PUSH2 0x33A JUMPI PUSH1 0x0 DUP1 REVERT JUMPDEST DUP1 PUSH4 0x4FA76EC9 GT PUSH2 0x14B JUMPI DUP1 PUSH4 0x5941C441 GT PUSH2 0x125 JUMPI DUP1 PUSH4 0x5941C441 EQ PUSH2 0x27F JUMPI DUP1 PUSH4 0x696A21D2 EQ PUSH2 0x292 JUMPI DUP1 PUSH4 0x715018A6 EQ PUSH2 0x2A5 JUMPI DUP1 PUSH4 0x793CF218 EQ PUSH2 0x2AD JUMPI PUSH1 0x0 DUP1 REVERT JUMPDEST DUP1 PUSH4 0x4FA76EC9 EQ PUSH2 0x250 JUMPI DUP1 PUSH4 0x54CD9E8C EQ PUSH2 0x259 JUMPI DUP1 PUSH4 0x5652077C EQ PUSH2 0x26C JUMPI PUSH1 0x0 DUP1 REVERT JUMPDEST DUP1 PUSH4 0x13CF08B EQ PUSH2 0x193 JUMPI DUP1 PUSH4 0x2A251A3 EQ PUSH2 0x1C7 JUMPI DUP1 PUSH4 0x16128211 EQ PUSH2 0x1DE JUMPI DUP1 PUSH4 0x43859632 EQ PUSH2 0x1F3 JUMPI DUP1 PUSH4 0x4D61AC31 EQ PUSH2 0x216 JUMPI DUP1 PUSH4 0x4F8AD351 EQ PUSH2 0x23B JUMPI JUMPDEST PUSH1 0x0 DUP1 REVERT JUMPDEST PUSH2 0x1A6 PUSH2 0x1A1 CALLDATASIZE PUSH1 0x4 PUSH2 0x1573 JUMP JUMPDEST PUSH2 0x3DF JUMP JUMPDEST PUSH1 0x40 MLOAD PUSH2 0x1BE SWAP13 SWAP12 SWAP11 SWAP10 SWAP9 SWAP8 SWAP7 SWAP6 SWAP5 SWAP4 SWAP3 SWAP2 SWAP1 PUSH2 0x1606 JUMP JUMPDEST PUSH1 0x40 MLOAD DUP1 SWAP2 SUB SWAP1 RETURN JUMPDEST PUSH2 0x1D0 PUSH1 0x3 SLOAD DUP2 JUMP JUMPDEST PUSH1 0x40 MLOAD SWAP1 DUP2 MSTORE PUSH1 0x20 ADD PUSH2 0x1BE JUMP JUMPDEST PUSH2 0x1F1 PUSH2 0x1EC CALLDATASIZE PUSH1 0x4 PUSH2 0x16AD JUMP JUMPDEST PUSH2 0x5E9 JUMP JUMPDEST STOP JUMPDEST PUSH2 0x206 PUSH2 0x201 CALLDATASIZE PUSH1 0x4 PUSH2 0x16EB JUMP JUMPDEST PUSH2 0x5FC JUMP JUMPDEST PUSH1 0x40 MLOAD SWAP1 ISZERO ISZERO DUP2 MSTORE PUSH1 0x20 ADD PUSH2 0x1BE JUMP JUMPDEST PUSH2 0x229 PUSH2 0x224 CALLDATASIZE PUSH1 0x4 PUSH2 0x1573 JUMP JUMPDEST PUSH2 0x62C JUMP JUMPDEST PUSH1 0x40 MLOAD PUSH2 0x1BE SWAP7 SWAP6 SWAP5 SWAP4 SWAP3 SWAP2 SWAP1 PUSH2 0x1717 JUMP JUMPDEST PUSH2 0x243 PUSH2 0x7F9 JUMP JUMPDEST PUSH1 0x40 MLOAD PUSH2 0x1BE SWAP2 SWAP1 PUSH2 0x176C JUMP JUMPDEST PUSH2 0x1D0 PUSH1 0x4 SLOAD DUP2 JUMP JUMPDEST PUSH2 0x1D0 PUSH2 0x267 CALLDATASIZE PUSH1 0x4 PUSH2 0x1573 JUMP JUMPDEST PUSH2 0x851 JUMP JUMPDEST PUSH2 0x1F1 PUSH2 0x27A CALLDATASIZE PUSH1 0x4 PUSH2 0x1573 JUMP JUMPDEST PUSH2 0x872 JUMP JUMPDEST PUSH2 0x1D0 PUSH2 0x28D CALLDATASIZE PUSH1 0x4 PUSH2 0x1853 JUMP JUMPDEST PUSH2 0x9D0 JUMP JUMPDEST PUSH2 0x1D0 PUSH2 0x2A0 CALLDATASIZE PUSH1 0x4 PUSH2 0x1573 JUMP JUMPDEST PUSH2 0xABA JUMP JUMPDEST PUSH2 0x1F1 PUSH2 0xACA JUMP JUMPDEST PUSH1 0xB SLOAD PUSH2 0x1D0 JUMP JUMPDEST PUSH2 0x243 PUSH2 0x2C3 CALLDATASIZE PUSH1 0x4 PUSH2 0x1573 JUMP JUMPDEST PUSH2 0xADE JUMP JUMPDEST PUSH2 0x2DB PUSH2 0x2D6 CALLDATASIZE PUSH1 0x4 PUSH2 0x1573 JUMP JUMPDEST PUSH2 0xD10 JUMP JUMPDEST PUSH1 0x40 MLOAD PUSH1 0x1 PUSH1 0x1 PUSH1 0xA0 SHL SUB SWAP1 SWAP2 AND DUP2 MSTORE PUSH1 0x20 ADD PUSH2 0x1BE JUMP JUMPDEST PUSH1 0x0 SLOAD PUSH1 0x1 PUSH1 0x1 PUSH1 0xA0 SHL SUB AND PUSH2 0x2DB JUMP JUMPDEST PUSH2 0x206 PUSH2 0x312 CALLDATASIZE PUSH1 0x4 PUSH2 0x1900 JUMP JUMPDEST PUSH1 0xC PUSH1 0x20 MSTORE PUSH1 0x0 SWAP1 DUP2 MSTORE PUSH1 0x40 SWAP1 KECCAK256 SLOAD PUSH1 0xFF AND DUP2 JUMP JUMPDEST PUSH2 0x1D0 PUSH2 0x335 CALLDATASIZE PUSH1 0x4 PUSH2 0x1922 JUMP JUMPDEST PUSH2 0xD3A JUMP JUMPDEST PUSH2 0x34D PUSH2 0x348 CALLDATASIZE PUSH1 0x4 PUSH2 0x1573 JUMP JUMPDEST PUSH2 0xF45 JUMP JUMPDEST PUSH1 0x40 MLOAD PUSH2 0x1BE SWAP2 SWAP1 PUSH2 0x1964 JUMP JUMPDEST PUSH2 0x2DB PUSH2 0x368 CALLDATASIZE PUSH1 0x4 PUSH2 0x16AD JUMP JUMPDEST PUSH2 0xFB1 JUMP JUMPDEST PUSH2 0x380 PUSH2 0x37B CALLDATASIZE PUSH1 0x4 PUSH2 0x1573 JUMP JUMPDEST PUSH2 0xFE9 JUMP JUMPDEST PUSH1 0x40 MLOAD PUSH2 0x1BE SWAP10 SWAP9 SWAP8 SWAP7 SWAP6 SWAP5 SWAP4 SWAP3 SWAP2 SWAP1 PUSH2 0x19A5 JUMP JUMPDEST PUSH2 0x1F1 PUSH2 0x3A3 CALLDATASIZE PUSH1 0x4 PUSH2 0x1A24 JUMP JUMPDEST PUSH2 0x118C JUMP JUMPDEST PUSH2 0x243 PUSH2 0x1452 JUMP JUMPDEST PUSH2 0x1D0 PUSH1 0x2 SLOAD DUP2 JUMP JUMPDEST PUSH2 0x1D0 PUSH2 0x3C7 CALLDATASIZE PUSH1 0x4 PUSH2 0x1573 JUMP JUMPDEST PUSH2 0x14A8 JUMP JUMPDEST PUSH2 0x1F1 PUSH2 0x3DA CALLDATASIZE PUSH1 0x4 PUSH2 0x1900 JUMP JUMPDEST PUSH2 0x14B8 JUMP JUMPDEST PUSH1 0x5 PUSH1 0x20 MSTORE PUSH1 0x0 SWAP1 DUP2 MSTORE PUSH1 0x40 SWAP1 KECCAK256 DUP1 SLOAD PUSH1 0x1 DUP3 ADD SLOAD PUSH1 0x2 DUP4 ADD DUP1 SLOAD SWAP3 SWAP4 PUSH1 0x1 PUSH1 0x1 PUSH1 0xA0 SHL SUB DUP4 AND SWAP4 PUSH1 0x1 PUSH1 0xA0 SHL SWAP1 SWAP4 DIV PUSH1 0xFF AND SWAP3 SWAP1 SWAP2 SWAP1 PUSH2 0x41F SWAP1 PUSH2 0x1A59 JUMP JUMPDEST DUP1 PUSH1 0x1F ADD PUSH1 0x20 DUP1 SWAP2 DIV MUL PUSH1 0x20 ADD PUSH1 0x40 MLOAD SWAP1 DUP2 ADD PUSH1 0x40 MSTORE DUP1 SWAP3 SWAP2 SWAP1 DUP2 DUP2 MSTORE PUSH1 0x20 ADD DUP3 DUP1 SLOAD PUSH2 0x44B SWAP1 PUSH2 0x1A59 JUMP JUMPDEST DUP1 ISZERO PUSH2 0x498 JUMPI DUP1 PUSH1 0x1F LT PUSH2 0x46D JUMPI PUSH2 0x100 DUP1 DUP4 SLOAD DIV MUL DUP4 MSTORE SWAP2 PUSH1 0x20 ADD SWAP2 PUSH2 0x498 JUMP JUMPDEST DUP3 ADD SWAP2 SWAP1 PUSH1 0x0 MSTORE PUSH1 0x20 PUSH1 0x0 KECCAK256 SWAP1 JUMPDEST DUP2 SLOAD DUP2 MSTORE SWAP1 PUSH1 0x1 ADD SWAP1 PUSH1 0x20 ADD DUP1 DUP4 GT PUSH2 0x47B JUMPI DUP3 SWAP1 SUB PUSH1 0x1F AND DUP3 ADD SWAP2 JUMPDEST POP POP POP POP POP SWAP1 DUP1 PUSH1 0x3 ADD DUP1 SLOAD PUSH2 0x4AD SWAP1 PUSH2 0x1A59 JUMP JUMPDEST DUP1 PUSH1 0x1F ADD PUSH1 0x20 DUP1 SWAP2 DIV MUL PUSH1 0x20 ADD PUSH1 0x40 MLOAD SWAP1 DUP2 ADD PUSH1 0x40 MSTORE DUP1 SWAP3 SWAP2 SWAP1 DUP2 DUP2 MSTORE PUSH1 0x20 ADD DUP3 DUP1 SLOAD PUSH2 0x4D9 SWAP1 PUSH2 0x1A59 JUMP JUMPDEST DUP1 ISZERO PUSH2 0x526 JUMPI DUP1 PUSH1 0x1F LT PUSH2 0x4FB JUMPI PUSH2 0x100 DUP1 DUP4 SLOAD DIV MUL DUP4 MSTORE SWAP2 PUSH1 0x20 ADD SWAP2 PUSH2 0x526 JUMP JUMPDEST DUP3 ADD SWAP2 SWAP1 PUSH1 0x0 MSTORE PUSH1 0x20 PUSH1 0x0 KECCAK256 SWAP1 JUMPDEST DUP2 SLOAD DUP2 MSTORE SWAP1 PUSH1 0x1 ADD SWAP1 PUSH1 0x20 ADD DUP1 DUP4 GT PUSH2 0x509 JUMPI DUP3 SWAP1 SUB PUSH1 0x1F AND DUP3 ADD SWAP2 JUMPDEST POP POP POP POP POP SWAP1 DUP1 PUSH1 0x4 ADD DUP1 SLOAD PUSH2 0x53B SWAP1 PUSH2 0x1A59 JUMP JUMPDEST DUP1 PUSH1 0x1F ADD PUSH1 0x20 DUP1 SWAP2 DIV MUL PUSH1 0x20 ADD PUSH1 0x40 MLOAD SWAP1 DUP2 ADD PUSH1 0x40 MSTORE DUP1 SWAP3 SWAP2 SWAP1 DUP2 DUP2 MSTORE PUSH1 0x20 ADD DUP3 DUP1 SLOAD PUSH2 0x567 SWAP1 PUSH2 0x1A59 JUMP JUMPDEST DUP1 ISZERO PUSH2 0x5B4 JUMPI DUP1 PUSH1 0x1F LT PUSH2 0x589 JUMPI PUSH2 0x100 DUP1 DUP4 SLOAD DIV MUL DUP4 MSTORE SWAP2 PUSH1 0x20 ADD SWAP2 PUSH2 0x5B4 JUMP JUMPDEST DUP3 ADD SWAP2 SWAP1 PUSH1 0x0 MSTORE PUSH1 0x20 PUSH1 0x0 KECCAK256 SWAP1 JUMPDEST DUP2 SLOAD DUP2 MSTORE SWAP1 PUSH1 0x1 ADD SWAP1 PUSH1 0x20 ADD DUP1 DUP4 GT PUSH2 0x597 JUMPI DUP3 SWAP1 SUB PUSH1 0x1F AND DUP3 ADD SWAP2 JUMPDEST POP POP POP PUSH1 0x5 DUP5 ADD SLOAD PUSH1 0x6 DUP6 ADD SLOAD PUSH1 0x7 DUP7 ADD SLOAD PUSH1 0x8 DUP8 ADD SLOAD PUSH1 0x9 SWAP1 SWAP8 ADD SLOAD SWAP6 SWAP7 SWAP3 SWAP6 SWAP2 SWAP5 POP SWAP3 POP PUSH1 0xFF DUP1 DUP3 AND SWAP2 PUSH2 0x100 SWAP1 DIV AND DUP13 JUMP JUMPDEST PUSH2 0x5F1 PUSH2 0x14F6 JUMP JUMPDEST PUSH1 0x3 SWAP2 SWAP1 SWAP2 SSTORE PUSH1 0x4 SSTORE JUMP JUMPDEST PUSH1 0x0 DUP3 DUP2 MSTORE PUSH1 0x5 PUSH1 0x20 SWAP1 DUP2 MSTORE PUSH1 0x40 DUP1 DUP4 KECCAK256 PUSH1 0x1 PUSH1 0x1 PUSH1 0xA0 SHL SUB DUP6 AND DUP5 MSTORE PUSH1 0xA ADD SWAP1 SWAP2 MSTORE SWAP1 KECCAK256 SLOAD PUSH1 0xFF AND JUMPDEST SWAP3 SWAP2 POP POP JUMP JUMPDEST PUSH1 0x6 PUSH1 0x20 MSTORE PUSH1 0x0 SWAP1 DUP2 MSTORE PUSH1 0x40 SWAP1 KECCAK256 DUP1 SLOAD PUSH1 0x1 DUP3 ADD DUP1 SLOAD SWAP2 SWAP3 SWAP2 PUSH2 0x64E SWAP1 PUSH2 0x1A59 JUMP JUMPDEST DUP1 PUSH1 0x1F ADD PUSH1 0x20 DUP1 SWAP2 DIV MUL PUSH1 0x20 ADD PUSH1 0x40 MLOAD SWAP1 DUP2 ADD PUSH1 0x40 MSTORE DUP1 SWAP3 SWAP2 SWAP1 DUP2 DUP2 MSTORE PUSH1 0x20 ADD DUP3 DUP1 SLOAD PUSH2 0x67A SWAP1 PUSH2 0x1A59 JUMP JUMPDEST DUP1 ISZERO PUSH2 0x6C7 JUMPI DUP1 PUSH1 0x1F LT PUSH2 0x69C JUMPI PUSH2 0x100 DUP1 DUP4 SLOAD DIV MUL DUP4 MSTORE SWAP2 PUSH1 0x20 ADD SWAP2 PUSH2 0x6C7 JUMP JUMPDEST DUP3 ADD SWAP2 SWAP1 PUSH1 0x0 MSTORE PUSH1 0x20 PUSH1 0x0 KECCAK256 SWAP1 JUMPDEST DUP2 SLOAD DUP2 MSTORE SWAP1 PUSH1 0x1 ADD SWAP1 PUSH1 0x20 ADD DUP1 DUP4 GT PUSH2 0x6AA JUMPI DUP3 SWAP1 SUB PUSH1 0x1F AND DUP3 ADD SWAP2 JUMPDEST POP POP POP POP POP SWAP1 DUP1 PUSH1 0x2 ADD DUP1 SLOAD PUSH2 0x6DC SWAP1 PUSH2 0x1A59 JUMP JUMPDEST DUP1 PUSH1 0x1F ADD PUSH1 0x20 DUP1 SWAP2 DIV MUL PUSH1 0x20 ADD PUSH1 0x40 MLOAD SWAP1 DUP2 ADD PUSH1 0x40 MSTORE DUP1 SWAP3 SWAP2 SWAP1 DUP2 DUP2 MSTORE PUSH1 0x20 ADD DUP3 DUP1 SLOAD PUSH2 0x708 SWAP1 PUSH2 0x1A59 JUMP JUMPDEST DUP1 ISZERO PUSH2 0x755 JUMPI DUP1 PUSH1 0x1F LT PUSH2 0x72A JUMPI PUSH2 0x100 DUP1 DUP4 SLOAD DIV MUL DUP4 MSTORE SWAP2 PUSH1 0x20 ADD SWAP2 PUSH2 0x755 JUMP JUMPDEST DUP3 ADD SWAP2 SWAP1 PUSH1 0x0 MSTORE PUSH1 0x20 PUSH1 0x0 KECCAK256 SWAP1 JUMPDEST DUP2 SLOAD DUP2 MSTORE SWAP1 PUSH1 0x1 ADD SWAP1 PUSH1 0x20 ADD DUP1 DUP4 GT PUSH2 0x738 JUMPI DUP3 SWAP1 SUB PUSH1 0x1F AND DUP3 ADD SWAP2 JUMPDEST POP POP POP POP POP SWAP1 DUP1 PUSH1 0x3 ADD DUP1 SLOAD PUSH2 0x76A SWAP1 PUSH2 0x1A59 JUMP JUMPDEST DUP1 PUSH1 0x1F ADD PUSH1 0x20 DUP1 SWAP2 DIV MUL PUSH1 0x20 ADD PUSH1 0x40 MLOAD SWAP1 DUP2 ADD PUSH1 0x40 MSTORE DUP1 SWAP3 SWAP2 SWAP1 DUP2 DUP2 MSTORE PUSH1 0x20 ADD DUP3 DUP1 SLOAD PUSH2 0x796 SWAP1 PUSH2 0x1A59 JUMP JUMPDEST DUP1 ISZERO PUSH2 0x7E3 JUMPI DUP1 PUSH1 0x1F LT PUSH2 0x7B8 JUMPI PUSH2 0x100 DUP1 DUP4 SLOAD DIV MUL DUP4 MSTORE SWAP2 PUSH1 0x20 ADD SWAP2 PUSH2 0x7E3 JUMP JUMPDEST DUP3 ADD SWAP2 SWAP1 PUSH1 0x0 MSTORE PUSH1 0x20 PUSH1 0x0 KECCAK256 SWAP1 JUMPDEST DUP2 SLOAD DUP2 MSTORE SWAP1 PUSH1 0x1 ADD SWAP1 PUSH1 0x20 ADD DUP1 DUP4 GT PUSH2 0x7C6 JUMPI DUP3 SWAP1 SUB PUSH1 0x1F AND DUP3 ADD SWAP2 JUMPDEST POP POP POP POP POP SWAP1 DUP1 PUSH1 0x4 ADD SLOAD SWAP1 DUP1 PUSH1 0x5 ADD SLOAD SWAP1 POP DUP7 JUMP JUMPDEST PUSH1 0x60 PUSH1 0x8 DUP1 SLOAD DUP1 PUSH1 0x20 MUL PUSH1 0x20 ADD PUSH1 0x40 MLOAD SWAP1 DUP2 ADD PUSH1 0x40 MSTORE DUP1 SWAP3 SWAP2 SWAP1 DUP2 DUP2 MSTORE PUSH1 0x20 ADD DUP3 DUP1 SLOAD DUP1 ISZERO PUSH2 0x847 JUMPI PUSH1 0x20 MUL DUP3 ADD SWAP2 SWAP1 PUSH1 0x0 MSTORE PUSH1 0x20 PUSH1 0x0 KECCAK256 SWAP1 JUMPDEST DUP2 SLOAD DUP2 MSTORE PUSH1 0x20 ADD SWAP1 PUSH1 0x1 ADD SWAP1 DUP1 DUP4 GT PUSH2 0x833 JUMPI JUMPDEST POP POP POP POP POP SWAP1 POP SWAP1 JUMP JUMPDEST PUSH1 0x9 DUP2 DUP2 SLOAD DUP2 LT PUSH2 0x861 JUMPI PUSH1 0x0 DUP1 REVERT JUMPDEST PUSH1 0x0 SWAP2 DUP3 MSTORE PUSH1 0x20 SWAP1 SWAP2 KECCAK256 ADD SLOAD SWAP1 POP DUP2 JUMP JUMPDEST PUSH1 0x0 DUP2 DUP2 MSTORE PUSH1 0x5 PUSH1 0x20 MSTORE PUSH1 0x40 DUP2 KECCAK256 DUP1 SLOAD SWAP1 SWAP2 SUB PUSH2 0x8D0 JUMPI PUSH1 0x40 MLOAD PUSH3 0x461BCD PUSH1 0xE5 SHL DUP2 MSTORE PUSH1 0x20 PUSH1 0x4 DUP3 ADD MSTORE PUSH1 0x17 PUSH1 0x24 DUP3 ADD MSTORE PUSH23 0x141C9BDC1BDCD85B08191BD95CC81B9BDD08195E1A5CDD PUSH1 0x4A SHL PUSH1 0x44 DUP3 ADD MSTORE PUSH1 0x64 ADD JUMPDEST PUSH1 0x40 MLOAD DUP1 SWAP2 SUB SWAP1 REVERT JUMPDEST DUP1 PUSH1 0x8 ADD SLOAD TIMESTAMP GT PUSH2 0x919 JUMPI PUSH1 0x40 MLOAD PUSH3 0x461BCD PUSH1 0xE5 SHL DUP2 MSTORE PUSH1 0x20 PUSH1 0x4 DUP3 ADD MSTORE PUSH1 0x13 PUSH1 0x24 DUP3 ADD MSTORE PUSH19 0x566F74696E67207374696C6C20616374697665 PUSH1 0x68 SHL PUSH1 0x44 DUP3 ADD MSTORE PUSH1 0x64 ADD PUSH2 0x8C7 JUMP JUMPDEST PUSH1 0x1 PUSH1 0x9 DUP3 ADD SLOAD PUSH1 0xFF AND PUSH1 0x4 DUP2 GT ISZERO PUSH2 0x934 JUMPI PUSH2 0x934 PUSH2 0x158C JUMP JUMPDEST EQ PUSH2 0x975 JUMPI PUSH1 0x40 MLOAD PUSH3 0x461BCD PUSH1 0xE5 SHL DUP2 MSTORE PUSH1 0x20 PUSH1 0x4 DUP3 ADD MSTORE PUSH1 0x11 PUSH1 0x24 DUP3 ADD MSTORE PUSH17 0x105B1C9958591E48199A5B985B1A5E9959 PUSH1 0x7A SHL PUSH1 0x44 DUP3 ADD MSTORE PUSH1 0x64 ADD PUSH2 0x8C7 JUMP JUMPDEST PUSH1 0x0 DUP2 PUSH1 0x6 ADD SLOAD DUP3 PUSH1 0x5 ADD SLOAD PUSH2 0x98B SWAP2 SWAP1 PUSH2 0x1AA9 JUMP JUMPDEST SWAP1 POP PUSH1 0x0 DUP2 GT DUP1 ISZERO PUSH2 0x9A4 JUMPI POP DUP2 PUSH1 0x6 ADD SLOAD DUP3 PUSH1 0x5 ADD SLOAD GT JUMPDEST ISZERO PUSH2 0x9BB JUMPI POP PUSH1 0x9 ADD DUP1 SLOAD PUSH1 0xFF NOT AND PUSH1 0x2 OR SWAP1 SSTORE POP JUMP JUMPDEST PUSH1 0x9 DUP3 ADD DUP1 SLOAD PUSH1 0xFF NOT AND PUSH1 0x3 OR SWAP1 SSTORE JUMPDEST POP POP POP JUMP JUMPDEST PUSH1 0x0 DUP1 PUSH2 0x9E0 PUSH1 0x1 DUP8 DUP8 DUP7 PUSH2 0xD3A JUMP JUMPDEST PUSH1 0x40 DUP1 MLOAD PUSH1 0xC0 DUP2 ADD DUP3 MSTORE DUP3 DUP2 MSTORE PUSH1 0x20 DUP1 DUP3 ADD DUP11 DUP2 MSTORE DUP3 DUP5 ADD DUP10 SWAP1 MSTORE PUSH1 0x60 DUP4 ADD DUP9 SWAP1 MSTORE PUSH1 0x0 PUSH1 0x80 DUP5 ADD DUP2 SWAP1 MSTORE TIMESTAMP PUSH1 0xA0 DUP6 ADD MSTORE DUP6 DUP2 MSTORE PUSH1 0x6 SWAP1 SWAP3 MSTORE SWAP3 SWAP1 KECCAK256 DUP2 MLOAD DUP2 SSTORE SWAP2 MLOAD SWAP3 SWAP4 POP SWAP2 PUSH1 0x1 DUP3 ADD SWAP1 PUSH2 0xA35 SWAP1 DUP3 PUSH2 0x1B0A JUMP JUMPDEST POP PUSH1 0x40 DUP3 ADD MLOAD PUSH1 0x2 DUP3 ADD SWAP1 PUSH2 0xA4A SWAP1 DUP3 PUSH2 0x1B0A JUMP JUMPDEST POP PUSH1 0x60 DUP3 ADD MLOAD PUSH1 0x3 DUP3 ADD SWAP1 PUSH2 0xA5F SWAP1 DUP3 PUSH2 0x1B0A JUMP JUMPDEST POP PUSH1 0x80 DUP3 ADD MLOAD DUP2 PUSH1 0x4 ADD SSTORE PUSH1 0xA0 DUP3 ADD MLOAD DUP2 PUSH1 0x5 ADD SSTORE SWAP1 POP POP DUP1 PUSH32 0x66189AE8C589FB36FF8DD983E7AF2A48D602EAC72064B026CB240D83AD5F37C5 DUP8 DUP7 PUSH1 0x40 MLOAD PUSH2 0xAA9 SWAP3 SWAP2 SWAP1 PUSH2 0x1BCA JUMP JUMPDEST PUSH1 0x40 MLOAD DUP1 SWAP2 SUB SWAP1 LOG2 SWAP6 SWAP5 POP POP POP POP POP JUMP JUMPDEST PUSH1 0xA DUP2 DUP2 SLOAD DUP2 LT PUSH2 0x861 JUMPI PUSH1 0x0 DUP1 REVERT JUMPDEST PUSH2 0xAD2 PUSH2 0x14F6 JUMP JUMPDEST PUSH2 0xADC PUSH1 0x0 PUSH2 0x1523 JUMP JUMPDEST JUMP JUMPDEST PUSH1 0x9 SLOAD PUSH1 0x60 SWAP1 DUP3 SWAP1 DUP2 GT ISZERO PUSH2 0xAF2 JUMPI POP PUSH1 0x9 SLOAD JUMPDEST PUSH1 0x0 DUP2 PUSH8 0xFFFFFFFFFFFFFFFF DUP2 GT ISZERO PUSH2 0xB0D JUMPI PUSH2 0xB0D PUSH2 0x17B0 JUMP JUMPDEST PUSH1 0x40 MLOAD SWAP1 DUP1 DUP3 MSTORE DUP1 PUSH1 0x20 MUL PUSH1 0x20 ADD DUP3 ADD PUSH1 0x40 MSTORE DUP1 ISZERO PUSH2 0xB36 JUMPI DUP2 PUSH1 0x20 ADD PUSH1 0x20 DUP3 MUL DUP1 CALLDATASIZE DUP4 CALLDATACOPY ADD SWAP1 POP JUMPDEST POP SWAP1 POP PUSH1 0x0 DUP3 PUSH8 0xFFFFFFFFFFFFFFFF DUP2 GT ISZERO PUSH2 0xB54 JUMPI PUSH2 0xB54 PUSH2 0x17B0 JUMP JUMPDEST PUSH1 0x40 MLOAD SWAP1 DUP1 DUP3 MSTORE DUP1 PUSH1 0x20 MUL PUSH1 0x20 ADD DUP3 ADD PUSH1 0x40 MSTORE DUP1 ISZERO PUSH2 0xB7D JUMPI DUP2 PUSH1 0x20 ADD PUSH1 0x20 DUP3 MUL DUP1 CALLDATASIZE DUP4 CALLDATACOPY ADD SWAP1 POP JUMPDEST POP SWAP1 POP PUSH1 0x0 JUMPDEST PUSH1 0x9 SLOAD DUP2 LT ISZERO PUSH2 0xD06 JUMPI PUSH1 0x0 PUSH1 0x9 DUP3 DUP2 SLOAD DUP2 LT PUSH2 0xBA2 JUMPI PUSH2 0xBA2 PUSH2 0x1BF8 JUMP JUMPDEST PUSH1 0x0 SWAP2 DUP3 MSTORE PUSH1 0x20 DUP1 DUP4 KECCAK256 SWAP1 SWAP2 ADD SLOAD DUP1 DUP4 MSTORE PUSH1 0x6 SWAP1 SWAP2 MSTORE PUSH1 0x40 DUP3 KECCAK256 PUSH1 0x4 ADD SLOAD SWAP1 SWAP3 POP SWAP1 JUMPDEST DUP7 DUP2 LT ISZERO PUSH2 0xCF0 JUMPI DUP5 DUP2 DUP2 MLOAD DUP2 LT PUSH2 0xBDF JUMPI PUSH2 0xBDF PUSH2 0x1BF8 JUMP JUMPDEST PUSH1 0x20 MUL PUSH1 0x20 ADD ADD MLOAD DUP3 GT ISZERO PUSH2 0xCDE JUMPI PUSH1 0x0 PUSH2 0xBFB PUSH1 0x1 DUP10 PUSH2 0x1C0E JUMP JUMPDEST SWAP1 POP JUMPDEST DUP2 DUP2 GT ISZERO PUSH2 0xC9A JUMPI DUP6 PUSH2 0xC12 PUSH1 0x1 DUP4 PUSH2 0x1C0E JUMP JUMPDEST DUP2 MLOAD DUP2 LT PUSH2 0xC22 JUMPI PUSH2 0xC22 PUSH2 0x1BF8 JUMP JUMPDEST PUSH1 0x20 MUL PUSH1 0x20 ADD ADD MLOAD DUP7 DUP3 DUP2 MLOAD DUP2 LT PUSH2 0xC3C JUMPI PUSH2 0xC3C PUSH2 0x1BF8 JUMP JUMPDEST PUSH1 0x20 SWAP1 DUP2 MUL SWAP2 SWAP1 SWAP2 ADD ADD MSTORE DUP7 PUSH2 0xC53 PUSH1 0x1 DUP4 PUSH2 0x1C0E JUMP JUMPDEST DUP2 MLOAD DUP2 LT PUSH2 0xC63 JUMPI PUSH2 0xC63 PUSH2 0x1BF8 JUMP JUMPDEST PUSH1 0x20 MUL PUSH1 0x20 ADD ADD MLOAD DUP8 DUP3 DUP2 MLOAD DUP2 LT PUSH2 0xC7D JUMPI PUSH2 0xC7D PUSH2 0x1BF8 JUMP JUMPDEST PUSH1 0x20 SWAP1 DUP2 MUL SWAP2 SWAP1 SWAP2 ADD ADD MSTORE DUP1 PUSH2 0xC92 DUP2 PUSH2 0x1C21 JUMP JUMPDEST SWAP2 POP POP PUSH2 0xBFE JUMP JUMPDEST POP DUP2 DUP6 DUP3 DUP2 MLOAD DUP2 LT PUSH2 0xCAE JUMPI PUSH2 0xCAE PUSH2 0x1BF8 JUMP JUMPDEST PUSH1 0x20 MUL PUSH1 0x20 ADD ADD DUP2 DUP2 MSTORE POP POP DUP3 DUP7 DUP3 DUP2 MLOAD DUP2 LT PUSH2 0xCCD JUMPI PUSH2 0xCCD PUSH2 0x1BF8 JUMP JUMPDEST PUSH1 0x20 MUL PUSH1 0x20 ADD ADD DUP2 DUP2 MSTORE POP POP PUSH2 0xCF0 JUMP JUMPDEST DUP1 PUSH2 0xCE8 DUP2 PUSH2 0x1C38 JUMP JUMPDEST SWAP2 POP POP PUSH2 0xBC5 JUMP JUMPDEST POP POP POP DUP1 DUP1 PUSH2 0xCFE SWAP1 PUSH2 0x1C38 JUMP JUMPDEST SWAP2 POP POP PUSH2 0xB83 JUMP JUMPDEST POP SWAP1 SWAP5 SWAP4 POP POP POP POP JUMP JUMPDEST PUSH1 0xB DUP2 DUP2 SLOAD DUP2 LT PUSH2 0xD20 JUMPI PUSH1 0x0 DUP1 REVERT JUMPDEST PUSH1 0x0 SWAP2 DUP3 MSTORE PUSH1 0x20 SWAP1 SWAP2 KECCAK256 ADD SLOAD PUSH1 0x1 PUSH1 0x1 PUSH1 0xA0 SHL SUB AND SWAP1 POP DUP2 JUMP JUMPDEST PUSH1 0x2 DUP1 SLOAD PUSH1 0x0 SWAP2 DUP3 PUSH2 0xD4B DUP4 PUSH2 0x1C38 JUMP JUMPDEST SWAP1 SWAP2 SSTORE POP POP PUSH1 0x2 SLOAD PUSH1 0x0 DUP2 DUP2 MSTORE PUSH1 0x5 PUSH1 0x20 MSTORE PUSH1 0x40 SWAP1 KECCAK256 DUP2 DUP2 SSTORE PUSH1 0x1 DUP2 ADD DUP1 SLOAD CALLER PUSH1 0x1 PUSH1 0x1 PUSH1 0xA0 SHL SUB NOT DUP3 AND DUP2 OR DUP4 SSTORE DUP10 SWAP3 SWAP2 PUSH1 0x1 PUSH1 0x1 PUSH1 0xA8 SHL SUB NOT AND PUSH1 0xFF PUSH1 0xA0 SHL NOT SWAP1 SWAP2 AND OR PUSH1 0x1 PUSH1 0xA0 SHL DUP4 PUSH1 0x4 DUP2 GT ISZERO PUSH2 0xDA8 JUMPI PUSH2 0xDA8 PUSH2 0x158C JUMP JUMPDEST MUL OR SWAP1 SSTORE POP PUSH1 0x2 DUP2 ADD PUSH2 0xDBB DUP8 DUP3 PUSH2 0x1B0A JUMP JUMPDEST POP PUSH1 0x3 DUP2 ADD PUSH2 0xDCA DUP7 DUP3 PUSH2 0x1B0A JUMP JUMPDEST POP PUSH1 0x4 DUP2 ADD PUSH2 0xDD9 DUP6 DUP3 PUSH2 0x1B0A JUMP JUMPDEST POP TIMESTAMP PUSH1 0x7 DUP3 ADD DUP2 SWAP1 SSTORE PUSH1 0x3 SLOAD PUSH2 0xDEE SWAP2 PUSH2 0x1AA9 JUMP JUMPDEST PUSH1 0x8 DUP3 ADD SSTORE PUSH1 0x9 DUP2 ADD DUP1 SLOAD PUSH1 0xFF NOT AND PUSH1 0x1 OR SWAP1 SSTORE PUSH1 0x0 DUP8 PUSH1 0x4 DUP2 GT ISZERO PUSH2 0xE16 JUMPI PUSH2 0xE16 PUSH2 0x158C JUMP JUMPDEST SUB PUSH2 0xE55 JUMPI PUSH1 0x8 DUP1 SLOAD PUSH1 0x1 DUP2 ADD DUP3 SSTORE PUSH1 0x0 SWAP2 SWAP1 SWAP2 MSTORE PUSH32 0xF3F7A9FE364FAAB93B216DA50A3214154F22A0A2B415B23A84C8169E8B636EE3 ADD DUP3 SWAP1 SSTORE PUSH2 0xEF7 JUMP JUMPDEST PUSH1 0x1 DUP8 PUSH1 0x4 DUP2 GT ISZERO PUSH2 0xE69 JUMPI PUSH2 0xE69 PUSH2 0x158C JUMP JUMPDEST SUB PUSH2 0xEA8 JUMPI PUSH1 0x9 DUP1 SLOAD PUSH1 0x1 DUP2 ADD DUP3 SSTORE PUSH1 0x0 SWAP2 SWAP1 SWAP2 MSTORE PUSH32 0x6E1540171B6C0C960B71A7020D9F60077F6AF931A8BBF590DA0223DACF75C7AF ADD DUP3 SWAP1 SSTORE PUSH2 0xEF7 JUMP JUMPDEST PUSH1 0x2 DUP8 PUSH1 0x4 DUP2 GT ISZERO PUSH2 0xEBC JUMPI PUSH2 0xEBC PUSH2 0x158C JUMP JUMPDEST SUB PUSH2 0xEF7 JUMPI PUSH1 0xA DUP1 SLOAD PUSH1 0x1 DUP2 ADD DUP3 SSTORE PUSH1 0x0 SWAP2 SWAP1 SWAP2 MSTORE PUSH32 0xC65A7BB8D6351C1CF70C95A316CC6A92839C986682D98BC35F958F4883F9D2A8 ADD DUP3 SWAP1 SSTORE JUMPDEST CALLER PUSH1 0x1 PUSH1 0x1 PUSH1 0xA0 SHL SUB AND DUP3 PUSH32 0x8356BC5007056A642094F44DA4E8E22469DB3E8A36B5811C0F91F735F1491C79 DUP10 DUP10 PUSH1 0x40 MLOAD PUSH2 0xF33 SWAP3 SWAP2 SWAP1 PUSH2 0x1C51 JUMP JUMPDEST PUSH1 0x40 MLOAD DUP1 SWAP2 SUB SWAP1 LOG3 POP SWAP6 SWAP5 POP POP POP POP POP JUMP JUMPDEST PUSH1 0x0 DUP2 DUP2 MSTORE PUSH1 0x7 PUSH1 0x20 SWAP1 DUP2 MSTORE PUSH1 0x40 SWAP2 DUP3 SWAP1 KECCAK256 DUP1 SLOAD DUP4 MLOAD DUP2 DUP5 MUL DUP2 ADD DUP5 ADD SWAP1 SWAP5 MSTORE DUP1 DUP5 MSTORE PUSH1 0x60 SWAP4 SWAP3 DUP4 ADD DUP3 DUP3 DUP1 ISZERO PUSH2 0xFA5 JUMPI PUSH1 0x20 MUL DUP3 ADD SWAP2 SWAP1 PUSH1 0x0 MSTORE PUSH1 0x20 PUSH1 0x0 KECCAK256 SWAP1 JUMPDEST DUP2 SLOAD PUSH1 0x1 PUSH1 0x1 PUSH1 0xA0 SHL SUB AND DUP2 MSTORE PUSH1 0x1 SWAP1 SWAP2 ADD SWAP1 PUSH1 0x20 ADD DUP1 DUP4 GT PUSH2 0xF87 JUMPI JUMPDEST POP POP POP POP POP SWAP1 POP SWAP2 SWAP1 POP JUMP JUMPDEST PUSH1 0x7 PUSH1 0x20 MSTORE DUP2 PUSH1 0x0 MSTORE PUSH1 0x40 PUSH1 0x0 KECCAK256 DUP2 DUP2 SLOAD DUP2 LT PUSH2 0xFCD JUMPI PUSH1 0x0 DUP1 REVERT JUMPDEST PUSH1 0x0 SWAP2 DUP3 MSTORE PUSH1 0x20 SWAP1 SWAP2 KECCAK256 ADD SLOAD PUSH1 0x1 PUSH1 0x1 PUSH1 0xA0 SHL SUB AND SWAP2 POP DUP3 SWAP1 POP JUMP JUMPDEST PUSH1 0x0 DUP2 DUP2 MSTORE PUSH1 0x5 PUSH1 0x20 DUP2 SWAP1 MSTORE PUSH1 0x40 DUP3 KECCAK256 DUP1 SLOAD PUSH1 0x1 DUP3 ADD SLOAD SWAP3 DUP3 ADD SLOAD PUSH1 0x6 DUP4 ADD SLOAD PUSH1 0x8 DUP5 ADD SLOAD PUSH1 0x9 DUP6 ADD SLOAD PUSH1 0x2 DUP7 ADD DUP1 SLOAD DUP10 SWAP9 DUP10 SWAP9 PUSH1 0x60 SWAP9 DUP10 SWAP9 DUP12 SWAP9 DUP10 SWAP9 DUP10 SWAP9 DUP10 SWAP9 SWAP6 SWAP8 SWAP5 SWAP7 PUSH1 0x1 PUSH1 0x1 PUSH1 0xA0 SHL SUB DUP2 AND SWAP7 PUSH1 0xFF PUSH1 0x1 PUSH1 0xA0 SHL SWAP1 SWAP3 DIV DUP3 AND SWAP7 SWAP1 SWAP6 PUSH1 0x3 DUP12 ADD SWAP6 SWAP1 SWAP5 SWAP1 SWAP4 SWAP1 SWAP3 AND SWAP1 DUP7 SWAP1 PUSH2 0x1060 SWAP1 PUSH2 0x1A59 JUMP JUMPDEST DUP1 PUSH1 0x1F ADD PUSH1 0x20 DUP1 SWAP2 DIV MUL PUSH1 0x20 ADD PUSH1 0x40 MLOAD SWAP1 DUP2 ADD PUSH1 0x40 MSTORE DUP1 SWAP3 SWAP2 SWAP1 DUP2 DUP2 MSTORE PUSH1 0x20 ADD DUP3 DUP1 SLOAD PUSH2 0x108C SWAP1 PUSH2 0x1A59 JUMP JUMPDEST DUP1 ISZERO PUSH2 0x10D9 JUMPI DUP1 PUSH1 0x1F LT PUSH2 0x10AE JUMPI PUSH2 0x100 DUP1 DUP4 SLOAD DIV MUL DUP4 MSTORE SWAP2 PUSH1 0x20 ADD SWAP2 PUSH2 0x10D9 JUMP JUMPDEST DUP3 ADD SWAP2 SWAP1 PUSH1 0x0 MSTORE PUSH1 0x20 PUSH1 0x0 KECCAK256 SWAP1 JUMPDEST DUP2 SLOAD DUP2 MSTORE SWAP1 PUSH1 0x1 ADD SWAP1 PUSH1 0x20 ADD DUP1 DUP4 GT PUSH2 0x10BC JUMPI DUP3 SWAP1 SUB PUSH1 0x1F AND DUP3 ADD SWAP2 JUMPDEST POP POP POP POP POP SWAP6 POP DUP5 DUP1 SLOAD PUSH2 0x10EC SWAP1 PUSH2 0x1A59 JUMP JUMPDEST DUP1 PUSH1 0x1F ADD PUSH1 0x20 DUP1 SWAP2 DIV MUL PUSH1 0x20 ADD PUSH1 0x40 MLOAD SWAP1 DUP2 ADD PUSH1 0x40 MSTORE DUP1 SWAP3 SWAP2 SWAP1 DUP2 DUP2 MSTORE PUSH1 0x20 ADD DUP3 DUP1 SLOAD PUSH2 0x1118 SWAP1 PUSH2 0x1A59 JUMP JUMPDEST DUP1 ISZERO PUSH2 0x1165 JUMPI DUP1 PUSH1 0x1F LT PUSH2 0x113A JUMPI PUSH2 0x100 DUP1 DUP4 SLOAD DIV MUL DUP4 MSTORE SWAP2 PUSH1 0x20 ADD SWAP2 PUSH2 0x1165 JUMP JUMPDEST DUP3 ADD SWAP2 SWAP1 PUSH1 0x0 MSTORE PUSH1 0x20 PUSH1 0x0 KECCAK256 SWAP1 JUMPDEST DUP2 SLOAD DUP2 MSTORE SWAP1 PUSH1 0x1 ADD SWAP1 PUSH1 0x20 ADD DUP1 DUP4 GT PUSH2 0x1148 JUMPI DUP3 SWAP1 SUB PUSH1 0x1F AND DUP3 ADD SWAP2 JUMPDEST POP POP POP POP POP SWAP5 POP SWAP10 POP SWAP10 POP SWAP10 POP SWAP10 POP SWAP10 POP SWAP10 POP SWAP10 POP SWAP10 POP SWAP10 POP POP SWAP2 SWAP4 SWAP6 SWAP8 SWAP10 SWAP1 SWAP3 SWAP5 SWAP7 SWAP9 POP JUMP JUMPDEST PUSH1 0x0 DUP3 DUP2 MSTORE PUSH1 0x5 PUSH1 0x20 MSTORE PUSH1 0x40 DUP2 KECCAK256 DUP1 SLOAD SWAP1 SWAP2 SUB PUSH2 0x11E5 JUMPI PUSH1 0x40 MLOAD PUSH3 0x461BCD PUSH1 0xE5 SHL DUP2 MSTORE PUSH1 0x20 PUSH1 0x4 DUP3 ADD MSTORE PUSH1 0x17 PUSH1 0x24 DUP3 ADD MSTORE PUSH23 0x141C9BDC1BDCD85B08191BD95CC81B9BDD08195E1A5CDD PUSH1 0x4A SHL PUSH1 0x44 DUP3 ADD MSTORE PUSH1 0x64 ADD PUSH2 0x8C7 JUMP JUMPDEST DUP1 PUSH1 0x8 ADD SLOAD TIMESTAMP GT ISZERO PUSH2 0x122F JUMPI PUSH1 0x40 MLOAD PUSH3 0x461BCD PUSH1 0xE5 SHL DUP2 MSTORE PUSH1 0x20 PUSH1 0x4 DUP3 ADD MSTORE PUSH1 0x13 PUSH1 0x24 DUP3 ADD MSTORE PUSH19 0x159BDD1A5B99C81C195C9A5BD908195B991959 PUSH1 0x6A SHL PUSH1 0x44 DUP3 ADD MSTORE PUSH1 0x64 ADD PUSH2 0x8C7 JUMP JUMPDEST CALLER PUSH1 0x0 SWAP1 DUP2 MSTORE PUSH1 0xA DUP3 ADD PUSH1 0x20 MSTORE PUSH1 0x40 SWAP1 KECCAK256 SLOAD PUSH1 0xFF AND ISZERO PUSH2 0x1281 JUMPI PUSH1 0x40 MLOAD PUSH3 0x461BCD PUSH1 0xE5 SHL DUP2 MSTORE PUSH1 0x20 PUSH1 0x4 DUP3 ADD MSTORE PUSH1 0xD PUSH1 0x24 DUP3 ADD MSTORE PUSH13 0x105B1C9958591E481D9BDD1959 PUSH1 0x9A SHL PUSH1 0x44 DUP3 ADD MSTORE PUSH1 0x64 ADD PUSH2 0x8C7 JUMP JUMPDEST PUSH1 0x1 PUSH1 0x9 DUP3 ADD SLOAD PUSH1 0xFF AND PUSH1 0x4 DUP2 GT ISZERO PUSH2 0x129C JUMPI PUSH2 0x129C PUSH2 0x158C JUMP JUMPDEST EQ PUSH2 0x12DF JUMPI PUSH1 0x40 MLOAD PUSH3 0x461BCD PUSH1 0xE5 SHL DUP2 MSTORE PUSH1 0x20 PUSH1 0x4 DUP3 ADD MSTORE PUSH1 0x13 PUSH1 0x24 DUP3 ADD MSTORE PUSH19 0x50726F706F73616C206E6F7420616374697665 PUSH1 0x68 SHL PUSH1 0x44 DUP3 ADD MSTORE PUSH1 0x64 ADD PUSH2 0x8C7 JUMP JUMPDEST CALLER PUSH1 0x0 DUP2 DUP2 MSTORE PUSH1 0xA DUP4 ADD PUSH1 0x20 SWAP1 DUP2 MSTORE PUSH1 0x40 DUP1 DUP4 KECCAK256 DUP1 SLOAD PUSH1 0xFF NOT AND PUSH1 0x1 SWAP1 DUP2 OR SWAP1 SWAP2 SSTORE DUP8 DUP5 MSTORE PUSH1 0x7 DUP4 MSTORE DUP2 DUP5 KECCAK256 DUP1 SLOAD SWAP2 DUP3 ADD DUP2 SSTORE DUP5 MSTORE DUP3 DUP5 KECCAK256 ADD DUP1 SLOAD PUSH1 0x1 PUSH1 0x1 PUSH1 0xA0 SHL SUB NOT AND DUP6 OR SWAP1 SSTORE SWAP3 DUP3 MSTORE PUSH1 0xC SWAP1 MSTORE KECCAK256 SLOAD PUSH1 0xFF AND PUSH2 0x1395 JUMPI CALLER PUSH1 0x0 DUP2 DUP2 MSTORE PUSH1 0xC PUSH1 0x20 MSTORE PUSH1 0x40 DUP2 KECCAK256 DUP1 SLOAD PUSH1 0xFF NOT AND PUSH1 0x1 SWAP1 DUP2 OR SWAP1 SWAP2 SSTORE PUSH1 0xB DUP1 SLOAD SWAP2 DUP3 ADD DUP2 SSTORE SWAP1 SWAP2 MSTORE PUSH32 0x175B7A638427703F0DBE7BB9BBF987A2551717B34E79F33B5B1008D1FA01DB9 ADD DUP1 SLOAD PUSH1 0x1 PUSH1 0x1 PUSH1 0xA0 SHL SUB NOT AND SWAP1 SWAP2 OR SWAP1 SSTORE JUMPDEST DUP2 ISZERO PUSH2 0x13BB JUMPI PUSH1 0x1 DUP2 PUSH1 0x5 ADD PUSH1 0x0 DUP3 DUP3 SLOAD PUSH2 0x13B0 SWAP2 SWAP1 PUSH2 0x1AA9 JUMP JUMPDEST SWAP1 SWAP2 SSTORE POP PUSH2 0x13D6 SWAP1 POP JUMP JUMPDEST PUSH1 0x1 DUP2 PUSH1 0x6 ADD PUSH1 0x0 DUP3 DUP3 SLOAD PUSH2 0x13D0 SWAP2 SWAP1 PUSH2 0x1AA9 JUMP JUMPDEST SWAP1 SWAP2 SSTORE POP POP JUMPDEST PUSH1 0x1 DUP1 DUP3 ADD SLOAD PUSH1 0x1 PUSH1 0xA0 SHL SWAP1 DIV PUSH1 0xFF AND PUSH1 0x4 DUP2 GT ISZERO PUSH2 0x13F7 JUMPI PUSH2 0x13F7 PUSH2 0x158C JUMP JUMPDEST SUB PUSH2 0x1414 JUMPI PUSH1 0x5 DUP2 ADD SLOAD PUSH1 0x0 DUP5 DUP2 MSTORE PUSH1 0x6 PUSH1 0x20 MSTORE PUSH1 0x40 SWAP1 KECCAK256 PUSH1 0x4 ADD SSTORE JUMPDEST PUSH1 0x40 MLOAD DUP3 ISZERO ISZERO DUP2 MSTORE CALLER SWAP1 DUP5 SWAP1 PUSH32 0xE71FCDAC32DF1877C1700E7BDA2A03157E20993363A28FC35AC495CEFC76E4D4 SWAP1 PUSH1 0x20 ADD PUSH1 0x40 MLOAD DUP1 SWAP2 SUB SWAP1 LOG3 POP POP POP JUMP JUMPDEST PUSH1 0x60 PUSH1 0xA DUP1 SLOAD DUP1 PUSH1 0x20 MUL PUSH1 0x20 ADD PUSH1 0x40 MLOAD SWAP1 DUP2 ADD PUSH1 0x40 MSTORE DUP1 SWAP3 SWAP2 SWAP1 DUP2 DUP2 MSTORE PUSH1 0x20 ADD DUP3 DUP1 SLOAD DUP1 ISZERO PUSH2 0x847 JUMPI PUSH1 0x20 MUL DUP3 ADD SWAP2 SWAP1 PUSH1 0x0 MSTORE PUSH1 0x20 PUSH1 0x0 KECCAK256 SWAP1 DUP2 SLOAD DUP2 MSTORE PUSH1 0x20 ADD SWAP1 PUSH1 0x1 ADD SWAP1 DUP1 DUP4 GT PUSH2 0x833 JUMPI POP POP POP POP POP SWAP1 POP SWAP1 JUMP JUMPDEST PUSH1 0x8 DUP2 DUP2 SLOAD DUP2 LT PUSH2 0x861 JUMPI PUSH1 0x0 DUP1 REVERT JUMPDEST PUSH2 0x14C0 PUSH2 0x14F6 JUMP JUMPDEST PUSH1 0x1 PUSH1 0x1 PUSH1 0xA0 SHL SUB DUP2 AND PUSH2 0x14EA JUMPI PUSH1 0x40 MLOAD PUSH4 0x1E4FBDF7 PUSH1 0xE0 SHL DUP2 MSTORE PUSH1 0x0 PUSH1 0x4 DUP3 ADD MSTORE PUSH1 0x24 ADD PUSH2 0x8C7 JUMP JUMPDEST PUSH2 0x14F3 DUP2 PUSH2 0x1523 JUMP JUMPDEST POP JUMP JUMPDEST PUSH1 0x0 SLOAD PUSH1 0x1 PUSH1 0x1 PUSH1 0xA0 SHL SUB AND CALLER EQ PUSH2 0xADC JUMPI PUSH1 0x40 MLOAD PUSH4 0x118CDAA7 PUSH1 0xE0 SHL DUP2 MSTORE CALLER PUSH1 0x4 DUP3 ADD MSTORE PUSH1 0x24 ADD PUSH2 0x8C7 JUMP JUMPDEST PUSH1 0x0 DUP1 SLOAD PUSH1 0x1 PUSH1 0x1 PUSH1 0xA0 SHL SUB DUP4 DUP2 AND PUSH1 0x1 PUSH1 0x1 PUSH1 0xA0 SHL SUB NOT DUP4 AND DUP2 OR DUP5 SSTORE PUSH1 0x40 MLOAD SWAP2 SWAP1 SWAP3 AND SWAP3 DUP4 SWAP2 PUSH32 0x8BE0079C531659141344CD1FD0A4F28419497F9722A3DAAFE3B4186F6B6457E0 SWAP2 SWAP1 LOG3 POP POP JUMP JUMPDEST PUSH1 0x0 PUSH1 0x20 DUP3 DUP5 SUB SLT ISZERO PUSH2 0x1585 JUMPI PUSH1 0x0 DUP1 REVERT JUMPDEST POP CALLDATALOAD SWAP2 SWAP1 POP JUMP JUMPDEST PUSH4 0x4E487B71 PUSH1 0xE0 SHL PUSH1 0x0 MSTORE PUSH1 0x21 PUSH1 0x4 MSTORE PUSH1 0x24 PUSH1 0x0 REVERT JUMPDEST PUSH1 0x5 DUP2 LT PUSH2 0x14F3 JUMPI PUSH4 0x4E487B71 PUSH1 0xE0 SHL PUSH1 0x0 MSTORE PUSH1 0x21 PUSH1 0x4 MSTORE PUSH1 0x24 PUSH1 0x0 REVERT JUMPDEST PUSH1 0x0 DUP2 MLOAD DUP1 DUP5 MSTORE PUSH1 0x0 JUMPDEST DUP2 DUP2 LT ISZERO PUSH2 0x15E6 JUMPI PUSH1 0x20 DUP2 DUP6 ADD DUP2 ADD MLOAD DUP7 DUP4 ADD DUP3 ADD MSTORE ADD PUSH2 0x15CA JUMP JUMPDEST POP PUSH1 0x0 PUSH1 0x20 DUP3 DUP7 ADD ADD MSTORE PUSH1 0x20 PUSH1 0x1F NOT PUSH1 0x1F DUP4 ADD AND DUP6 ADD ADD SWAP2 POP POP SWAP3 SWAP2 POP POP JUMP JUMPDEST DUP13 DUP2 MSTORE PUSH1 0x1 PUSH1 0x1 PUSH1 0xA0 SHL SUB DUP13 AND PUSH1 0x20 DUP3 ADD MSTORE PUSH1 0x0 PUSH2 0x180 PUSH2 0x1626 DUP14 PUSH2 0x15A2 JUMP JUMPDEST DUP13 PUSH1 0x40 DUP5 ADD MSTORE DUP1 PUSH1 0x60 DUP5 ADD MSTORE PUSH2 0x163E DUP2 DUP5 ADD DUP14 PUSH2 0x15C0 JUMP JUMPDEST SWAP1 POP DUP3 DUP2 SUB PUSH1 0x80 DUP5 ADD MSTORE PUSH2 0x1652 DUP2 DUP13 PUSH2 0x15C0 JUMP JUMPDEST SWAP1 POP DUP3 DUP2 SUB PUSH1 0xA0 DUP5 ADD MSTORE PUSH2 0x1666 DUP2 DUP12 PUSH2 0x15C0 JUMP JUMPDEST SWAP2 POP POP DUP8 PUSH1 0xC0 DUP4 ADD MSTORE DUP7 PUSH1 0xE0 DUP4 ADD MSTORE DUP6 PUSH2 0x100 DUP4 ADD MSTORE DUP5 PUSH2 0x120 DUP4 ADD MSTORE PUSH2 0x168C DUP5 PUSH2 0x15A2 JUMP JUMPDEST DUP4 PUSH2 0x140 DUP4 ADD MSTORE DUP3 ISZERO ISZERO PUSH2 0x160 DUP4 ADD MSTORE SWAP14 SWAP13 POP POP POP POP POP POP POP POP POP POP POP POP POP JUMP JUMPDEST PUSH1 0x0 DUP1 PUSH1 0x40 DUP4 DUP6 SUB SLT ISZERO PUSH2 0x16C0 JUMPI PUSH1 0x0 DUP1 REVERT JUMPDEST POP POP DUP1 CALLDATALOAD SWAP3 PUSH1 0x20 SWAP1 SWAP2 ADD CALLDATALOAD SWAP2 POP JUMP JUMPDEST DUP1 CALLDATALOAD PUSH1 0x1 PUSH1 0x1 PUSH1 0xA0 SHL SUB DUP2 AND DUP2 EQ PUSH2 0x16E6 JUMPI PUSH1 0x0 DUP1 REVERT JUMPDEST SWAP2 SWAP1 POP JUMP JUMPDEST PUSH1 0x0 DUP1 PUSH1 0x40 DUP4 DUP6 SUB SLT ISZERO PUSH2 0x16FE JUMPI PUSH1 0x0 DUP1 REVERT JUMPDEST DUP3 CALLDATALOAD SWAP2 POP PUSH2 0x170E PUSH1 0x20 DUP5 ADD PUSH2 0x16CF JUMP JUMPDEST SWAP1 POP SWAP3 POP SWAP3 SWAP1 POP JUMP JUMPDEST DUP7 DUP2 MSTORE PUSH1 0xC0 PUSH1 0x20 DUP3 ADD MSTORE PUSH1 0x0 PUSH2 0x1730 PUSH1 0xC0 DUP4 ADD DUP9 PUSH2 0x15C0 JUMP JUMPDEST DUP3 DUP2 SUB PUSH1 0x40 DUP5 ADD MSTORE PUSH2 0x1742 DUP2 DUP9 PUSH2 0x15C0 JUMP JUMPDEST SWAP1 POP DUP3 DUP2 SUB PUSH1 0x60 DUP5 ADD MSTORE PUSH2 0x1756 DUP2 DUP8 PUSH2 0x15C0 JUMP JUMPDEST PUSH1 0x80 DUP5 ADD SWAP6 SWAP1 SWAP6 MSTORE POP POP PUSH1 0xA0 ADD MSTORE SWAP5 SWAP4 POP POP POP POP JUMP JUMPDEST PUSH1 0x20 DUP1 DUP3 MSTORE DUP3 MLOAD DUP3 DUP3 ADD DUP2 SWAP1 MSTORE PUSH1 0x0 SWAP2 SWAP1 DUP5 DUP3 ADD SWAP1 PUSH1 0x40 DUP6 ADD SWAP1 DUP5 JUMPDEST DUP2 DUP2 LT ISZERO PUSH2 0x17A4 JUMPI DUP4 MLOAD DUP4 MSTORE SWAP3 DUP5 ADD SWAP3 SWAP2 DUP5 ADD SWAP2 PUSH1 0x1 ADD PUSH2 0x1788 JUMP JUMPDEST POP SWAP1 SWAP7 SWAP6 POP POP POP POP POP POP JUMP JUMPDEST PUSH4 0x4E487B71 PUSH1 0xE0 SHL PUSH1 0x0 MSTORE PUSH1 0x41 PUSH1 0x4 MSTORE PUSH1 0x24 PUSH1 0x0 REVERT JUMPDEST PUSH1 0x0 DUP3 PUSH1 0x1F DUP4 ADD SLT PUSH2 0x17D7 JUMPI PUSH1 0x0 DUP1 REVERT JUMPDEST DUP2 CALLDATALOAD PUSH8 0xFFFFFFFFFFFFFFFF DUP1 DUP3 GT ISZERO PUSH2 0x17F2 JUMPI PUSH2 0x17F2 PUSH2 0x17B0 JUMP JUMPDEST PUSH1 0x40 MLOAD PUSH1 0x1F DUP4 ADD PUSH1 0x1F NOT SWAP1 DUP2 AND PUSH1 0x3F ADD AND DUP2 ADD SWAP1 DUP3 DUP3 GT DUP2 DUP4 LT OR ISZERO PUSH2 0x181A JUMPI PUSH2 0x181A PUSH2 0x17B0 JUMP JUMPDEST DUP2 PUSH1 0x40 MSTORE DUP4 DUP2 MSTORE DUP7 PUSH1 0x20 DUP6 DUP9 ADD ADD GT ISZERO PUSH2 0x1833 JUMPI PUSH1 0x0 DUP1 REVERT JUMPDEST DUP4 PUSH1 0x20 DUP8 ADD PUSH1 0x20 DUP4 ADD CALLDATACOPY PUSH1 0x0 PUSH1 0x20 DUP6 DUP4 ADD ADD MSTORE DUP1 SWAP5 POP POP POP POP POP SWAP3 SWAP2 POP POP JUMP JUMPDEST PUSH1 0x0 DUP1 PUSH1 0x0 DUP1 PUSH1 0x80 DUP6 DUP8 SUB SLT ISZERO PUSH2 0x1869 JUMPI PUSH1 0x0 DUP1 REVERT JUMPDEST DUP5 CALLDATALOAD PUSH8 0xFFFFFFFFFFFFFFFF DUP1 DUP3 GT ISZERO PUSH2 0x1881 JUMPI PUSH1 0x0 DUP1 REVERT JUMPDEST PUSH2 0x188D DUP9 DUP4 DUP10 ADD PUSH2 0x17C6 JUMP JUMPDEST SWAP6 POP PUSH1 0x20 DUP8 ADD CALLDATALOAD SWAP2 POP DUP1 DUP3 GT ISZERO PUSH2 0x18A3 JUMPI PUSH1 0x0 DUP1 REVERT JUMPDEST PUSH2 0x18AF DUP9 DUP4 DUP10 ADD PUSH2 0x17C6 JUMP JUMPDEST SWAP5 POP PUSH1 0x40 DUP8 ADD CALLDATALOAD SWAP2 POP DUP1 DUP3 GT ISZERO PUSH2 0x18C5 JUMPI PUSH1 0x0 DUP1 REVERT JUMPDEST PUSH2 0x18D1 DUP9 DUP4 DUP10 ADD PUSH2 0x17C6 JUMP JUMPDEST SWAP4 POP PUSH1 0x60 DUP8 ADD CALLDATALOAD SWAP2 POP DUP1 DUP3 GT ISZERO PUSH2 0x18E7 JUMPI PUSH1 0x0 DUP1 REVERT JUMPDEST POP PUSH2 0x18F4 DUP8 DUP3 DUP9 ADD PUSH2 0x17C6 JUMP JUMPDEST SWAP2 POP POP SWAP3 SWAP6 SWAP2 SWAP5 POP SWAP3 POP JUMP JUMPDEST PUSH1 0x0 PUSH1 0x20 DUP3 DUP5 SUB SLT ISZERO PUSH2 0x1912 JUMPI PUSH1 0x0 DUP1 REVERT JUMPDEST PUSH2 0x191B DUP3 PUSH2 0x16CF JUMP JUMPDEST SWAP4 SWAP3 POP POP POP JUMP JUMPDEST PUSH1 0x0 DUP1 PUSH1 0x0 DUP1 PUSH1 0x80 DUP6 DUP8 SUB SLT ISZERO PUSH2 0x1938 JUMPI PUSH1 0x0 DUP1 REVERT JUMPDEST DUP5 CALLDATALOAD PUSH1 0x5 DUP2 LT PUSH2 0x1947 JUMPI PUSH1 0x0 DUP1 REVERT JUMPDEST SWAP4 POP PUSH1 0x20 DUP6 ADD CALLDATALOAD PUSH8 0xFFFFFFFFFFFFFFFF DUP1 DUP3 GT ISZERO PUSH2 0x18A3 JUMPI PUSH1 0x0 DUP1 REVERT JUMPDEST PUSH1 0x20 DUP1 DUP3 MSTORE DUP3 MLOAD DUP3 DUP3 ADD DUP2 SWAP1 MSTORE PUSH1 0x0 SWAP2 SWAP1 DUP5 DUP3 ADD SWAP1 PUSH1 0x40 DUP6 ADD SWAP1 DUP5 JUMPDEST DUP2 DUP2 LT ISZERO PUSH2 0x17A4 JUMPI DUP4 MLOAD PUSH1 0x1 PUSH1 0x1 PUSH1 0xA0 SHL SUB AND DUP4 MSTORE SWAP3 DUP5 ADD SWAP3 SWAP2 DUP5 ADD SWAP2 PUSH1 0x1 ADD PUSH2 0x1980 JUMP JUMPDEST DUP10 DUP2 MSTORE PUSH1 0x1 PUSH1 0x1 PUSH1 0xA0 SHL SUB DUP10 AND PUSH1 0x20 DUP3 ADD MSTORE PUSH1 0x0 PUSH2 0x120 PUSH2 0x19C5 DUP11 PUSH2 0x15A2 JUMP JUMPDEST DUP10 PUSH1 0x40 DUP5 ADD MSTORE DUP1 PUSH1 0x60 DUP5 ADD MSTORE PUSH2 0x19DD DUP2 DUP5 ADD DUP11 PUSH2 0x15C0 JUMP JUMPDEST SWAP1 POP DUP3 DUP2 SUB PUSH1 0x80 DUP5 ADD MSTORE PUSH2 0x19F1 DUP2 DUP10 PUSH2 0x15C0 JUMP JUMPDEST SWAP2 POP POP DUP6 PUSH1 0xA0 DUP4 ADD MSTORE DUP5 PUSH1 0xC0 DUP4 ADD MSTORE DUP4 PUSH1 0xE0 DUP4 ADD MSTORE PUSH2 0x1A0F DUP4 PUSH2 0x15A2 JUMP JUMPDEST DUP3 PUSH2 0x100 DUP4 ADD MSTORE SWAP11 SWAP10 POP POP POP POP POP POP POP POP POP POP JUMP JUMPDEST PUSH1 0x0 DUP1 PUSH1 0x40 DUP4 DUP6 SUB SLT ISZERO PUSH2 0x1A37 JUMPI PUSH1 0x0 DUP1 REVERT JUMPDEST DUP3 CALLDATALOAD SWAP2 POP PUSH1 0x20 DUP4 ADD CALLDATALOAD DUP1 ISZERO ISZERO DUP2 EQ PUSH2 0x1A4E JUMPI PUSH1 0x0 DUP1 REVERT JUMPDEST DUP1 SWAP2 POP POP SWAP3 POP SWAP3 SWAP1 POP JUMP JUMPDEST PUSH1 0x1 DUP2 DUP2 SHR SWAP1 DUP3 AND DUP1 PUSH2 0x1A6D JUMPI PUSH1 0x7F DUP3 AND SWAP2 POP JUMPDEST PUSH1 0x20 DUP3 LT DUP2 SUB PUSH2 0x1A8D JUMPI PUSH4 0x4E487B71 PUSH1 0xE0 SHL PUSH1 0x0 MSTORE PUSH1 0x22 PUSH1 0x4 MSTORE PUSH1 0x24 PUSH1 0x0 REVERT JUMPDEST POP SWAP2 SWAP1 POP JUMP JUMPDEST PUSH4 0x4E487B71 PUSH1 0xE0 SHL PUSH1 0x0 MSTORE PUSH1 0x11 PUSH1 0x4 MSTORE PUSH1 0x24 PUSH1 0x0 REVERT JUMPDEST DUP1 DUP3 ADD DUP1 DUP3 GT ISZERO PUSH2 0x626 JUMPI PUSH2 0x626 PUSH2 0x1A93 JUMP JUMPDEST PUSH1 0x1F DUP3 GT ISZERO PUSH2 0x9CB JUMPI PUSH1 0x0 DUP2 DUP2 MSTORE PUSH1 0x20 DUP2 KECCAK256 PUSH1 0x1F DUP6 ADD PUSH1 0x5 SHR DUP2 ADD PUSH1 0x20 DUP7 LT ISZERO PUSH2 0x1AE3 JUMPI POP DUP1 JUMPDEST PUSH1 0x1F DUP6 ADD PUSH1 0x5 SHR DUP3 ADD SWAP2 POP JUMPDEST DUP2 DUP2 LT ISZERO PUSH2 0x1B02 JUMPI DUP3 DUP2 SSTORE PUSH1 0x1 ADD PUSH2 0x1AEF JUMP JUMPDEST POP POP POP POP POP POP JUMP JUMPDEST DUP2 MLOAD PUSH8 0xFFFFFFFFFFFFFFFF DUP2 GT ISZERO PUSH2 0x1B24 JUMPI PUSH2 0x1B24 PUSH2 0x17B0 JUMP JUMPDEST PUSH2 0x1B38 DUP2 PUSH2 0x1B32 DUP5 SLOAD PUSH2 0x1A59 JUMP JUMPDEST DUP5 PUSH2 0x1ABC JUMP JUMPDEST PUSH1 0x20 DUP1 PUSH1 0x1F DUP4 GT PUSH1 0x1 DUP2 EQ PUSH2 0x1B6D JUMPI PUSH1 0x0 DUP5 ISZERO PUSH2 0x1B55 JUMPI POP DUP6 DUP4 ADD MLOAD JUMPDEST PUSH1 0x0 NOT PUSH1 0x3 DUP7 SWAP1 SHL SHR NOT AND PUSH1 0x1 DUP6 SWAP1 SHL OR DUP6 SSTORE PUSH2 0x1B02 JUMP JUMPDEST PUSH1 0x0 DUP6 DUP2 MSTORE PUSH1 0x20 DUP2 KECCAK256 PUSH1 0x1F NOT DUP7 AND SWAP2 JUMPDEST DUP3 DUP2 LT ISZERO PUSH2 0x1B9C JUMPI DUP9 DUP7 ADD MLOAD DUP3 SSTORE SWAP5 DUP5 ADD SWAP5 PUSH1 0x1 SWAP1 SWAP2 ADD SWAP1 DUP5 ADD PUSH2 0x1B7D JUMP JUMPDEST POP DUP6 DUP3 LT ISZERO PUSH2 0x1BBA JUMPI DUP8 DUP6 ADD MLOAD PUSH1 0x0 NOT PUSH1 0x3 DUP9 SWAP1 SHL PUSH1 0xF8 AND SHR NOT AND DUP2 SSTORE JUMPDEST POP POP POP POP POP PUSH1 0x1 SWAP1 DUP2 SHL ADD SWAP1 SSTORE POP JUMP JUMPDEST PUSH1 0x40 DUP2 MSTORE PUSH1 0x0 PUSH2 0x1BDD PUSH1 0x40 DUP4 ADD DUP6 PUSH2 0x15C0 JUMP JUMPDEST DUP3 DUP2 SUB PUSH1 0x20 DUP5 ADD MSTORE PUSH2 0x1BEF DUP2 DUP6 PUSH2 0x15C0 JUMP JUMPDEST SWAP6 SWAP5 POP POP POP POP POP JUMP JUMPDEST PUSH4 0x4E487B71 PUSH1 0xE0 SHL PUSH1 0x0 MSTORE PUSH1 0x32 PUSH1 0x4 MSTORE PUSH1 0x24 PUSH1 0x0 REVERT JUMPDEST DUP2 DUP2 SUB DUP2 DUP2 GT ISZERO PUSH2 0x626 JUMPI PUSH2 0x626 PUSH2 0x1A93 JUMP JUMPDEST PUSH1 0x0 DUP2 PUSH2 0x1C30 JUMPI PUSH2 0x1C30 PUSH2 0x1A93 JUMP JUMPDEST POP PUSH1 0x0 NOT ADD SWAP1 JUMP JUMPDEST PUSH1 0x0 PUSH1 0x1 DUP3 ADD PUSH2 0x1C4A JUMPI PUSH2 0x1C4A PUSH2 0x1A93 JUMP JUMPDEST POP PUSH1 0x1 ADD SWAP1 JUMP JUMPDEST PUSH2 0x1C5A DUP4 PUSH2 0x15A2 JUMP JUMPDEST DUP3 DUP2 MSTORE PUSH1 0x40 PUSH1 0x20 DUP3 ADD MSTORE PUSH1 0x0 PUSH2 0x1C73 PUSH1 0x40 DUP4 ADD DUP5 PUSH2 0x15C0 JUMP JUMPDEST SWAP5 SWAP4 POP POP POP POP JUMP INVALID LOG2 PUSH5 0x6970667358 0x22 SLT KECCAK256 ORIGIN SELFDESTRUCT 0xFB 0xEB 0x22 0xD4 SMOD PUSH1 0x3D PREVRANDAO 0xEE SSTORE 0x4D DUP2 0xE8 0xB0 0xCA PUSH18 0x1DCEE946C98FB7FFD6840D1A291364736F6C PUSH4 0x43000814 STOP CALLER "},"methodIdentifiers":{"allVoters(uint256)":"85650674","createProposal(uint8,string,string,string)":"9732b218","discoveries(uint256)":"4d61ac31","discoveryProposals(uint256)":"54cd9e8c","finalizeProposal(uint256)":"5652077c","getKnowledgeSharingProposals()":"cbcaca72","getProposal(uint256)":"c7f758a8","getProposalVoters(uint256)":"a68f34f7","getTopDiscoveries(uint256)":"8147fc9a","getTotalVoters()":"793cf218","getWeeklyTopics()":"4f8ad351","hasVoted(uint256,address)":"43859632","hasVotedEver(address)":"96d54e41","knowledgeSharingProposals(uint256)":"696a21d2","owner()":"8da5cb5b","proposalCount()":"da35c664","proposalVoters(uint256,uint256)":"ab89437c","proposals(uint256)":"013cf08b","quorumPercentage()":"4fa76ec9","renounceOwnership()":"715018a6","submitDiscovery(string,string,string,string)":"5941c441","transferOwnership(address)":"f2fde38b","updateParameters(uint256,uint256)":"16128211","vote(uint256,bool)":"c9d27afe","votingPeriod()":"02a251a3","weeklyTopicProposals(uint256)":"def8761b"}}}}}