{
  "_format": "hh-sol-artifact-1",
  "contractName": "AstroDAO",
  "sourceName": "contracts/AstroDAO.sol",
  "abi": [
    {
      "inputs": [],
      "stateMutability": "nonpayable",
      "type": "constructor"
    },
    {
      "inputs": [
        {
          "internalType": "address",
          "name": "owner",
          "type": "address"
        }
      ],
      "name": "OwnableInvalidOwner",
      "type": "error"
    },
    {
      "inputs": [
        {
          "internalType": "address",
          "name": "account",
          "type": "address"
        }
      ],
      "name": "OwnableUnauthorizedAccount",
      "type": "error"
    },
    {
      "inputs": [],
      "name": "ReentrancyGuardReentrantCall",
      "type": "error"
    },
    {
      "anonymous": false,
      "inputs": [
        {
          "indexed": true,
          "internalType": "uint256",
          "name": "proposalId",
          "type": "uint256"
        },
        {
          "indexed": false,
          "internalType": "string",
          "name": "title",
          "type": "string"
        },
        {
          "indexed": false,
          "internalType": "string",
          "name": "researcher",
          "type": "string"
        }
      ],
      "name": "DiscoverySubmitted",
      "type": "event"
    },
    {
      "anonymous": false,
      "inputs": [
        {
          "indexed": true,
          "internalType": "address",
          "name": "previousOwner",
          "type": "address"
        },
        {
          "indexed": true,
          "internalType": "address",
          "name": "newOwner",
          "type": "address"
        }
      ],
      "name": "OwnershipTransferred",
      "type": "event"
    },
    {
      "anonymous": false,
      "inputs": [
        {
          "indexed": true,
          "internalType": "uint256",
          "name": "proposalId",
          "type": "uint256"
        },
        {
          "indexed": true,
          "internalType": "address",
          "name": "proposer",
          "type": "address"
        },
        {
          "indexed": false,
          "internalType": "enum AstroDAO.ProposalType",
          "name": "proposalType",
          "type": "uint8"
        },
        {
          "indexed": false,
          "internalType": "string",
          "name": "title",
          "type": "string"
        }
      ],
      "name": "ProposalCreated",
      "type": "event"
    },
    {
      "anonymous": false,
      "inputs": [
        {
          "indexed": true,
          "internalType": "uint256",
          "name": "proposalId",
          "type": "uint256"
        }
      ],
      "name": "ProposalExecuted",
      "type": "event"
    },
    {
      "anonymous": false,
      "inputs": [
        {
          "indexed": true,
          "internalType": "uint256",
          "name": "proposalId",
          "type": "uint256"
        },
        {
          "indexed": true,
          "internalType": "address",
          "name": "voter",
          "type": "address"
        },
        {
          "indexed": false,
          "internalType": "bool",
          "name": "support",
          "type": "bool"
        }
      ],
      "name": "VoteCast",
      "type": "event"
    },
    {
      "inputs": [
        {
          "internalType": "uint256",
          "name": "",
          "type": "uint256"
        }
      ],
      "name": "allVoters",
      "outputs": [
        {
          "internalType": "address",
          "name": "",
          "type": "address"
        }
      ],
      "stateMutability": "view",
      "type": "function"
    },
    {
      "inputs": [
        {
          "internalType": "enum AstroDAO.ProposalType",
          "name": "_type",
          "type": "uint8"
        },
        {
          "internalType": "string",
          "name": "_title",
          "type": "string"
        },
        {
          "internalType": "string",
          "name": "_description",
          "type": "string"
        },
        {
          "internalType": "string",
          "name": "_ipfsHash",
          "type": "string"
        }
      ],
      "name": "createProposal",
      "outputs": [
        {
          "internalType": "uint256",
          "name": "",
          "type": "uint256"
        }
      ],
      "stateMutability": "nonpayable",
      "type": "function"
    },
    {
      "inputs": [
        {
          "internalType": "uint256",
          "name": "",
          "type": "uint256"
        }
      ],
      "name": "discoveries",
      "outputs": [
        {
          "internalType": "uint256",
          "name": "proposalId",
          "type": "uint256"
        },
        {
          "internalType": "string",
          "name": "discoveryTitle",
          "type": "string"
        },
        {
          "internalType": "string",
          "name": "researcherName",
          "type": "string"
        },
        {
          "internalType": "string",
          "name": "paperIPFS",
          "type": "string"
        },
        {
          "internalType": "uint256",
          "name": "votingScore",
          "type": "uint256"
        },
        {
          "internalType": "uint256",
          "name": "timestamp",
          "type": "uint256"
        }
      ],
      "stateMutability": "view",
      "type": "function"
    },
    {
      "inputs": [
        {
          "internalType": "uint256",
          "name": "",
          "type": "uint256"
        }
      ],
      "name": "discoveryProposals",
      "outputs": [
        {
          "internalType": "uint256",
          "name": "",
          "type": "uint256"
        }
      ],
      "stateMutability": "view",
      "type": "function"
    },
    {
      "inputs": [
        {
          "internalType": "uint256",
          "name": "_proposalId",
          "type": "uint256"
        }
      ],
      "name": "finalizeProposal",
      "outputs": [],
      "stateMutability": "nonpayable",
      "type": "function"
    },
    {
      "inputs": [],
      "name": "getKnowledgeSharingProposals",
      "outputs": [
        {
          "internalType": "uint256[]",
          "name": "",
          "type": "uint256[]"
        }
      ],
      "stateMutability": "view",
      "type": "function"
    },
    {
      "inputs": [
        {
          "internalType": "uint256",
          "name": "_proposalId",
          "type": "uint256"
        }
      ],
      "name": "getProposal",
      "outputs": [
        {
          "internalType": "uint256",
          "name": "id",
          "type": "uint256"
        },
        {
          "internalType": "address",
          "name": "proposer",
          "type": "address"
        },
        {
          "internalType": "enum AstroDAO.ProposalType",
          "name": "proposalType",
          "type": "uint8"
        },
        {
          "internalType": "string",
          "name": "title",
          "type": "string"
        },
        {
          "internalType": "string",
          "name": "description",
          "type": "string"
        },
        {
          "internalType": "uint256",
          "name": "votesFor",
          "type": "uint256"
        },
        {
          "internalType": "uint256",
          "name": "votesAgainst",
          "type": "uint256"
        },
        {
          "internalType": "uint256",
          "name": "endTime",
          "type": "uint256"
        },
        {
          "internalType": "enum AstroDAO.ProposalStatus",
          "name": "status",
          "type": "uint8"
        }
      ],
      "stateMutability": "view",
      "type": "function"
    },
    {
      "inputs": [
        {
          "internalType": "uint256",
          "name": "_proposalId",
          "type": "uint256"
        }
      ],
      "name": "getProposalVoters",
      "outputs": [
        {
          "internalType": "address[]",
          "name": "",
          "type": "address[]"
        }
      ],
      "stateMutability": "view",
      "type": "function"
    },
    {
      "inputs": [
        {
          "internalType": "uint256",
          "name": "_count",
          "type": "uint256"
        }
      ],
      "name": "getTopDiscoveries",
      "outputs": [
        {
          "internalType": "uint256[]",
          "name": "",
          "type": "uint256[]"
        }
      ],
      "stateMutability": "view",
      "type": "function"
    },
    {
      "inputs": [],
      "name": "getTotalVoters",
      "outputs": [
        {
          "internalType": "uint256",
          "name": "",
          "type": "uint256"
        }
      ],
      "stateMutability": "view",
      "type": "function"
    },
    {
      "inputs": [],
      "name": "getWeeklyTopics",
      "outputs": [
        {
          "internalType": "uint256[]",
          "name": "",
          "type": "uint256[]"
        }
      ],
      "stateMutability": "view",
      "type": "function"
    },
    {
      "inputs": [
        {
          "internalType": "uint256",
          "name": "_proposalId",
          "type": "uint256"
        },
        {
          "internalType": "address",
          "name": "_voter",
          "type": "address"
        }
      ],
      "name": "hasVoted",
      "outputs": [
        {
          "internalType": "bool",
          "name": "",
          "type": "bool"
        }
      ],
      "stateMutability": "view",
      "type": "function"
    },
    {
      "inputs": [
        {
          "internalType": "address",
          "name": "",
          "type": "address"
        }
      ],
      "name": "hasVotedEver",
      "outputs": [
        {
          "internalType": "bool",
          "name": "",
          "type": "bool"
        }
      ],
      "stateMutability": "view",
      "type": "function"
    },
    {
      "inputs": [
        {
          "internalType": "uint256",
          "name": "",
          "type": "uint256"
        }
      ],
      "name": "knowledgeSharingProposals",
      "outputs": [
        {
          "internalType": "uint256",
          "name": "",
          "type": "uint256"
        }
      ],
      "stateMutability": "view",
      "type": "function"
    },
    {
      "inputs": [],
      "name": "owner",
      "outputs": [
        {
          "internalType": "address",
          "name": "",
          "type": "address"
        }
      ],
      "stateMutability": "view",
      "type": "function"
    },
    {
      "inputs": [],
      "name": "proposalCount",
      "outputs": [
        {
          "internalType": "uint256",
          "name": "",
          "type": "uint256"
        }
      ],
      "stateMutability": "view",
      "type": "function"
    },
    {
      "inputs": [
        {
          "internalType": "uint256",
          "name": "",
          "type": "uint256"
        },
        {
          "internalType": "uint256",
          "name": "",
          "type": "uint256"
        }
      ],
      "name": "proposalVoters",
      "outputs": [
        {
          "internalType": "address",
          "name": "",
          "type": "address"
        }
      ],
      "stateMutability": "view",
      "type": "function"
    },
    {
      "inputs": [
        {
          "internalType": "uint256",
          "name": "",
          "type": "uint256"
        }
      ],
      "name": "proposals",
      "outputs": [
        {
          "internalType": "uint256",
          "name": "id",
          "type": "uint256"
        },
        {
          "internalType": "address",
          "name": "proposer",
          "type": "address"
        },
        {
          "internalType": "enum AstroDAO.ProposalType",
          "name": "proposalType",
          "type": "uint8"
        },
        {
          "internalType": "string",
          "name": "title",
          "type": "string"
        },
        {
          "internalType": "string",
          "name": "description",
          "type": "string"
        },
        {
          "internalType": "string",
          "name": "ipfsHash",
          "type": "string"
        },
        {
          "internalType": "uint256",
          "name": "votesFor",
          "type": "uint256"
        },
        {
          "internalType": "uint256",
          "name": "votesAgainst",
          "type": "uint256"
        },
        {
          "internalType": "uint256",
          "name": "startTime",
          "type": "uint256"
        },
        {
          "internalType": "uint256",
          "name": "endTime",
          "type": "uint256"
        },
        {
          "internalType": "enum AstroDAO.ProposalStatus",
          "name": "status",
          "type": "uint8"
        },
        {
          "internalType": "bool",
          "name": "executed",
          "type": "bool"
        }
      ],
      "stateMutability": "view",
      "type": "function"
    },
    {
      "inputs": [],
      "name": "quorumPercentage",
      "outputs": [
        {
          "internalType": "uint256",
          "name": "",
          "type": "uint256"
        }
      ],
      "stateMutability": "view",
      "type": "function"
    },
    {
      "inputs": [],
      "name": "renounceOwnership",
      "outputs": [],
      "stateMutability": "nonpayable",
      "type": "function"
    },
    {
      "inputs": [
        {
          "internalType": "string",
          "name": "_title",
          "type": "string"
        },
        {
          "internalType": "string",
          "name": "_description",
          "type": "string"
        },
        {
          "internalType": "string",
          "name": "_researcherName",
          "type": "string"
        },
        {
          "internalType": "string",
          "name": "_paperIPFS",
          "type": "string"
        }
      ],
      "name": "submitDiscovery",
      "outputs": [
        {
          "internalType": "uint256",
          "name": "",
          "type": "uint256"
        }
      ],
      "stateMutability": "nonpayable",
      "type": "function"
    },
    {
      "inputs": [
        {
          "internalType": "address",
          "name": "newOwner",
          "type": "address"
        }
      ],
      "name": "transferOwnership",
      "outputs": [],
      "stateMutability": "nonpayable",
      "type": "function"
    },
    {
      "inputs": [
        {
          "internalType": "uint256",
          "name": "_votingPeriod",
          "type": "uint256"
        },
        {
          "internalType": "uint256",
          "name": "_quorumPercentage",
          "type": "uint256"
        }
      ],
      "name": "updateParameters",
      "outputs": [],
      "stateMutability": "nonpayable",
      "type": "function"
    },
    {
      "inputs": [
        {
          "internalType": "uint256",
          "name": "_proposalId",
          "type": "uint256"
        },
        {
          "internalType": "bool",
          "name": "_support",
          "type": "bool"
        }
      ],
      "name": "vote",
      "outputs": [],
      "stateMutability": "nonpayable",
      "type": "function"
    },
    {
      "inputs": [],
      "name": "votingPeriod",
      "outputs": [
        {
          "internalType": "uint256",
          "name": "",
          "type": "uint256"
        }
      ],
      "stateMutability": "view",
      "type": "function"
    },
    {
      "inputs": [
        {
          "internalType": "uint256",
          "name": "",
          "type": "uint256"
        }
      ],
      "name": "weeklyTopicProposals",
      "outputs": [
        {
          "internalType": "uint256",
          "name": "",
          "type": "uint256"
        }
      ],
      "stateMutability": "view",
      "type": "function"
    }
  ],
  "bytecode": "0x608060405262093a80600355600a60045534801561001c57600080fd5b50338061004357604051631e4fbdf760e01b81526000600482015260240160405180910390fd5b61004c81610056565b50600180556100a6565b600080546001600160a01b038381166001600160a01b0319831681178455604051919092169283917f8be0079c531659141344cd1fd0a4f28419497f9722a3daafe3b4186f6b6457e09190a35050565b611cb1806100b56000396000f3fe608060405234801561001057600080fd5b506004361061018e5760003560e01c80638147fc9a116100de578063ab89437c11610097578063cbcaca7211610071578063cbcaca72146103a8578063da35c664146103b0578063def8761b146103b9578063f2fde38b146103cc57600080fd5b8063ab89437c1461035a578063c7f758a81461036d578063c9d27afe1461039557600080fd5b80638147fc9a146102b557806385650674146102c85780638da5cb5b146102f357806396d54e41146103045780639732b21814610327578063a68f34f71461033a57600080fd5b80634fa76ec91161014b5780635941c441116101255780635941c4411461027f578063696a21d214610292578063715018a6146102a5578063793cf218146102ad57600080fd5b80634fa76ec91461025057806354cd9e8c146102595780635652077c1461026c57600080fd5b8063013cf08b1461019357806302a251a3146101c757806316128211146101de57806343859632146101f35780634d61ac31146102165780634f8ad3511461023b575b600080fd5b6101a66101a1366004611573565b6103df565b6040516101be9c9b9a99989796959493929190611606565b60405180910390f35b6101d060035481565b6040519081526020016101be565b6101f16101ec3660046116ad565b6105e9565b005b6102066102013660046116eb565b6105fc565b60405190151581526020016101be565b610229610224366004611573565b61062c565b6040516101be96959493929190611717565b6102436107f9565b6040516101be919061176c565b6101d060045481565b6101d0610267366004611573565b610851565b6101f161027a366004611573565b610872565b6101d061028d366004611853565b6109d0565b6101d06102a0366004611573565b610aba565b6101f1610aca565b600b546101d0565b6102436102c3366004611573565b610ade565b6102db6102d6366004611573565b610d10565b6040516001600160a01b0390911681526020016101be565b6000546001600160a01b03166102db565b610206610312366004611900565b600c6020526000908152604090205460ff1681565b6101d0610335366004611922565b610d3a565b61034d610348366004611573565b610f45565b6040516101be9190611964565b6102db6103683660046116ad565b610fb1565b61038061037b366004611573565b610fe9565b6040516101be999897969594939291906119a5565b6101f16103a3366004611a24565b61118c565b610243611452565b6101d060025481565b6101d06103c7366004611573565b6114a8565b6101f16103da366004611900565b6114b8565b60056020526000908152604090208054600182015460028301805492936001600160a01b03831693600160a01b90930460ff169290919061041f90611a59565b80601f016020809104026020016040519081016040528092919081815260200182805461044b90611a59565b80156104985780601f1061046d57610100808354040283529160200191610498565b820191906000526020600020905b81548152906001019060200180831161047b57829003601f168201915b5050505050908060030180546104ad90611a59565b80601f01602080910402602001604051908101604052809291908181526020018280546104d990611a59565b80156105265780601f106104fb57610100808354040283529160200191610526565b820191906000526020600020905b81548152906001019060200180831161050957829003601f168201915b50505050509080600401805461053b90611a59565b80601f016020809104026020016040519081016040528092919081815260200182805461056790611a59565b80156105b45780601f10610589576101008083540402835291602001916105b4565b820191906000526020600020905b81548152906001019060200180831161059757829003601f168201915b505050600584015460068501546007860154600887015460099097015495969295919450925060ff808216916101009004168c565b6105f16114f6565b600391909155600455565b60008281526005602090815260408083206001600160a01b0385168452600a0190915290205460ff165b92915050565b6006602052600090815260409020805460018201805491929161064e90611a59565b80601f016020809104026020016040519081016040528092919081815260200182805461067a90611a59565b80156106c75780601f1061069c576101008083540402835291602001916106c7565b820191906000526020600020905b8154815290600101906020018083116106aa57829003601f168201915b5050505050908060020180546106dc90611a59565b80601f016020809104026020016040519081016040528092919081815260200182805461070890611a59565b80156107555780601f1061072a57610100808354040283529160200191610755565b820191906000526020600020905b81548152906001019060200180831161073857829003601f168201915b50505050509080600301805461076a90611a59565b80601f016020809104026020016040519081016040528092919081815260200182805461079690611a59565b80156107e35780601f106107b8576101008083540402835291602001916107e3565b820191906000526020600020905b8154815290600101906020018083116107c657829003601f168201915b5050505050908060040154908060050154905086565b6060600880548060200260200160405190810160405280929190818152602001828054801561084757602002820191906000526020600020905b815481526020019060010190808311610833575b5050505050905090565b6009818154811061086157600080fd5b600091825260209091200154905081565b600081815260056020526040812080549091036108d05760405162461bcd60e51b8152602060048201526017602482015276141c9bdc1bdcd85b08191bd95cc81b9bdd08195e1a5cdd604a1b60448201526064015b60405180910390fd5b806008015442116109195760405162461bcd60e51b8152602060048201526013602482015272566f74696e67207374696c6c2061637469766560681b60448201526064016108c7565b6001600982015460ff1660048111156109345761093461158c565b146109755760405162461bcd60e51b8152602060048201526011602482015270105b1c9958591e48199a5b985b1a5e9959607a1b60448201526064016108c7565b60008160060154826005015461098b9190611aa9565b90506000811180156109a4575081600601548260050154115b156109bb5750600901805460ff1916600217905550565b60098201805460ff191660031790555b505050565b6000806109e06001878786610d3a565b6040805160c08101825282815260208082018a8152828401899052606083018890526000608084018190524260a08501528581526006909252929020815181559151929350916001820190610a359082611b0a565b5060408201516002820190610a4a9082611b0a565b5060608201516003820190610a5f9082611b0a565b506080820151816004015560a08201518160050155905050807f66189ae8c589fb36ff8dd983e7af2a48d602eac72064b026cb240d83ad5f37c58786604051610aa9929190611bca565b60405180910390a295945050505050565b600a818154811061086157600080fd5b610ad26114f6565b610adc6000611523565b565b6009546060908290811115610af257506009545b60008167ffffffffffffffff811115610b0d57610b0d6117b0565b604051908082528060200260200182016040528015610b36578160200160208202803683370190505b50905060008267ffffffffffffffff811115610b5457610b546117b0565b604051908082528060200260200182016040528015610b7d578160200160208202803683370190505b50905060005b600954811015610d0657600060098281548110610ba257610ba2611bf8565b600091825260208083209091015480835260069091526040822060040154909250905b86811015610cf057848181518110610bdf57610bdf611bf8565b6020026020010151821115610cde576000610bfb600189611c0e565b90505b81811115610c9a5785610c12600183611c0e565b81518110610c2257610c22611bf8565b6020026020010151868281518110610c3c57610c3c611bf8565b602090810291909101015286610c53600183611c0e565b81518110610c6357610c63611bf8565b6020026020010151878281518110610c7d57610c7d611bf8565b602090810291909101015280610c9281611c21565b915050610bfe565b5081858281518110610cae57610cae611bf8565b60200260200101818152505082868281518110610ccd57610ccd611bf8565b602002602001018181525050610cf0565b80610ce881611c38565b915050610bc5565b5050508080610cfe90611c38565b915050610b83565b5090949350505050565b600b8181548110610d2057600080fd5b6000918252602090912001546001600160a01b0316905081565b6002805460009182610d4b83611c38565b90915550506002546000818152600560205260409020818155600181018054336001600160a01b03198216811783558992916001600160a81b03191660ff60a01b1990911617600160a01b836004811115610da857610da861158c565b021790555060028101610dbb8782611b0a565b5060038101610dca8682611b0a565b5060048101610dd98582611b0a565b504260078201819055600354610dee91611aa9565b600882015560098101805460ff191660011790556000876004811115610e1657610e1661158c565b03610e5557600880546001810182556000919091527ff3f7a9fe364faab93b216da50a3214154f22a0a2b415b23a84c8169e8b636ee301829055610ef7565b6001876004811115610e6957610e6961158c565b03610ea857600980546001810182556000919091527f6e1540171b6c0c960b71a7020d9f60077f6af931a8bbf590da0223dacf75c7af01829055610ef7565b6002876004811115610ebc57610ebc61158c565b03610ef757600a80546001810182556000919091527fc65a7bb8d6351c1cf70c95a316cc6a92839c986682d98bc35f958f4883f9d2a8018290555b336001600160a01b0316827f8356bc5007056a642094f44da4e8e22469db3e8a36b5811c0f91f735f1491c798989604051610f33929190611c51565b60405180910390a35095945050505050565b600081815260076020908152604091829020805483518184028101840190945280845260609392830182828015610fa557602002820191906000526020600020905b81546001600160a01b03168152600190910190602001808311610f87575b50505050509050919050565b60076020528160005260406000208181548110610fcd57600080fd5b6000918252602090912001546001600160a01b03169150829050565b6000818152600560208190526040822080546001820154928201546006830154600884015460098501546002860180548998899860609889988b98899889988998959794966001600160a01b0381169660ff600160a01b909204821696909560038b01959094909390921690869061106090611a59565b80601f016020809104026020016040519081016040528092919081815260200182805461108c90611a59565b80156110d95780601f106110ae576101008083540402835291602001916110d9565b820191906000526020600020905b8154815290600101906020018083116110bc57829003601f168201915b505050505095508480546110ec90611a59565b80601f016020809104026020016040519081016040528092919081815260200182805461111890611a59565b80156111655780601f1061113a57610100808354040283529160200191611165565b820191906000526020600020905b81548152906001019060200180831161114857829003601f168201915b50505050509450995099509950995099509950995099509950509193959799909294969850565b600082815260056020526040812080549091036111e55760405162461bcd60e51b8152602060048201526017602482015276141c9bdc1bdcd85b08191bd95cc81b9bdd08195e1a5cdd604a1b60448201526064016108c7565b806008015442111561122f5760405162461bcd60e51b8152602060048201526013602482015272159bdd1a5b99c81c195c9a5bd908195b991959606a1b60448201526064016108c7565b336000908152600a8201602052604090205460ff16156112815760405162461bcd60e51b815260206004820152600d60248201526c105b1c9958591e481d9bdd1959609a1b60448201526064016108c7565b6001600982015460ff16600481111561129c5761129c61158c565b146112df5760405162461bcd60e51b815260206004820152601360248201527250726f706f73616c206e6f742061637469766560681b60448201526064016108c7565b336000818152600a830160209081526040808320805460ff19166001908117909155878452600783528184208054918201815584528284200180546001600160a01b03191685179055928252600c9052205460ff1661139557336000818152600c60205260408120805460ff19166001908117909155600b805491820181559091527f0175b7a638427703f0dbe7bb9bbf987a2551717b34e79f33b5b1008d1fa01db90180546001600160a01b03191690911790555b81156113bb5760018160050160008282546113b09190611aa9565b909155506113d69050565b60018160060160008282546113d09190611aa9565b90915550505b600180820154600160a01b900460ff1660048111156113f7576113f761158c565b036114145760058101546000848152600660205260409020600401555b6040518215158152339084907fe71fcdac32df1877c1700e7bda2a03157e20993363a28fc35ac495cefc76e4d49060200160405180910390a3505050565b6060600a8054806020026020016040519081016040528092919081815260200182805480156108475760200282019190600052602060002090815481526020019060010190808311610833575050505050905090565b6008818154811061086157600080fd5b6114c06114f6565b6001600160a01b0381166114ea57604051631e4fbdf760e01b8152600060048201526024016108c7565b6114f381611523565b50565b6000546001600160a01b03163314610adc5760405163118cdaa760e01b81523360048201526024016108c7565b600080546001600160a01b038381166001600160a01b0319831681178455604051919092169283917f8be0079c531659141344cd1fd0a4f28419497f9722a3daafe3b4186f6b6457e09190a35050565b60006020828403121561158557600080fd5b5035919050565b634e487b7160e01b600052602160045260246000fd5b600581106114f357634e487b7160e01b600052602160045260246000fd5b6000815180845260005b818110156115e6576020818501810151868301820152016115ca565b506000602082860101526020601f19601f83011685010191505092915050565b8c81526001600160a01b038c16602082015260006101806116268d6115a2565b8c604084015280606084015261163e8184018d6115c0565b90508281036080840152611652818c6115c0565b905082810360a0840152611666818b6115c0565b9150508760c08301528660e0830152856101008301528461012083015261168c846115a2565b836101408301528215156101608301529d9c50505050505050505050505050565b600080604083850312156116c057600080fd5b50508035926020909101359150565b80356001600160a01b03811681146116e657600080fd5b919050565b600080604083850312156116fe57600080fd5b8235915061170e602084016116cf565b90509250929050565b86815260c06020820152600061173060c08301886115c0565b828103604084015261174281886115c0565b9050828103606084015261175681876115c0565b6080840195909552505060a00152949350505050565b6020808252825182820181905260009190848201906040850190845b818110156117a457835183529284019291840191600101611788565b50909695505050505050565b634e487b7160e01b600052604160045260246000fd5b600082601f8301126117d757600080fd5b813567ffffffffffffffff808211156117f2576117f26117b0565b604051601f8301601f19908116603f0116810190828211818310171561181a5761181a6117b0565b8160405283815286602085880101111561183357600080fd5b836020870160208301376000602085830101528094505050505092915050565b6000806000806080858703121561186957600080fd5b843567ffffffffffffffff8082111561188157600080fd5b61188d888389016117c6565b955060208701359150808211156118a357600080fd5b6118af888389016117c6565b945060408701359150808211156118c557600080fd5b6118d1888389016117c6565b935060608701359150808211156118e757600080fd5b506118f4878288016117c6565b91505092959194509250565b60006020828403121561191257600080fd5b61191b826116cf565b9392505050565b6000806000806080858703121561193857600080fd5b84356005811061194757600080fd5b9350602085013567ffffffffffffffff808211156118a357600080fd5b6020808252825182820181905260009190848201906040850190845b818110156117a45783516001600160a01b031683529284019291840191600101611980565b8981526001600160a01b038916602082015260006101206119c58a6115a2565b8960408401528060608401526119dd8184018a6115c0565b905082810360808401526119f181896115c0565b9150508560a08301528460c08301528360e0830152611a0f836115a2565b826101008301529a9950505050505050505050565b60008060408385031215611a3757600080fd5b8235915060208301358015158114611a4e57600080fd5b809150509250929050565b600181811c90821680611a6d57607f821691505b602082108103611a8d57634e487b7160e01b600052602260045260246000fd5b50919050565b634e487b7160e01b600052601160045260246000fd5b8082018082111561062657610626611a93565b601f8211156109cb57600081815260208120601f850160051c81016020861015611ae35750805b601f850160051c820191505b81811015611b0257828155600101611aef565b505050505050565b815167ffffffffffffffff811115611b2457611b246117b0565b611b3881611b328454611a59565b84611abc565b602080601f831160018114611b6d5760008415611b555750858301515b600019600386901b1c1916600185901b178555611b02565b600085815260208120601f198616915b82811015611b9c57888601518255948401946001909101908401611b7d565b5085821015611bba5787850151600019600388901b60f8161c191681555b5050505050600190811b01905550565b604081526000611bdd60408301856115c0565b8281036020840152611bef81856115c0565b95945050505050565b634e487b7160e01b600052603260045260246000fd5b8181038181111561062657610626611a93565b600081611c3057611c30611a93565b506000190190565b600060018201611c4a57611c4a611a93565b5060010190565b611c5a836115a2565b828152604060208201526000611c7360408301846115c0565b94935050505056fea264697066735822122032fffbeb22d407603d44ee554d81e8b0ca711dcee946c98fb7ffd6840d1a291364736f6c63430008140033",
  "linkReferences": {},
  "deployedLinkReferences": {}
}