{
  "_format": "hh-sol-artifact-1",
  "contractName": "AstroDAO",
  "sourceName": "contracts/AstroDAOSecure.sol",
  "abi": [
    {
      "inputs": [],
      "stateMutability": "nonpayable",
      "type": "constructor"
    },
    {
      "inputs": [],
      "name": "AlreadyDelegated",
      "type": "error"
    },
    {
      "inputs": [],
      "name": "AlreadyVoted",
      "type": "error"
    },
    {
      "inputs": [],
      "name": "EnforcedPause",
      "type": "error"
    },
    {
      "inputs": [],
      "name": "ExpectedPause",
      "type": "error"
    },
    {
      "inputs": [],
      "name": "InsufficientReputation",
      "type": "error"
    },
    {
      "inputs": [],
      "name": "InvalidProposalId",
      "type": "error"
    },
    {
      "inputs": [
        {
          "internalType": "address",
          "name": "owner",
          "type": "address"
        }
      ],
      "name": "OwnableInvalidOwner",
      "type": "error"
    },
    {
      "inputs": [
        {
          "internalType": "address",
          "name": "account",
          "type": "address"
        }
      ],
      "name": "OwnableUnauthorizedAccount",
      "type": "error"
    },
    {
      "inputs": [],
      "name": "ProposalNotActive",
      "type": "error"
    },
    {
      "inputs": [],
      "name": "QuorumNotReached",
      "type": "error"
    },
    {
      "inputs": [],
      "name": "ReentrancyGuardReentrantCall",
      "type": "error"
    },
    {
      "inputs": [],
      "name": "Unauthorized",
      "type": "error"
    },
    {
      "anonymous": false,
      "inputs": [
        {
          "indexed": true,
          "internalType": "address",
          "name": "delegator",
          "type": "address"
        },
        {
          "indexed": true,
          "internalType": "address",
          "name": "fromDelegate",
          "type": "address"
        },
        {
          "indexed": true,
          "internalType": "address",
          "name": "toDelegate",
          "type": "address"
        }
      ],
      "name": "DelegateChanged",
      "type": "event"
    },
    {
      "anonymous": false,
      "inputs": [
        {
          "indexed": true,
          "internalType": "uint256",
          "name": "proposalId",
          "type": "uint256"
        },
        {
          "indexed": true,
          "internalType": "uint256",
          "name": "discoveryId",
          "type": "uint256"
        },
        {
          "indexed": false,
          "internalType": "string",
          "name": "title",
          "type": "string"
        },
        {
          "indexed": false,
          "internalType": "string",
          "name": "researcher",
          "type": "string"
        }
      ],
      "name": "DiscoverySubmitted",
      "type": "event"
    },
    {
      "anonymous": false,
      "inputs": [
        {
          "indexed": true,
          "internalType": "uint256",
          "name": "discoveryId",
          "type": "uint256"
        },
        {
          "indexed": false,
          "internalType": "uint256",
          "name": "totalApprovals",
          "type": "uint256"
        }
      ],
      "name": "DiscoveryVerified",
      "type": "event"
    },
    {
      "anonymous": false,
      "inputs": [
        {
          "indexed": true,
          "internalType": "address",
          "name": "previousOwner",
          "type": "address"
        },
        {
          "indexed": true,
          "internalType": "address",
          "name": "newOwner",
          "type": "address"
        }
      ],
      "name": "OwnershipTransferred",
      "type": "event"
    },
    {
      "anonymous": false,
      "inputs": [
        {
          "indexed": false,
          "internalType": "address",
          "name": "account",
          "type": "address"
        }
      ],
      "name": "Paused",
      "type": "event"
    },
    {
      "anonymous": false,
      "inputs": [
        {
          "indexed": true,
          "internalType": "uint256",
          "name": "proposalId",
          "type": "uint256"
        },
        {
          "indexed": true,
          "internalType": "address",
          "name": "proposer",
          "type": "address"
        },
        {
          "indexed": true,
          "internalType": "enum AstroDAO.ProposalType",
          "name": "proposalType",
          "type": "uint8"
        },
        {
          "indexed": false,
          "internalType": "string",
          "name": "title",
          "type": "string"
        },
        {
          "indexed": false,
          "internalType": "uint256",
          "name": "endTime",
          "type": "uint256"
        }
      ],
      "name": "ProposalCreated",
      "type": "event"
    },
    {
      "anonymous": false,
      "inputs": [
        {
          "indexed": true,
          "internalType": "uint256",
          "name": "proposalId",
          "type": "uint256"
        }
      ],
      "name": "ProposalExecuted",
      "type": "event"
    },
    {
      "anonymous": false,
      "inputs": [
        {
          "indexed": true,
          "internalType": "uint256",
          "name": "proposalId",
          "type": "uint256"
        },
        {
          "indexed": false,
          "internalType": "enum AstroDAO.ProposalStatus",
          "name": "status",
          "type": "uint8"
        },
        {
          "indexed": false,
          "internalType": "uint256",
          "name": "votesFor",
          "type": "uint256"
        },
        {
          "indexed": false,
          "internalType": "uint256",
          "name": "votesAgainst",
          "type": "uint256"
        },
        {
          "indexed": false,
          "internalType": "uint256",
          "name": "votesAbstain",
          "type": "uint256"
        }
      ],
      "name": "ProposalFinalized",
      "type": "event"
    },
    {
      "anonymous": false,
      "inputs": [
        {
          "indexed": true,
          "internalType": "uint256",
          "name": "proposalId",
          "type": "uint256"
        },
        {
          "indexed": false,
          "internalType": "uint256",
          "name": "executionTime",
          "type": "uint256"
        }
      ],
      "name": "ProposalQueued",
      "type": "event"
    },
    {
      "anonymous": false,
      "inputs": [
        {
          "indexed": true,
          "internalType": "address",
          "name": "user",
          "type": "address"
        },
        {
          "indexed": false,
          "internalType": "uint256",
          "name": "amount",
          "type": "uint256"
        },
        {
          "indexed": false,
          "internalType": "string",
          "name": "reason",
          "type": "string"
        }
      ],
      "name": "ReputationEarned",
      "type": "event"
    },
    {
      "anonymous": false,
      "inputs": [
        {
          "indexed": false,
          "internalType": "address",
          "name": "account",
          "type": "address"
        }
      ],
      "name": "Unpaused",
      "type": "event"
    },
    {
      "anonymous": false,
      "inputs": [
        {
          "indexed": true,
          "internalType": "uint256",
          "name": "proposalId",
          "type": "uint256"
        },
        {
          "indexed": true,
          "internalType": "address",
          "name": "voter",
          "type": "address"
        },
        {
          "indexed": false,
          "internalType": "enum AstroDAO.VoteChoice",
          "name": "choice",
          "type": "uint8"
        },
        {
          "indexed": false,
          "internalType": "uint256",
          "name": "newVoteCount",
          "type": "uint256"
        }
      ],
      "name": "VoteCast",
      "type": "event"
    },
    {
      "anonymous": false,
      "inputs": [
        {
          "indexed": true,
          "internalType": "uint256",
          "name": "proposalId",
          "type": "uint256"
        },
        {
          "indexed": false,
          "internalType": "string",
          "name": "themeName",
          "type": "string"
        },
        {
          "indexed": false,
          "internalType": "uint256",
          "name": "weekNumber",
          "type": "uint256"
        }
      ],
      "name": "WeeklyThemeSet",
      "type": "event"
    },
    {
      "inputs": [],
      "name": "MAX_REPUTATION",
      "outputs": [
        {
          "internalType": "uint256",
          "name": "",
          "type": "uint256"
        }
      ],
      "stateMutability": "view",
      "type": "function"
    },
    {
      "inputs": [],
      "name": "activeVoterWindow",
      "outputs": [
        {
          "internalType": "uint256",
          "name": "",
          "type": "uint256"
        }
      ],
      "stateMutability": "view",
      "type": "function"
    },
    {
      "inputs": [],
      "name": "activeWeeklyTheme",
      "outputs": [
        {
          "internalType": "uint256",
          "name": "",
          "type": "uint256"
        }
      ],
      "stateMutability": "view",
      "type": "function"
    },
    {
      "inputs": [
        {
          "internalType": "address",
          "name": "_user",
          "type": "address"
        },
        {
          "internalType": "uint256",
          "name": "_amount",
          "type": "uint256"
        }
      ],
      "name": "awardReputation",
      "outputs": [],
      "stateMutability": "nonpayable",
      "type": "function"
    },
    {
      "inputs": [
        {
          "internalType": "uint256",
          "name": "_proposalId",
          "type": "uint256"
        }
      ],
      "name": "cancelProposal",
      "outputs": [],
      "stateMutability": "nonpayable",
      "type": "function"
    },
    {
      "inputs": [
        {
          "internalType": "uint256",
          "name": "",
          "type": "uint256"
        }
      ],
      "name": "communityProposals",
      "outputs": [
        {
          "internalType": "uint256",
          "name": "",
          "type": "uint256"
        }
      ],
      "stateMutability": "view",
      "type": "function"
    },
    {
      "inputs": [
        {
          "internalType": "enum AstroDAO.ProposalType",
          "name": "_type",
          "type": "uint8"
        },
        {
          "internalType": "string",
          "name": "_title",
          "type": "string"
        },
        {
          "internalType": "string",
          "name": "_description",
          "type": "string"
        },
        {
          "internalType": "string",
          "name": "_ipfsHash",
          "type": "string"
        },
        {
          "internalType": "bool",
          "name": "_quickVote",
          "type": "bool"
        }
      ],
      "name": "createProposal",
      "outputs": [
        {
          "internalType": "uint256",
          "name": "",
          "type": "uint256"
        }
      ],
      "stateMutability": "nonpayable",
      "type": "function"
    },
    {
      "inputs": [],
      "name": "currentWeek",
      "outputs": [
        {
          "internalType": "uint256",
          "name": "",
          "type": "uint256"
        }
      ],
      "stateMutability": "view",
      "type": "function"
    },
    {
      "inputs": [
        {
          "internalType": "address",
          "name": "_delegatee",
          "type": "address"
        }
      ],
      "name": "delegate",
      "outputs": [],
      "stateMutability": "nonpayable",
      "type": "function"
    },
    {
      "inputs": [
        {
          "internalType": "address",
          "name": "",
          "type": "address"
        }
      ],
      "name": "delegates",
      "outputs": [
        {
          "internalType": "address",
          "name": "",
          "type": "address"
        }
      ],
      "stateMutability": "view",
      "type": "function"
    },
    {
      "inputs": [
        {
          "internalType": "uint256",
          "name": "",
          "type": "uint256"
        }
      ],
      "name": "discoveries",
      "outputs": [
        {
          "internalType": "uint256",
          "name": "proposalId",
          "type": "uint256"
        },
        {
          "internalType": "string",
          "name": "title",
          "type": "string"
        },
        {
          "internalType": "string",
          "name": "researcherName",
          "type": "string"
        },
        {
          "internalType": "string",
          "name": "institution",
          "type": "string"
        },
        {
          "internalType": "string",
          "name": "paperIPFS",
          "type": "string"
        },
        {
          "internalType": "uint256",
          "name": "votingScore",
          "type": "uint256"
        },
        {
          "internalType": "uint256",
          "name": "timestamp",
          "type": "uint256"
        },
        {
          "internalType": "bool",
          "name": "verified",
          "type": "bool"
        },
        {
          "internalType": "uint256",
          "name": "approvalCount",
          "type": "uint256"
        }
      ],
      "stateMutability": "view",
      "type": "function"
    },
    {
      "inputs": [],
      "name": "discoveryCount",
      "outputs": [
        {
          "internalType": "uint256",
          "name": "",
          "type": "uint256"
        }
      ],
      "stateMutability": "view",
      "type": "function"
    },
    {
      "inputs": [
        {
          "internalType": "uint256",
          "name": "",
          "type": "uint256"
        }
      ],
      "name": "discoveryProposals",
      "outputs": [
        {
          "internalType": "uint256",
          "name": "",
          "type": "uint256"
        }
      ],
      "stateMutability": "view",
      "type": "function"
    },
    {
      "inputs": [],
      "name": "emergencyWithdraw",
      "outputs": [],
      "stateMutability": "nonpayable",
      "type": "function"
    },
    {
      "inputs": [
        {
          "internalType": "uint256",
          "name": "_proposalId",
          "type": "uint256"
        }
      ],
      "name": "executeProposal",
      "outputs": [],
      "stateMutability": "nonpayable",
      "type": "function"
    },
    {
      "inputs": [],
      "name": "executionDelay",
      "outputs": [
        {
          "internalType": "uint256",
          "name": "",
          "type": "uint256"
        }
      ],
      "stateMutability": "view",
      "type": "function"
    },
    {
      "inputs": [
        {
          "internalType": "uint256",
          "name": "_proposalId",
          "type": "uint256"
        }
      ],
      "name": "finalizeProposal",
      "outputs": [],
      "stateMutability": "nonpayable",
      "type": "function"
    },
    {
      "inputs": [
        {
          "internalType": "uint256",
          "name": "_proposalId",
          "type": "uint256"
        }
      ],
      "name": "getProposal",
      "outputs": [
        {
          "internalType": "uint256",
          "name": "id",
          "type": "uint256"
        },
        {
          "internalType": "address",
          "name": "proposer",
          "type": "address"
        },
        {
          "internalType": "enum AstroDAO.ProposalType",
          "name": "proposalType",
          "type": "uint8"
        },
        {
          "internalType": "string",
          "name": "title",
          "type": "string"
        },
        {
          "internalType": "string",
          "name": "description",
          "type": "string"
        },
        {
          "internalType": "string",
          "name": "ipfsHash",
          "type": "string"
        },
        {
          "internalType": "uint256",
          "name": "votesFor",
          "type": "uint256"
        },
        {
          "internalType": "uint256",
          "name": "votesAgainst",
          "type": "uint256"
        },
        {
          "internalType": "uint256",
          "name": "votesAbstain",
          "type": "uint256"
        },
        {
          "internalType": "uint256",
          "name": "endTime",
          "type": "uint256"
        },
        {
          "internalType": "uint256",
          "name": "executionTime",
          "type": "uint256"
        },
        {
          "internalType": "enum AstroDAO.ProposalStatus",
          "name": "status",
          "type": "uint8"
        }
      ],
      "stateMutability": "view",
      "type": "function"
    },
    {
      "inputs": [],
      "name": "incrementWeek",
      "outputs": [],
      "stateMutability": "nonpayable",
      "type": "function"
    },
    {
      "inputs": [
        {
          "internalType": "uint256",
          "name": "_proposalId",
          "type": "uint256"
        }
      ],
      "name": "isQuorumReached",
      "outputs": [
        {
          "internalType": "bool",
          "name": "",
          "type": "bool"
        }
      ],
      "stateMutability": "view",
      "type": "function"
    },
    {
      "inputs": [
        {
          "internalType": "address",
          "name": "",
          "type": "address"
        }
      ],
      "name": "isRegisteredVoter",
      "outputs": [
        {
          "internalType": "bool",
          "name": "",
          "type": "bool"
        }
      ],
      "stateMutability": "view",
      "type": "function"
    },
    {
      "inputs": [
        {
          "internalType": "uint256",
          "name": "",
          "type": "uint256"
        }
      ],
      "name": "knowledgeSharingProposals",
      "outputs": [
        {
          "internalType": "uint256",
          "name": "",
          "type": "uint256"
        }
      ],
      "stateMutability": "view",
      "type": "function"
    },
    {
      "inputs": [
        {
          "internalType": "address",
          "name": "",
          "type": "address"
        }
      ],
      "name": "lastVoteTime",
      "outputs": [
        {
          "internalType": "uint256",
          "name": "",
          "type": "uint256"
        }
      ],
      "stateMutability": "view",
      "type": "function"
    },
    {
      "inputs": [],
      "name": "minVotesRequired",
      "outputs": [
        {
          "internalType": "uint256",
          "name": "",
          "type": "uint256"
        }
      ],
      "stateMutability": "view",
      "type": "function"
    },
    {
      "inputs": [],
      "name": "owner",
      "outputs": [
        {
          "internalType": "address",
          "name": "",
          "type": "address"
        }
      ],
      "stateMutability": "view",
      "type": "function"
    },
    {
      "inputs": [],
      "name": "pause",
      "outputs": [],
      "stateMutability": "nonpayable",
      "type": "function"
    },
    {
      "inputs": [],
      "name": "paused",
      "outputs": [
        {
          "internalType": "bool",
          "name": "",
          "type": "bool"
        }
      ],
      "stateMutability": "view",
      "type": "function"
    },
    {
      "inputs": [],
      "name": "proposalCount",
      "outputs": [
        {
          "internalType": "uint256",
          "name": "",
          "type": "uint256"
        }
      ],
      "stateMutability": "view",
      "type": "function"
    },
    {
      "inputs": [],
      "name": "proposalThreshold",
      "outputs": [
        {
          "internalType": "uint256",
          "name": "",
          "type": "uint256"
        }
      ],
      "stateMutability": "view",
      "type": "function"
    },
    {
      "inputs": [
        {
          "internalType": "uint256",
          "name": "",
          "type": "uint256"
        },
        {
          "internalType": "uint256",
          "name": "",
          "type": "uint256"
        }
      ],
      "name": "proposalVoters",
      "outputs": [
        {
          "internalType": "address",
          "name": "",
          "type": "address"
        }
      ],
      "stateMutability": "view",
      "type": "function"
    },
    {
      "inputs": [
        {
          "internalType": "uint256",
          "name": "",
          "type": "uint256"
        }
      ],
      "name": "proposals",
      "outputs": [
        {
          "internalType": "uint256",
          "name": "id",
          "type": "uint256"
        },
        {
          "internalType": "address",
          "name": "proposer",
          "type": "address"
        },
        {
          "internalType": "enum AstroDAO.ProposalType",
          "name": "proposalType",
          "type": "uint8"
        },
        {
          "internalType": "string",
          "name": "title",
          "type": "string"
        },
        {
          "internalType": "string",
          "name": "description",
          "type": "string"
        },
        {
          "internalType": "string",
          "name": "ipfsHash",
          "type": "string"
        },
        {
          "internalType": "uint256",
          "name": "votesFor",
          "type": "uint256"
        },
        {
          "internalType": "uint256",
          "name": "votesAgainst",
          "type": "uint256"
        },
        {
          "internalType": "uint256",
          "name": "votesAbstain",
          "type": "uint256"
        },
        {
          "internalType": "uint256",
          "name": "startTime",
          "type": "uint256"
        },
        {
          "internalType": "uint256",
          "name": "endTime",
          "type": "uint256"
        },
        {
          "internalType": "uint256",
          "name": "executionTime",
          "type": "uint256"
        },
        {
          "internalType": "enum AstroDAO.ProposalStatus",
          "name": "status",
          "type": "uint8"
        },
        {
          "internalType": "bool",
          "name": "executed",
          "type": "bool"
        }
      ],
      "stateMutability": "view",
      "type": "function"
    },
    {
      "inputs": [],
      "name": "quickVotePeriod",
      "outputs": [
        {
          "internalType": "uint256",
          "name": "",
          "type": "uint256"
        }
      ],
      "stateMutability": "view",
      "type": "function"
    },
    {
      "inputs": [],
      "name": "quorumPercentage",
      "outputs": [
        {
          "internalType": "uint256",
          "name": "",
          "type": "uint256"
        }
      ],
      "stateMutability": "view",
      "type": "function"
    },
    {
      "inputs": [],
      "name": "renounceOwnership",
      "outputs": [],
      "stateMutability": "nonpayable",
      "type": "function"
    },
    {
      "inputs": [
        {
          "internalType": "address",
          "name": "_researcher",
          "type": "address"
        },
        {
          "internalType": "bool",
          "name": "_verified",
          "type": "bool"
        }
      ],
      "name": "setVerifiedResearcher",
      "outputs": [],
      "stateMutability": "nonpayable",
      "type": "function"
    },
    {
      "inputs": [],
      "name": "totalVoterCount",
      "outputs": [
        {
          "internalType": "uint256",
          "name": "",
          "type": "uint256"
        }
      ],
      "stateMutability": "view",
      "type": "function"
    },
    {
      "inputs": [
        {
          "internalType": "address",
          "name": "newOwner",
          "type": "address"
        }
      ],
      "name": "transferOwnership",
      "outputs": [],
      "stateMutability": "nonpayable",
      "type": "function"
    },
    {
      "inputs": [],
      "name": "undelegate",
      "outputs": [],
      "stateMutability": "nonpayable",
      "type": "function"
    },
    {
      "inputs": [],
      "name": "unpause",
      "outputs": [],
      "stateMutability": "nonpayable",
      "type": "function"
    },
    {
      "inputs": [
        {
          "internalType": "uint256",
          "name": "_votingPeriod",
          "type": "uint256"
        },
        {
          "internalType": "uint256",
          "name": "_quickVotePeriod",
          "type": "uint256"
        },
        {
          "internalType": "uint256",
          "name": "_minVotesRequired",
          "type": "uint256"
        },
        {
          "internalType": "uint256",
          "name": "_quorumPercentage",
          "type": "uint256"
        },
        {
          "internalType": "uint256",
          "name": "_executionDelay",
          "type": "uint256"
        },
        {
          "internalType": "uint256",
          "name": "_proposalThreshold",
          "type": "uint256"
        }
      ],
      "name": "updateGovernanceParams",
      "outputs": [],
      "stateMutability": "nonpayable",
      "type": "function"
    },
    {
      "inputs": [
        {
          "internalType": "address",
          "name": "",
          "type": "address"
        },
        {
          "internalType": "uint256",
          "name": "",
          "type": "uint256"
        }
      ],
      "name": "userProposals",
      "outputs": [
        {
          "internalType": "uint256",
          "name": "",
          "type": "uint256"
        }
      ],
      "stateMutability": "view",
      "type": "function"
    },
    {
      "inputs": [
        {
          "internalType": "address",
          "name": "",
          "type": "address"
        }
      ],
      "name": "userReputation",
      "outputs": [
        {
          "internalType": "uint256",
          "name": "",
          "type": "uint256"
        }
      ],
      "stateMutability": "view",
      "type": "function"
    },
    {
      "inputs": [
        {
          "internalType": "address",
          "name": "",
          "type": "address"
        }
      ],
      "name": "userVoteCount",
      "outputs": [
        {
          "internalType": "uint256",
          "name": "",
          "type": "uint256"
        }
      ],
      "stateMutability": "view",
      "type": "function"
    },
    {
      "inputs": [
        {
          "internalType": "address",
          "name": "",
          "type": "address"
        }
      ],
      "name": "verifiedResearchers",
      "outputs": [
        {
          "internalType": "bool",
          "name": "",
          "type": "bool"
        }
      ],
      "stateMutability": "view",
      "type": "function"
    },
    {
      "inputs": [
        {
          "internalType": "uint256",
          "name": "_proposalId",
          "type": "uint256"
        },
        {
          "internalType": "enum AstroDAO.VoteChoice",
          "name": "_choice",
          "type": "uint8"
        }
      ],
      "name": "vote",
      "outputs": [],
      "stateMutability": "nonpayable",
      "type": "function"
    },
    {
      "inputs": [],
      "name": "votingPeriod",
      "outputs": [
        {
          "internalType": "uint256",
          "name": "",
          "type": "uint256"
        }
      ],
      "stateMutability": "view",
      "type": "function"
    },
    {
      "inputs": [
        {
          "internalType": "uint256",
          "name": "",
          "type": "uint256"
        }
      ],
      "name": "weeklyThemeProposals",
      "outputs": [
        {
          "internalType": "uint256",
          "name": "",
          "type": "uint256"
        }
      ],
      "stateMutability": "view",
      "type": "function"
    },
    {
      "inputs": [
        {
          "internalType": "uint256",
          "name": "",
          "type": "uint256"
        }
      ],
      "name": "weeklyThemes",
      "outputs": [
        {
          "internalType": "uint256",
          "name": "proposalId",
          "type": "uint256"
        },
        {
          "internalType": "string",
          "name": "themeName",
          "type": "string"
        },
        {
          "internalType": "string",
          "name": "description",
          "type": "string"
        },
        {
          "internalType": "uint256",
          "name": "weekNumber",
          "type": "uint256"
        },
        {
          "internalType": "uint256",
          "name": "votingScore",
          "type": "uint256"
        },
        {
          "internalType": "bool",
          "name": "isActive",
          "type": "bool"
        }
      ],
      "stateMutability": "view",
      "type": "function"
    }
  ],
  "bytecode": "0x608060405262093a806006556203f4806007556005600855600a6009556202a300600a556003600b5562278d00600e5534801561003b57600080fd5b50338061006257604051631e4fbdf760e01b81526000600482015260240160405180910390fd5b61006b81610079565b5060018080556005556100c9565b600080546001600160a01b038381166001600160a01b0319831681178455604051919092169283917f8be0079c531659141344cd1fd0a4f28419497f9722a3daafe3b4186f6b6457e09190a35050565b612a2180620000d96000396000f3fe608060405234801561001057600080fd5b506004361061029f5760003560e01c8063713cdaa811610167578063c7f758a8116100ce578063da36cffe11610087578063da36cffe146105df578063db2e21bc14610602578063e0a8f6f51461060a578063e503bb051461061d578063e50be9e01461063d578063f2fde38b1461064657600080fd5b8063c7f758a81461057d578063cfffa620146105a8578063d213c0f2146105b1578063d364fbb7146105ba578063d7c05ed6146105cd578063da35c664146105d657600080fd5b8063922b832711610120578063922b83271461050e57806392ab89bb14610533578063943e82161461053b578063965494361461054e578063ab89437c14610561578063b58131b01461057457600080fd5b8063713cdaa8146104b1578063715018a6146104d15780638456cb59146104d95780638b257989146104e15780638da5cb5b146104ea5780639079991f146104fb57600080fd5b80634d61ac311161020b5780635c975abb116101c45780635c975abb14610451578063623bd3c41461045c5780636494fad91461046f578063696a21d2146104825780636f71e0651461049557806370e2ee1c1461049e57600080fd5b80634d61ac31146103a65780634fa76ec9146103ce57806354cd9e8c146103d75780635652077c146103ea578063587cde1e146103fd5780635c19a95c1461043e57600080fd5b80632813fe391161025d5780632813fe391461033e57806336f58e5f146103465780633f4ba83a146103795780634019bb5114610381578063403fb4a81461039457806341dfd4981461039d57600080fd5b8062ae2524146102a4578063013cf08b146102d757806302a251a31461030457806306575c891461030d5780630d61b519146103165780631b31527f1461032b575b600080fd5b6102c46102b236600461227f565b600d6020526000908152604090205481565b6040519081526020015b60405180910390f35b6102ea6102e53660046122a1565b610659565b6040516102ce9e9d9c9b9a9998979695949392919061233a565b6102c460065481565b6102c460055481565b6103296103243660046122a1565b610870565b005b6102c46103393660046123ec565b610aa1565b610329610ad2565b61036961035436600461227f565b60106020526000908152604090205460ff1681565b60405190151581526020016102ce565b610329610b39565b61032961038f366004612416565b610b4b565b6102c460085481565b6102c460045481565b6103b96103b43660046122a1565b610d40565b6040516102ce99989796959493929190612459565b6102c460095481565b6102c46103e53660046122a1565b610fae565b6103296103f83660046122a1565b610fcf565b61042661040b36600461227f565b6011602052600090815260409020546001600160a01b031681565b6040516001600160a01b0390911681526020016102ce565b61032961044c36600461227f565b6111a2565b60025460ff16610369565b6102c461046a366004612532565b6112ae565b6102c461047d3660046122a1565b611617565b6102c46104903660046122a1565b611627565b6102c4600c5481565b6103296104ac3660046125f3565b611637565b6102c46104bf36600461227f565b601b6020526000908152604090205481565b61032961166a565b61032961167c565b6102c4600a5481565b6000546001600160a01b0316610426565b6103696105093660046122a1565b61168c565b61052161051c3660046122a1565b6116ff565b6040516102ce96959493929190612626565b610329611849565b610329610549366004612672565b6118f4565b61032961055c3660046123ec565b611bd8565b61042661056f3660046126a6565b611c17565b6102c4600b5481565b61059061058b3660046122a1565b611c4f565b6040516102ce9c9b9a999897969594939291906126c8565b6102c460075481565b6102c461271081565b6102c46105c83660046122a1565b611e99565b6102c4601d5481565b6102c460035481565b6103696105ed36600461227f565b601a6020526000908152604090205460ff1681565b610329611ea9565b6103296106183660046122a1565b611f81565b6102c461062b36600461227f565b600f6020526000908152604090205481565b6102c4600e5481565b61032961065436600461227f565b612045565b60126020526000908152604090208054600182015460028301805492936001600160a01b03831693600160a01b90930460ff169290919061069990612769565b80601f01602080910402602001604051908101604052809291908181526020018280546106c590612769565b80156107125780601f106106e757610100808354040283529160200191610712565b820191906000526020600020905b8154815290600101906020018083116106f557829003601f168201915b50505050509080600301805461072790612769565b80601f016020809104026020016040519081016040528092919081815260200182805461075390612769565b80156107a05780601f10610775576101008083540402835291602001916107a0565b820191906000526020600020905b81548152906001019060200180831161078357829003601f168201915b5050505050908060040180546107b590612769565b80601f01602080910402602001604051908101604052809291908181526020018280546107e190612769565b801561082e5780601f106108035761010080835404028352916020019161082e565b820191906000526020600020905b81548152906001019060200180831161081157829003601f168201915b5050505060058301546006840154600785015460088601546009870154600a880154600b90980154969794969395509193909260ff808216916101009004168e565b610878612080565b60008181526012602052604090206004600b82015460ff1660068111156108a1576108a16122ba565b146108bf57604051630992f7ad60e01b815260040160405180910390fd5b600b810154610100900460ff16156108ea57604051630992f7ad60e01b815260040160405180910390fd5b60018101546001600160a01b0316331480159061091257506000546001600160a01b03163314155b1561098d57600a81015461092990620151806127b9565b4210156109885760405162461bcd60e51b815260206004820152602260248201527f5075626c696320657865637574696f6e206e6f742079657420617661696c61626044820152616c6560f01b60648201526084015b60405180910390fd5b6109d4565b80600a01544210156109d45760405162461bcd60e51b815260206004820152601060248201526f54696d65206c6f636b2061637469766560801b604482015260640161097f565b600b8101805461ffff19166101051790556001810154600090600160a01b900460ff166004811115610a0857610a086122ba565b03610a2f57601d8290556000828152601460205260409020600501805460ff191660011790555b6001810154604080518082019091526011815270141c9bdc1bdcd85b08195e1958dd5d1959607a1b6020820152610a72916001600160a01b0316906005906120a4565b60405182907f712ae1383f79ac853f8d882153778e0260ef8f03b504e2866e0593e04d2b291f90600090a25050565b601c6020528160005260406000208181548110610abd57600080fd5b90600052602060002001600091509150505481565b610ada612134565b60001960055410610b1d5760405162461bcd60e51b815260206004820152600d60248201526c5765656b206f766572666c6f7760981b604482015260640161097f565b60058054906000610b2d836127d2565b90915550506000601d55565b610b41612134565b610b49612161565b565b610b53612134565b6203f480861015610ba65760405162461bcd60e51b815260206004820152601760248201527f566f74696e6720706572696f6420746f6f2073686f7274000000000000000000604482015260640161097f565b62015180851015610bf05760405162461bcd60e51b8152602060048201526014602482015273145d5a58dac81d9bdd19481d1bdbc81cda1bdc9d60621b604482015260640161097f565b60008411610c405760405162461bcd60e51b815260206004820152601a60248201527f4d696e20766f746573206d75737420626520706f736974697665000000000000604482015260640161097f565b600083118015610c51575060648311155b610c8e5760405162461bcd60e51b815260206004820152600e60248201526d496e76616c69642071756f72756d60901b604482015260640161097f565b62015180821015610cd35760405162461bcd60e51b815260206004820152600f60248201526e11195b185e481d1bdbc81cda1bdc9d608a1b604482015260640161097f565b60008111610d235760405162461bcd60e51b815260206004820152601a60248201527f5468726573686f6c64206d75737420626520706f736974697665000000000000604482015260640161097f565b600695909555600793909355600891909155600955600a55600b55565b60136020526000908152604090208054600182018054919291610d6290612769565b80601f0160208091040260200160405190810160405280929190818152602001828054610d8e90612769565b8015610ddb5780601f10610db057610100808354040283529160200191610ddb565b820191906000526020600020905b815481529060010190602001808311610dbe57829003601f168201915b505050505090806002018054610df090612769565b80601f0160208091040260200160405190810160405280929190818152602001828054610e1c90612769565b8015610e695780601f10610e3e57610100808354040283529160200191610e69565b820191906000526020600020905b815481529060010190602001808311610e4c57829003601f168201915b505050505090806003018054610e7e90612769565b80601f0160208091040260200160405190810160405280929190818152602001828054610eaa90612769565b8015610ef75780601f10610ecc57610100808354040283529160200191610ef7565b820191906000526020600020905b815481529060010190602001808311610eda57829003601f168201915b505050505090806004018054610f0c90612769565b80601f0160208091040260200160405190810160405280929190818152602001828054610f3890612769565b8015610f855780601f10610f5a57610100808354040283529160200191610f85565b820191906000526020600020905b815481529060010190602001808311610f6857829003601f168201915b505050600684015460078501546008860154600a909601549495919490935060ff909116915089565b60178181548110610fbe57600080fd5b600091825260209091200154905081565b610fd7612080565b60008181526012602052604090206001600b82015460ff166006811115611000576110006122ba565b1461101e57604051637becc13f60e01b815260040160405180910390fd5b80600901544210156110685760405162461bcd60e51b8152602060048201526013602482015272566f74696e67207374696c6c2061637469766560681b604482015260640161097f565b6110718261168c565b6110d657600b8101805460ff1916600390811790915560058201546006830154600784015460405186947fbea26fb7b1bee880c70cf1614c512461ecf3f0039de69cff7141c9f88d5c73d7946110ca94919390926127eb565b60405180910390a25050565b80600601548160050154111561114357600b8101805460ff19166004179055600a5461110290426127b9565b600a820181905560405190815282907f9a2e42fd6722813d69113e7d0079d3d940171428df7373df9c7f7617cfda28929060200160405180910390a2611153565b600b8101805460ff191660031790555b600b81015460058201546006830154600784015460405186947fbea26fb7b1bee880c70cf1614c512461ecf3f0039de69cff7141c9f88d5c73d7946110ca9460ff9092169390926127eb565b50565b336001600160a01b038216036111fa5760405162461bcd60e51b815260206004820152601760248201527f43616e6e6f742064656c656761746520746f2073656c66000000000000000000604482015260640161097f565b6001600160a01b0381166112505760405162461bcd60e51b815260206004820152601760248201527f43616e6e6f742064656c656761746520746f207a65726f000000000000000000604482015260640161097f565b3360008181526011602052604080822080546001600160a01b038681166001600160a01b0319831681179093559251921693909284927f3134e8a2e6d97e929a7e54011ea5485d7d196dd5f0ba4d4ef95803e8e3fc257f9190a45050565b60006112b8612080565b866112f65760405162461bcd60e51b815260206004820152600e60248201526d151a5d1b19481c995c5d5a5c995960921b604482015260640161097f565b8461133a5760405162461bcd60e51b815260206004820152601460248201527311195cd8dc9a5c1d1a5bdb881c995c5d5a5c995960621b604482015260640161097f565b600b54336000908152600f6020526040902054101561136c57604051631899c49760e31b815260040160405180910390fd5b6003805490600061137c836127d2565b90915550506003546000818152601260205260409020818155600181018054336001600160a01b03198216811783558d92916001600160a81b03191660ff60a01b1990911617600160a01b8360048111156113d9576113d96122ba565b0217905550600281016113ed8a8c83612879565b50600381016113fd888a83612879565b506004810161140d868883612879565b504260088201558361142157600654611425565b6007545b61142f90426127b9565b6009820155600b8101805460ff1916600117905560008b6004811115611457576114576122ba565b0361149657601680546001810182556000919091527fd833147d7dc355ba459fc788f669e58cfaf9dc25ddcd0702e87d69c7b51242890182905561158b565b60018b60048111156114aa576114aa6122ba565b036114e957601780546001810182556000919091527fc624b66cc0138b8fabc209247f72d758e1cf3343756d543badbf24212bed8c150182905561158b565b60028b60048111156114fd576114fd6122ba565b0361153c57601880546001810182556000919091527fb13d2d76d1f4b7be834882e410b3e3a8afaf69f83600ae24db354391d2378d2e0182905561158b565b60038b6004811115611550576115506122ba565b0361158b57601980546001810182556000919091527f944998273e477b495144fb8794c914197f3ccb46be2900f4698fd0ef743c9695018290555b336000908152601c60209081526040822080546001810182559083529120018290558a60048111156115bf576115bf6122ba565b336001600160a01b0316837f2160cbf9d326719dd2cc1be7c9b9c511051b9228f9b3edc8fe58aed7d44fdac38d8d86600901546040516116019392919061293a565b60405180910390a4509998505050505050505050565b60168181548110610fbe57600080fd5b60198181548110610fbe57600080fd5b61163f612134565b6001600160a01b03919091166000908152601060205260409020805460ff1916911515919091179055565b611672612134565b610b4960006121b3565b611684612134565b610b49612203565b60008181526012602052604081206007810154600682015460058301548492916116b5916127b9565b6116bf91906127b9565b90506008548110156116d5575060009392505050565b60006064600954600c546116e99190612973565b6116f3919061298a565b90911015949350505050565b6014602052600090815260409020805460018201805491929161172190612769565b80601f016020809104026020016040519081016040528092919081815260200182805461174d90612769565b801561179a5780601f1061176f5761010080835404028352916020019161179a565b820191906000526020600020905b81548152906001019060200180831161177d57829003601f168201915b5050505050908060020180546117af90612769565b80601f01602080910402602001604051908101604052809291908181526020018280546117db90612769565b80156118285780601f106117fd57610100808354040283529160200191611828565b820191906000526020600020905b81548152906001019060200180831161180b57829003601f168201915b50505050600383015460048401546005909401549293909290915060ff1686565b336000908152601160205260409020546001600160a01b0316806118a05760405162461bcd60e51b815260206004820152600e60248201526d4e6f742064656c65676174696e6760901b604482015260640161097f565b3360008181526011602052604080822080546001600160a01b03191690555190916001600160a01b038416917f3134e8a2e6d97e929a7e54011ea5485d7d196dd5f0ba4d4ef95803e8e3fc257f908490a450565b6118fc612080565b6000828152601260205260408120805490910361192c57604051630992f7ad60e01b815260040160405180910390fd5b6001600b82015460ff166006811115611947576119476122ba565b1461196557604051637becc13f60e01b815260040160405180910390fd5b806009015442111561198a57604051637becc13f60e01b815260040160405180910390fd5b336000908152600c8201602052604090205460ff16156119bd57604051637c9a1cf960e01b815260040160405180910390fd5b336000908152601160205260409020546001600160a01b0316156119f457604051631a30c08d60e31b815260040160405180910390fd5b336000908152601a602052604090205460ff16611a3957336000908152601a60205260408120805460ff19166001179055600c805491611a33836127d2565b91905055505b336000908152600d60208181526040808420429055600c850182528084208054600160ff1991821681179092559386019092529092208054859391921690836002811115611a8957611a896122ba565b02179055506001826002811115611aa257611aa26122ba565b03611ac357600581018054906000611ab9836127d2565b9190505550611b06565b6000826002811115611ad757611ad76122ba565b03611aee57600681018054906000611ab9836127d2565b600781018054906000611b00836127d2565b91905055505b600083815260156020908152604080832080546001810182559084528284200180546001600160a01b031916339081179091558352601b9091528120805491611b4e836127d2565b9190505550611b8833600160405180604001604052806011815260200170159bdd1959081bdb881c1c9bdc1bdcd85b607a1b8152506120a4565b336000818152601b60205260409081902054905185917fb83d25c6a5d258561330739951487acb4bd09ba5190b5d32c4f261817d90679291611bcb9187916129ac565b60405180910390a3505050565b611be0612134565b611c1382826040518060400160405280601081526020016f20bbb0b93232b210313c9030b236b4b760811b8152506120a4565b5050565b60156020528160005260406000208181548110611c3357600080fd5b6000918252602090912001546001600160a01b03169150829050565b6000818152601260205260408120805460018201546005830154600684015460078501546009860154600a870154600b8801546002890180548b9a8b9a60609a8b9a8b9a8e9a8b9a8b9a8b9a8b9a8b9a6001600160a01b0389169860ff600160a01b909104811698929760038d019760048e019794969195909493919216908990611cd990612769565b80601f0160208091040260200160405190810160405280929190818152602001828054611d0590612769565b8015611d525780601f10611d2757610100808354040283529160200191611d52565b820191906000526020600020905b815481529060010190602001808311611d3557829003601f168201915b50505050509850878054611d6590612769565b80601f0160208091040260200160405190810160405280929190818152602001828054611d9190612769565b8015611dde5780601f10611db357610100808354040283529160200191611dde565b820191906000526020600020905b815481529060010190602001808311611dc157829003601f168201915b50505050509750868054611df190612769565b80601f0160208091040260200160405190810160405280929190818152602001828054611e1d90612769565b8015611e6a5780601f10611e3f57610100808354040283529160200191611e6a565b820191906000526020600020905b815481529060010190602001808311611e4d57829003601f168201915b505050505096509c509c509c509c509c509c509c509c509c509c509c509c505091939597999b5091939597999b565b60188181548110610fbe57600080fd5b611eb1612134565b4780611eea5760405162461bcd60e51b81526020600482015260086024820152674e6f2066756e647360c01b604482015260640161097f565b600080546040516001600160a01b039091169083908381818185875af1925050503d8060008114611f37576040519150601f19603f3d011682016040523d82523d6000602084013e611f3c565b606091505b5050905080611c135760405162461bcd60e51b815260206004820152601160248201527015da5d1a191c985dd85b0819985a5b1959607a1b604482015260640161097f565b600081815260126020526040902060018101546001600160a01b03163314801590611fb757506000546001600160a01b03163314155b15611fd4576040516282b42960e81b815260040160405180910390fd5b6001600b82015460ff166006811115611fef57611fef6122ba565b1415801561201657506000600b82015460ff166006811115612013576120136122ba565b14155b1561203457604051630992f7ad60e01b815260040160405180910390fd5b600b01805460ff1916600617905550565b61204d612134565b6001600160a01b03811661207757604051631e4fbdf760e01b81526000600482015260240161097f565b61119f816121b3565b60025460ff1615610b495760405163d93c066560e01b815260040160405180910390fd5b6001600160a01b0383166000908152600f60205260408120546120c89084906127b9565b90506127108111156120d957506127105b6001600160a01b0384166000818152600f602052604090819020839055517f20d1203ad04af96695a6de2e92289c50b68bd139de21fe5249b4ba5837fe297a9061212690869086906129ca565b60405180910390a250505050565b6000546001600160a01b03163314610b495760405163118cdaa760e01b815233600482015260240161097f565b612169612240565b6002805460ff191690557f5db9ee0a495bf2e6ff9c91a7834c1ba4fdd244a5e8aa4e537bd38aeae4b073aa335b6040516001600160a01b03909116815260200160405180910390a1565b600080546001600160a01b038381166001600160a01b0319831681178455604051919092169283917f8be0079c531659141344cd1fd0a4f28419497f9722a3daafe3b4186f6b6457e09190a35050565b61220b612080565b6002805460ff191660011790557f62e78cea01bee320cd4e420270b5ea74000d11b0c9f74754ebdbfc544b05a2586121963390565b60025460ff16610b4957604051638dfc202b60e01b815260040160405180910390fd5b80356001600160a01b038116811461227a57600080fd5b919050565b60006020828403121561229157600080fd5b61229a82612263565b9392505050565b6000602082840312156122b357600080fd5b5035919050565b634e487b7160e01b600052602160045260246000fd5b600581106122e0576122e06122ba565b9052565b6000815180845260005b8181101561230a576020818501810151868301820152016122ee565b506000602082860101526020601f19601f83011685010191505092915050565b600781106122e0576122e06122ba565b8e81526001600160a01b038e166020820152612359604082018e6122d0565b6101c0606082015260006123716101c083018e6122e4565b8281036080840152612383818e6122e4565b905082810360a0840152612397818d6122e4565b9150508960c08301528860e0830152876101008301528661012083015285610140830152846101608301526123d061018083018561232a565b8215156101a08301529f9e505050505050505050505050505050565b600080604083850312156123ff57600080fd5b61240883612263565b946020939093013593505050565b60008060008060008060c0878903121561242f57600080fd5b505084359660208601359650604086013595606081013595506080810135945060a0013592509050565b60006101208b83528060208401526124738184018c6122e4565b90508281036040840152612487818b6122e4565b9050828103606084015261249b818a6122e4565b905082810360808401526124af81896122e4565b60a0840197909752505060c081019390935290151560e08301526101009091015295945050505050565b60008083601f8401126124eb57600080fd5b50813567ffffffffffffffff81111561250357600080fd5b60208301915083602082850101111561251b57600080fd5b9250929050565b8035801515811461227a57600080fd5b60008060008060008060008060a0898b03121561254e57600080fd5b88356005811061255d57600080fd5b9750602089013567ffffffffffffffff8082111561257a57600080fd5b6125868c838d016124d9565b909950975060408b013591508082111561259f57600080fd5b6125ab8c838d016124d9565b909750955060608b01359150808211156125c457600080fd5b506125d18b828c016124d9565b90945092506125e4905060808a01612522565b90509295985092959890939650565b6000806040838503121561260657600080fd5b61260f83612263565b915061261d60208401612522565b90509250929050565b86815260c06020820152600061263f60c08301886122e4565b828103604084015261265181886122e4565b606084019690965250506080810192909252151560a0909101529392505050565b6000806040838503121561268557600080fd5b8235915060208301356003811061269b57600080fd5b809150509250929050565b600080604083850312156126b957600080fd5b50508035926020909101359150565b8c81526001600160a01b038c16602082015260006101806126ec604084018e6122d0565b8060608401526126fe8184018d6122e4565b90508281036080840152612712818c6122e4565b905082810360a0840152612726818b6122e4565b9150508760c08301528660e083015285610100830152846101208301528361014083015261275861016083018461232a565b9d9c50505050505050505050505050565b600181811c9082168061277d57607f821691505b60208210810361279d57634e487b7160e01b600052602260045260246000fd5b50919050565b634e487b7160e01b600052601160045260246000fd5b808201808211156127cc576127cc6127a3565b92915050565b6000600182016127e4576127e46127a3565b5060010190565b608081016127f9828761232a565b84602083015283604083015282606083015295945050505050565b634e487b7160e01b600052604160045260246000fd5b601f82111561287457600081815260208120601f850160051c810160208610156128515750805b601f850160051c820191505b818110156128705782815560010161285d565b5050505b505050565b67ffffffffffffffff83111561289157612891612814565b6128a58361289f8354612769565b8361282a565b6000601f8411600181146128d957600085156128c15750838201355b600019600387901b1c1916600186901b178355612933565b600083815260209020601f19861690835b8281101561290a57868501358255602094850194600190920191016128ea565b50868210156129275760001960f88860031b161c19848701351681555b505060018560011b0183555b5050505050565b604081528260408201528284606083013760006060848301015260006060601f19601f8601168301019050826020830152949350505050565b80820281158282048414176127cc576127cc6127a3565b6000826129a757634e487b7160e01b600052601260045260246000fd5b500490565b60408101600384106129c0576129c06122ba565b9281526020015290565b8281526040602082015260006129e360408301846122e4565b94935050505056fea26469706673582212208bd93c5a120286ab9dcacf164752e8f7858b2a97c143f7d1abbd246139646fca64736f6c63430008140033",
  "linkReferences": {},
  "deployedLinkReferences": {}
}